:020000040800F2
:10000000603C0020010100087F480008F739000823
:100010007D480008550200087949000800000000EA
:10002000000000000000000000000000A3480008DD
:10003000A502000800000000A1480008A54800082B
:100040001B0100081B0100081B0100081B01000820
:100050001B0100081B0100081B0100081B01000810
:100060001B0100081B0100081B01000859020008C1
:100070001B0100081B0100081B0100081B010008F0
:100080001B0100081B0100081B0100081B010008E0
:100090001B0100081B0100081B0100081B010008D0
:1000A0001B0100081B0100081B0100081B010008C0
:1000B0001B0100081B0100081B0100081B010008B0
:1000C0001B0100081B0100081B0100081B010008A0
:1000D0001B0100081B0100081B0100081B01000890
:1000E0001B0100081B0100081B010008DFF80CD0F1
:1000F00000F04AF80048004721920008603C0020C8
:100100000648804706480047FEE7FEE7FEE7FEE7B1
:10011000FEE7FEE7FEE7FEE7FEE7FEE731490008FF
:10012000ED00000810B5431A934209D283188818CD
:1001300003E010F8011D03F8011D521EF9D210BD95
:1001400040EA01039B0703D009E008C9121F08C059
:10015000042AFAD203E011F8013B00F8013B521ED9
:10016000F9D210BDD2B201E000F8012B491EFBD23A
:1001700070470022F6E710B513460A4604461946B2
:10018000FFF7F0FF204610BD064C074D06E0E06883
:1001900040F0010394E8070098471034AC42F6D3CE
:1001A000FFF7A8FFE8DD010808DE010870B501EBE4
:1001B000020410F8015B15F0070301D110F8013BB0
:1001C0002A1106D110F8012B03E010F8016B01F899
:1001D000016B5B1EF9D12B0705D40023521E0FD4EF
:1001E00001F8013BFAE710F8013B02F10202A1EB32
:1001F000030303E013F8015B01F8015B521EF9D51C
:10020000A142D6D3002070BD70B504460068816855
:10021000C943C9071CD1816821F00101816002F046
:1002200005FE05460FE000BF02F000FE401B02285D
:1002300009D9A06A40F01000A062E06A40F0010015
:10024000E062012070BD20688068C043C007EBD029
:10025000002070BDFEE70000014802F08BBB0000EB
:10026000300200201FB54FF6FF7000900020019073
:10027000012002906946024802F0E6FC1FBD000022
:10028000000C01401FB54FF6FF7000900120019057
:10029000032003906946024802F0D6FC1FBD00000F
:1002A000000C0140704700001E221146014800F07A
:1002B00083BC000034AC0108FEE700002DE9F043E8
:1002C0000446C56887B090468946002001F006FACA
:1002D000064625B1287910B146F0020001E026F06B
:1002E000020001F0FBF92069012558B1D4E902129E
:1002F0008DE82600039563882288046841464846B5
:10030000A0471EE0124F134B214638681B68427C01
:10031000E068984730B9E088012801D0002001E06A
:100320003868806BA288E388A1680095CDE9041045
:10033000CDE902320195638822884146484603F0A0
:1003400071FB07B03046BDE8F04301F0C7B90000CB
:100350002C0000202400002010B5002001F0AAF994
:100360006FF07F4001F0A8F9012001F0E7F90020CB
:1003700001F0ECF9002001F0F3F9002001F0AEF9F2
:100380000448006801F0ACF9BDE81040002001F01D
:10039000B1B90000280000202DE9F04FDFF828B1A6
:1003A00091B04FF0FF35DBF80030B3F92210069121
:1003B000DE69B3F924A0F469A189814206D8E289F3
:1003C000824203D3471AD4F8008012E0D4E90181B5
:1003D000002970D00A8882426DD84D8885426AD340
:1003E000801A82B2486800EB8200B0F90070B0F960
:1003F0000250781C5FD0307EA27C014600FB02F9DF
:10040000207CCDE90710B3F92A60304603F014FFD1
:10041000C0B20E90DBF8001007FB0980A37C8A6B4A
:100420000127CDE90402CDE90273C869089AC17EAB
:10043000807ECDE90001DDE90603514603F0F2FAC2
:10044000681C18D046F0020003F0F6FEDBF800004E
:10045000A37C05FB0981826BCDE90273CDE904120F
:10046000C069089AC17E807ECDE90001DDE90603FE
:10047000514603F0D7FADBF800005D46C069417EC3
:10048000007E814214D9022E12D086F0040003F0BF
:10049000D3FE2868C069027EC37E857E02FB03A16D
:1004A000437E089A0698534402FB050203F01CFCA5
:1004B0000E9803F0C1FEDBF80000627C418C114411
:1004C000418411B0BDE8F08F2C0000200448006882
:1004D000C069C06909B1027C0A60407C70470000B5
:1004E0002C000020022008807047C06982898A425F
:1004F00002D8C2898A4210D2806880B102888A42BA
:100500000DD843888B420AD3406800EB8100A0EBF2
:100510008200B0F90000002801DB012070470020B4
:10052000704700002DE9F0432F4C034687B0206848
:100530001946B0F92A80C069C06900F082F8002825
:100540004ED041680088181A01EBC0054046AE78CD
:1005500003F072FE814620686A680123816BCDE951
:100560000236CDE90421C169CB7E8A7ECDE9002324
:100570000B7EB0F924102A78B0F9220003F052FA69
:100580002068C069477E067EB7421DD9C07E4743BA
:100590004643B8F1020F17D000F078FB804600F018
:1005A0005DFB01F089F821682A78CB69B1F9220056
:1005B000B1F92410DB7E02FB0302CB19314403F0B6
:1005C00093FB404601F078F8484603F035FE20687A
:1005D0006A78C369B0F922109B7E02FB0311418443
:1005E00007B0BDE8F08300002C00002030B50E4CB1
:1005F00005460B4620682946C069C06900F021F80D
:10060000002810D04168008824682A1A0120E46973
:1006100000EBC200085CA47E6043002B03D011F8FD
:1006200032106143196030BD2C0000200120088089
:10063000704700B5C06900F004F8002800D0012020
:1006400000BD06E002888A4202D842888A4202D26D
:1006500080680028F6D17047002801D005F0F6B96F
:10066000704738B50546FFF7F7FF040009D000F0E2
:10067000B3F82A460021009001F07EFF684600F0A2
:10068000CDF8204638BD0000024A106021F003007A
:10069000506070472833002010B5002814D004465D
:1006A0000A48406B10F8341000290DD002290BD2F3
:1006B000042101EBC4014158486805F081F9204646
:1006C000BDE8104007F018BE10BD000068320020E1
:1006D000002805D0034AD16B016001B14860D063A6
:1006E00070470000683200202DE9F041044607F011
:1006F000FBFB2848E41C24F00305016C2D1DA942D6
:1007000000D90D46C46B13E054F8042CAA420ED154
:1007100084B1216809B162684A60616809B12268E0
:100720000A60C26BA24231D12168C1632EE0246805
:10073000002CE9D18046816BC0680F1857F8040C73
:100740003E1A306838B1002007F032FE57F8040C2A
:100750003E1A3068D0B97068A84217DB3044441B99
:100760003046241D07F0DCFDD8F80C10491BC8F8F2
:100770000C10D8F814102944C8F814107068401BE5
:1007800002D0314605F01CF944F8045C2046BDE86F
:10079000F08100006832002010B5002407F0A4FBAF
:1007A0000C490F2001EBC002526C1AB101EBC000E2
:1007B000406C08E0401EF5D508E04168A14200D930
:1007C0000C46806810B180680028F6D1A4F10C00B6
:1007D00010BD0000683200200549CA69521CCA6178
:1007E000496B01EBC0010A78521C0A7000F02EB868
:1007F0006832002010B5FFF7CFFF64220649B0F53C
:10080000800F04D990FBF2F0096A484310BD096AD1
:100810004143B1FBF2F010BD683200200A49026882
:100820004B6B52F8082C03EBC2021378022B03D354
:10083000CB690BB15B1ECB611178491E1170002191
:10084000016008467047000068320020002806D08A
:100850000349042202EBC000496B08580830704776
:100860006832002010B5C2B2CBB2D21A00D55242C3
:1008700093B25B43C0F30722C1F30724121B00D5D8
:100880005242000C92B2A0EB114002FB023200B2C5
:10089000002801DA404200B280B200FB002010BD07
:1008A00010B50021084600F043FA43F6FF725042AB
:1008B000BDE8104013460146AFF300802DE9FC412E
:1008C00007461C4615460E46042003F0B5FC80463C
:1008D0001148C068C16C006D0F4406440D440444C7
:1008E000ADF80070ADF80450ADF80260ADF8064008
:1008F000684604F007FD07E023462A46314638469D
:1009000003F0F2F904F0C0FC0028F5D1404603F0F2
:1009100093FCBDE8FC810000200000202DE9F0419F
:100920001C4616460D460746022B02DB0020BDE89A
:10093000F0811C20FFF7D8FE0028F8D00DB105612A
:100940000AE0094A52F8241009B905E011460A687C
:10095000002AFBD10969016184618682002101605E
:100960004160C0E90217E2E74400002070B51D466F
:10097000FFF7D4FF040009D000F00EF8E06800682B
:1009800020B90348006800EB85008465204670BDEF
:100990002C000020FFF79CBE70B590B38269022A3C
:1009A00030DA1E4C54F8221019B944F8220032E013
:1009B00019464B68002BFBD106E0CB68C5681B6865
:1009C0002D68AB4203DD09680029F6D11AE0C1B1F8
:1009D000CB68C6681B683668B3420CD1838A012B8A
:1009E00005D008E01946DB681B68AB4203DB0B68E7
:1009F000002BF7D129B14B6833B118604A684260C7
:100A000004E0FFE7012070BD44F8220048608842FE
:100A100000D100210160002070BD000044000020D2
:100A200007F0BEBE022801DB00207047054951F8DF
:100A3000200004E0C16809680029F6D00068002899
:100A4000F8D170474400002070B5044601F030F83A
:100A5000051908E000F0D6F8052C01DD052000E0BE
:100A6000204601F019F801F023F82C1A002CF1DCD3
:100A700070BD00002DE9FC4706005BD000F00EF9C8
:100A80003B4C81462068B0F9228000F029F92168AA
:100A900007468A8CD01B888441E000BF47F6FF716F
:100AA000304601F0E9FB82460146304601F0BAFBD0
:100AB0002168054691F82C0000F0030001283FD082
:100AC000022839D000204A8C101A4884ADF8000062
:100AD0006A1E1044ADF80400888CADF80200A9F13C
:100AE00001010844ADF806006A465146304601F05F
:100AF00069F92168BDF8020088845146304600F04B
:100B0000B1FE064430780A281CD00D281AD0BDF852
:100B10000000216828444884307818B1761C307869
:100B20000028BBD12068818C39448184818D21F0DB
:100B300003018185BDE8FC8705EBD5704010C2E755
:100B40002846C0E7206890F82C1001F00301012925
:100B50000BD0022909D0018C418431780A29DBD1DC
:100B6000828C02EB09018184D6E7A0F82280F4E7A9
:100B70002C000020024B1B6859849A84FFF77ABF2F
:100B80002C0000202DE9F04107460A4815460E4684
:100B90000068B0F92C0040F0020000F0D7FD0446D8
:100BA0002A4631463846FFF7E5FF2046BDE8F041CA
:100BB00000F0CCBD2C0000207CB506461048006833
:100BC000C36C006D5D1884183188681E0844ADF848
:100BD0000400ADF800507188601E0844ADF80600AE
:100BE000ADF80240684604F08DFB06E02246294637
:100BF0003046FFF763FB04F047FB0028F6D17CBDCD
:100C00002C00002010B5002400E0012400F004F8BE
:100C10000028FAD1204610BD094810B5006800240C
:100C200010B1804700B1012404F044F800B1012460
:100C30000448006810B1804700B10124204610BD6F
:100C4000500000204C000020034951F82000C168EA
:100C50008A6A0821104700004400002010B503F004
:100C600073F8BDE8104003F033B900000249096889
:100C7000C9694A68002110472C000020024A126806
:100C8000D2695268104700002C00002010B503F014
:100C900063F8BDE8104003F01BB90000024800688B
:100CA000C069407E704700002C00002001F000BBAE
:100CB00010B5044C2068002802D103F0CBF8206066
:100CC00010BD00007000002010B5044C60680028C2
:100CD00002D103F0CBF8606010BD0000700000206E
:100CE0000A490020096891F82C2002F00C02042A1D
:100CF00007D0082A01D00C2A02D1C869007E40081A
:100D00007047C869007E401E704700002C0000201C
:100D1000024951F820000069006870474400002033
:100D2000024951F8200000694068704744000020E3
:100D300070B50D4607F018F80446284607F01CF871
:100D4000204370BD124810B5016821F00101016017
:100D50001048012181601049016000680F498842F4
:100D600000D0FEE700F060FF0D492E20087000F073
:100D7000A5FE0C4807F06AF808F08EF90446002139
:100D8000084600F0BFFC03F0F7FF204610BD00004E
:100D9000002000E000300240C2A507F4CDB5E8B560
:100DA00020000020343300201CB520B90C48006816
:100DB000006E002812D0FFF70FFD009044696846CE
:100DC000FFF72CFD002C09D02046FFF705FD019010
:100DD00081688968884701A8FFF720FD1CBD0000D5
:100DE0002C00002001490A4600F002B801F0FFFF84
:100DF0002DE9F04387B015460C465FEA000842D063
:100E0000002000F06BFC814620480068066E4046DA
:100E1000FFF7E2FC00900068806900F039FC0746AB
:100E200040F6FF70C44204D10098B0F90440B0F914
:100E300006500098611E0289ADF804401144ADF8D7
:100E400008104189681E0844ADF80650ADF80A0044
:100E500003F094FD6846FFF7E1FC01A804F052FAA4
:100E600006E02A462146404600F03CFB04F00CFA1E
:100E70000028F6D1384600F00BFC304600F054F95B
:100E8000484600F02BFC07B0BDE8F0832C000020A2
:100E90002DE9FE4F834619488A46194900680C9E81
:100EA0009846407C9146002751F82040E168096847
:100EB000042903D02468002CF8D100E014B9FFF70E
:100EC000B1FD04460121E068C26A20469047050052
:100ED00011D02469A0688047401C02D1094C46F01B
:100EE00001060096CDE9015443464A46514658460C
:100EF00000F09EF907463846BDE8FE8F2C00002022
:100F00004400002044DD010838B5040018D00D4825
:100F10000068006EA04201D100F0B0FB2046FFF750
:100F20005BFC0090406908B100F093FD00980068F8
:100F3000FFF730FD6846FFF771FC2046FFF7ACFB7A
:100F400038BD00002C0000202DE9FF4F0746464821
:100F500083B099460068DDF840B08A46447C434837
:100F600000570128204606DD02F07CFF804620461F
:100F700002F084FF05E002F063FF8046204602F0A5
:100F800065FF044617B302A901A8FFF78FFEB7F962
:100F90000060002E00DA0026B7F90250002D00DABA
:100FA00000250199B7F904004144491E07F031F8C2
:100FB000804602980119B7F90600491E07F029F882
:100FC000A8EB0602441B521C641C02E000263546B6
:100FD0004246B9F1000F01D1C4F10009002A01DD38
:100FE000002C03DC002007B0BDE8F08F4B462946FB
:100FF0003046CDF800B0FFF74BFF5FEA000909D09B
:1010000000F058F88046484600F08EF80027DFF8D8
:1010100060B01FE05146059888470120E3E7E11BD7
:10102000414502DA484600F069F83FB1EA19314615
:10103000484600F09BF84846FFF7B6FE5146059833
:101040008847DBF8001009B1002088474846FFF7C1
:10105000C9FE4744A742E2DB4846FFF755FF0020A0
:1010600000F062F8BEE700002C00002064000020C1
:101070005001002038B5002460B1FFF7ADFB0090AF
:10108000006800698068804703F07CFA044668467F
:10109000FFF7C4FB204638BD38B5002808D0FFF75D
:1010A0009BFB00F1180400906846FFF7B7FB204651
:1010B00038BD000038B5002418B907480068006E34
:1010C00038B1FFF789FB0090B0F90A406846FFF796
:1010D000A5FB204638BD00002C00002070B5054659
:1010E0000024284604F0BCFD641C18B1BDE8704023
:1010F00000F068B8052CF4DB70BD000038B50C4674
:1011000020B908480068006E00280AD0FFF764FB89
:101110000090B0F90A10A14200DD44816846FFF753
:101120007DFB38BD2C000020F8B50F4E050030685F
:10113000046E16D00CB100F0A1FA03F00BFD2846A6
:10114000FFF74AFB009031680D660068FFF724FC4A
:101150006846FFF763FB03F0B7F803F04DF820464D
:10116000F8BD00F08BFAFAE72C0000207CB515469C
:101170000C4620B912480068006E00281FD0FFF707
:101180002BFB2DB20090C58024B2848003F034F88C
:101190000098406980B1FFF71FFB009A0190B2F9F7
:1011A00008108180B2F90A20C28011B10AB104800E
:1011B000458001A8FFF732FB6846FFF72FFB7CBD97
:1011C0002C00002001490A4600F002B801F0FFFFA0
:1011D0007FB515460C46060028D0FFF7FDFA40F60D
:1011E000FF710190CC4203D1B0F90440B0F9065030
:1011F0000289611E1144ADF80840ADF80C10418918
:10120000681E0844ADF80E00ADF80A5001A8FFF7BB
:1012100005FB02A804F076F806E02A46214630468F
:1012200000F048F904F030F80028F6D17FBD000046
:101230002DE9FF4FDFF8E8B083B01C46DBF8001063
:10124000DDE9106092464FF000084B7C424612994F
:10125000FFF764FB050060D028698068804703F0D1
:1012600091F981460AFB09F1C91DCF08FFF7C2FABF
:10127000F10705D1C11700EB9170801000EB400021
:10128000002C09DC1FB11838B0FBF7F000E000209B
:101290006442A04200DC0446F00707D10090DDE97B
:1012A00003012346524600F05DFB8046002C03DC20
:1012B0002846FFF76FFB30E004FB07F01830F1071A
:1012C00002D0FFF7C9F901E0FFF7CBF906001CD007
:1012D000FFF782FA01900560039981800499C1802B
:1012E000A0F808A04481C0F81480C0E9037901A8DF
:1012F000FFF794FA1298AE602861DBF80000407C9A
:10130000A861304607B0BDE8F08F2846FFF742FBE2
:101310005FEA080001D0FFF7BFF90020F2E7000004
:101320002C0000202DE9F74F8EB0144689460E9808
:10133000FFF752FA0990B0F908B0B0F90A600068F6
:10134000006940680C9009A8FFF768FA564D574F9E
:101350002868407C57F82000C1688A6A08219047B5
:101360000790182801D3202007902868407C57F860
:1013700020000069069003C80B904D48814201D0BF
:10138000012000E000200A90002000F098FB0028D7
:101390007DD1286809EB0B01B0F90C20891A491E90
:1013A000002902DDABEB010500E05D46B0F9081055
:1013B000494505DDA1EB090189446D1A089101E059
:1013C00000210891002D6BDDB0F90E20A119891ABA
:1013D000491E002902DDA6EB010800E0B046B0F985
:1013E0000A00A04204DD061B3444A8EB060800E016
:1013F0000026B8F1000F53DD089801900DA95F4653
:10140000DDF830A00E980091FFF746FE774300EB21
:10141000870101982B4601EB800200994846CDE9EF
:1014200000A1214600F026FD0090002838D00A983F
:10143000E8B1DDE906322946009800F0EFFBB0B9CB
:101440000698009FDA46D0F810C0BCF1000F05D016
:1014500004235A4639463846E04708E00B99386875
:10146000884701C7AAF101005FEA000AF6D1009996
:101470000020079ACDE90301059001200090CDE9F5
:10148000010221460346641C2A46484600E007E064
:1014900002F0C8FAA8F10100761C5FEA0008ABD19F
:1014A00011B0BDE8F08F00002C00002044000020A7
:1014B000EF3E0008F8B515460E460746FFF78CF9D3
:1014C000009000681621C068426A002090470446D8
:1014D0006846FFF7A3F9002C03D02A463146384668
:1014E000A047F8BDF8B515460E460746FFF774F954
:1014F000009044696846FFF791F93846FFF7BAFD56
:101500000346082800DD2CB12A463146384607F04C
:1015100067F9F8BD2A463146384607F001FBF8BDA9
:1015200010B5002821D009B30AB3B1F90040B2F9CF
:1015300000309C4200DA23460380B1F90240B2F940
:1015400002309C4200DA23464380B1F90440B2F9EC
:1015500004309C4200DD23468380B1F90610B2F9C5
:101560000620914200DC1146C18010BD11460A6878
:1015700002604968416010BD00280BD003880B440D
:101580000380838819448180418811444180C18847
:101590001144C1807047000070B5094C0020D4E9A7
:1015A00000218A420AD0D2E90056104606F0FAFB22
:1015B00020603146284603F0C1FC012070BD0000C8
:1015C000340100202DE9FC41154DDDE908742D683A
:1015D000B5F90860864200DD3046B5F90C609642E8
:1015E00000DA3246824219DBB5F90A608E4200DD2C
:1015F0003146B5F90E509D4200DA2B468B420DDB89
:1016000000E02C46E5682D6825B1042D02D0256840
:10161000002DF6D1CDE9007402F0D8FCBDE8FC81C4
:101620002C000020B0F90220B1F906309A4213DCF8
:10163000B1F90220B0F906309A420DDCB0F9002071
:10164000B1F904309A4207DCB1F90010B0F9040096
:10165000814201DC012070470020704701460248AA
:1016600070220068FEF75EBD2C0000200249702247
:101670000968FEF757BD00002C00002010B502F0ED
:1016800071FD02F021FEBDE8104003F077B90000C3
:1016900070B504460548022C0068457C02D24474AB
:1016A000FFF7ECFF02480460284670BD2C000020C4
:1016B000A000002002F076BD02F0ACBD034A6FF03E
:1016C00070411268116302F0ABBD00002C000020D5
:1016D00001498860704700002000002002F0ACBD86
:1016E00003490968CA6900B1C86110467047000023
:1016F0002C000020024909688A7E887610467047CF
:101700002C000020094A30B41080094A1180094A8F
:101710001268537C084A52F82330DA68146A0A4681
:10172000A446014630BC1846604700006C0000200B
:101730006E0000202C0000204400002002490968AF
:101740000A7E0876104670472C000020034909687D
:10175000B1F92C2088851046704700002C0000202D
:1017600003490968B1F92A204885104670470000EE
:101770002C00002002480068002800D00047704775
:101780004401002002498A6802B98860FFF7F2BF6D
:101790003401002010B5040009D006F0DBFD20461E
:1017A00006F0D6FF2046BDE81040FEF775BF10BD1D
:1017B00038B50C4660B1FFF70FF8009080892042E1
:1017C00001D0012400E000246846FFF727F800E07C
:1017D0000124204638BD000038B5054600202860A9
:1017E0000648046844B12046FEF7F6FF0090006901
:1017F00028606846FFF712F8204638BD80010020B7
:1018000038B504004FF000000D46086011D02046A6
:10181000FEF7E2FF0090846844B16846FEF7FEFFE1
:101820002046FEF7D9FF0090006928606846FEF761
:10183000F5FF204638BD00002DE9F041084E044672
:10184000056830680168284688470746306841685F
:1018500028468847284420603846BDE8F0810000CB
:10186000300000202DE9F0410C4606460025064FC9
:1018700005E0386841683046884706440544641EE0
:10188000F7D22846BDE8F081300000202DE9F04174
:101890001E46069C1746884605463A46A8687F1CA1
:1018A0003346D0F804C041462846E047641EF4D1D0
:1018B000BDE8F08170B5B0F90040091BB0F90440F3
:1018C0008C422CDD00F11404B0F902500069521B67
:1018D00002FB0040CA1800EBE104521ED010B0EB2E
:1018E000E10501F007034FF0FF0102F0070221FAC2
:1018F00003F0C2F1070201FA02F1CEB221780FD053
:1019000001436D1E04F8011B002D05DDFF22294651
:101910002046FEF727FC2C4420783043207070BD11
:1019200030400143217070BD10B5B0F90030B0F9FE
:101930000240C91A00F114030069121B02FB0030B7
:1019400000EBE10001F0070302788021D9400A434F
:10195000027010BDB0F90610026951431430FEF751
:1019600008BC00002DE9F843804602F10F00001189
:10197000470003FB07F01C46154689461430FEF766
:1019800070FE060013D0FEF727FF0090A0F800803D
:10199000A0F802908580C480064981600121818180
:1019A00007616846FEF73AFF3046BDE8F88300203D
:1019B000FBE70000D0DD010870B5B0F90660B0F9B2
:1019C00004400B6800F1140596421BDD0069A34238
:1019D00002FB005000EBE30214DA641EE010A0EBFF
:1019E000E30512F8010B03F00704A040C4B206E0BF
:1019F00045B1083312F8014B23F007036D1E002C8C
:101A0000F6D004E0002070BD6006040E5B1C2006CA
:101A1000FAD5FF2C07D0184602E06406240E401CBD
:101A20006606FAD400E0D81DC443640705D006E07A
:101A300012F8014BFF2C09D108306D1EF8D5C01AE1
:101A4000401C0B6070BD6206140E401C2206FAD4C6
:101A5000F5E738B50546FEF7BFFE00908189491EBF
:101A60000CB284816846FEF7D9FE002C02D12846CC
:101A7000FEF712FE38BD000010B54FF44051044887
:101A8000FEF702FEBDE810400248FFF721BE00004D
:101A900068020020B0B5010803490A6810440A68CA
:101AA000821A002AFBDC70471400002070470000F7
:101AB00001480068704700001400002070470EB510
:101AC00008B102AA00E00022002301A9684600F044
:101AD0005BFB0EBD074910B5CC6818B10120C8608A
:101AE000801E03E00020C8606FF07F4001F084FF9B
:101AF000204610BD6001002010B5082A0EDC034608
:101B0000012A18D0022A56D0042A76D010F8042BC5
:101B100003F8012B491EF9D1012010BD102A08DC61
:101B20004FEA000230F8043B22F8023B491EF9D18B
:101B3000F2E7002010BD10F8042BD207120E491E48
:101B400034D010F8044B491E04F0010442EA841218
:101B50002CD010F8044B491E04F0010442EA441250
:101B600024D010F8044B491E04F0010442EA041288
:101B70001CD010F8044B491E04F0010442EAC402D0
:101B800014D010F8044B491E04F0010442EA840208
:101B90000CD010F8044B491E04F0010442EA440240
:101BA00004D010F8044B04F00104224303F8012B85
:101BB0000029C0D1B0E710F8042B9207120E491E7D
:101BC00015D010F8044B491E04F0030442EA041235
:101BD0000DD010F8044B491E04F0030442EA8402BD
:101BE00005D010F8044B04F003042243491E03F807
:101BF000012B0029DFD18FE7FFE710F8042B120734
:101C0000120E491E05D010F8044B04F00F042243B5
:101C1000491E03F8012B0029EFD17DE738B50024D8
:101C2000009400F01BF838BD0A4810B581690029FE
:101C30000ED101218161FFF71FFF02F057FB05491B
:101C400005481C310860BDE81040084600F054BC4F
:101C500010BD000020000020D18000082DE9F041D7
:101C60000D460699044601B901461F68082A09DC99
:101C70000E46012A1AD0022A5BD0042A7DD0082AF7
:101C800013D18DE0102A07DCD3F810C00E46BCF14A
:101C9000000F04D0022389E00020BDE8F08101CCD0
:101CA000B84726F8020B6D1EF9D189E001CCB84780
:101CB000C0074FEA10686D1E36D001CCB84748EA1D
:101CC000801000F0FF086D1E2ED001CCB84748EA06
:101CD000401000F0FF086D1E26D001CCB84748EA3E
:101CE000001000F0FF086D1E1ED001CCB84748EA76
:101CF000C00000F0FF086D1E16D001CCB84748EABE
:101D0000800000F0FF086D1E0ED001CCB84748EAF5
:101D1000400000F0FF086D1E06D001CCB84740EA35
:101D2000080000F0FF086D1E06F8018B002DBDD1E4
:101D300046E001CCB84780074FEA10686D1E16D008
:101D400001CCB84748EA001000F0FF086D1E0ED025
:101D500001CCB84748EA800000F0FF086D1E06D0AD
:101D600001CCB84740EA080000F0FF086D1E06F8F5
:101D7000018B002DDDD123E0FFE701CCB847000740
:101D80004FEA10686D1E06D001CCB84740EA080043
:101D900000F0FF086D1E06F8018B002DEDD10FE05D
:101DA000D3F810C0BCF1000F04D001232A4620460E
:101DB000E04705E001CCB84706F8010B6D1EF9D1EC
:101DC00001206AE77CB5064628480D46006868B1E0
:101DD000002003F097FA06E06A462946304603F0F1
:101DE000FDFF03F051FA0028F6D17CBD1068009089
:101DF0001F4C506801902268BDF8000032F84C1F5B
:101E00000844ADF80000BDF8020091880844ADF820
:101E10000200BDF8040011880844ADF80400BDF8C4
:101E2000060091880844ADF80600684603F06AFA97
:101E30000EE000BF2068BDF800106A464184BDF87E
:101E4000021081842946304603F0C8FF03F01CFAD3
:101E50000028EFD1206830F8221F428D891A0180B6
:101E60004188C28D891A41807CBD00006800002035
:101E70002C0000202DE9FF4F8DB00020DDF86CA074
:101E8000164600901D4604460246CAF8000008ABFC
:101E900003A902A800F078F918B1002011B0BDE83C
:101EA000F08F0898854200DD0546614F0B9561492A
:101EB0003868407C51F82010049109690691FEF7BA
:101EC000C3FE05903868407CFEF72AFF5A498146D8
:101ED000884204D05949894501D0012000E0002002
:101EE0000A9001CE1A9988478346000E079077D052
:101EF000009870BB0D9800EB04084D480068B0F9DD
:101F00000800404503DDA0EB0807804600E00027FD
:101F10000298049900EB840000EB8700CDE90001F2
:101F20000B990D98421809920E9B40461946521E75
:101F3000FFF748FB01200090059818280ADA02985C
:101F4000DDE9052300EB840000EB8700E91B00F0CE
:101F500079F812E00A9880B1029800EB840000EB57
:101F600087070998A0EB080849463868884701C7E1
:101F7000A8F101005FEA0008F6D13148C06980B3DA
:101F8000DDE9020700EB840007EB8402CDE90202E1
:101F90002B4C361F3046E4692B460299A047FF219F
:101FA0003068B1EB106F02D10298006804E0029A29
:101FB0001268B1EB126F01D1039A1060029806F11A
:101FC0000406001D02900398001D03906D1EE7D1CA
:101FD0000397DAF8000040F00101CAF8001020E091
:101FE00021E0FFE70798FF2811D0C0F1FF02029817
:101FF00050F82410584600F027FA039941F82400BD
:10200000DAF8000040F00101CAF8001005E002987B
:10201000039950F8240041F82400641C6D1E7FF4DD
:1020200060AF03983AE7039941F824B0E8E700006D
:102030002C00002044000020EF3E0008ED3E000888
:10204000F80000202DE9F05F0C1E16DD5E680146E9
:1020500000EB8405082A12DC611E012A26D0022A20
:1020600047D0042A6AD0082A07D1071917F8010DAA
:10207000B04745F8040D641EF8D1BDE8F09F102A62
:10208000FBDC5F693FB12246BC46BDE8F04F02234E
:102090005DF804EB604701EB440700BF37F8020D21
:1020A000B04745F8040D641EF8D1E6E700EBE10007
:1020B00001F0070710F801A98146802020FA07F8EF
:1020C000B5F104050AEA0800C7F10701C840B047A6
:1020D00045F804093FB14FEA48604FEA10687F1E97
:1020E000641EEFD1C9E719F801A907274FF00108CD
:1020F000F6E700EBA10001F0030710F801A9814603
:102100007900C02020FA01F84FF0060BB5F1040564
:102110000AEA0800ABEB4701C840B04745F804099C
:102120003FB14FEA88604FEA10687F1E641EEFD10E
:10213000A3E7032719F801A9B846F7E700EB610008
:10214000012710F801A9A7438146B900F02020FA21
:1021500001F84FF0040B2D1F0AEA0800ABEB8701D2
:10216000C840B04745F804093FB14FEA08704FEA4C
:1021700010687F1E641EEFD17FE719F801A90127BF
:102180004FF00F08F6E700002DE9F047224C064615
:102190001F46A06990468946002540B90120A061EC
:1021A00004F120011D480860084600F0A5F96069A7
:1021B00030B91B480068606110B901F044FE6061ED
:1021C00007B138604EB1A06830B960698000FEF791
:1021D0008BFAA06000B901253060B9F1000F0AD078
:1021E000E06830B960698000FEF77EFAE06000B90F
:1021F0000125C9F80000B8F1000F0AD0206930B9F4
:1022000060698000FEF770FA206100B90125C8F806
:1022100000002846BDE8F087F8000020458100084E
:102220005C00002073B5124A01A90098126890471B
:1022300000240090C8B10F4900250968C96949699F
:1022400059B10A684AB1019990477CBD6846FFF7C9
:10225000F3FA0546FEF70AFD04440198401E01907A
:10226000F4D5284600F032F8044420467CBD000036
:102270005C0100202C00002073B50D46009800245E
:1022800090B10A490968C969496959B14A684AB1AE
:10229000294690477CBD6846FFF7CEFA20B10A2850
:1022A00002D0641CAC42F6DB20467CBD2C00002032
:1022B000044AB2F9002002600348B0F90000086047
:1022C000704700006C0000206E00002038B500242C
:1022D00069460094FEF7D2FC0099814200DD0C1A99
:1022E000204638BDB0F90030B1F90020934200DA41
:1022F0000280B0F90230B1F90220934200DA428044
:10230000B0F90430B1F90420934200DD8280B0F9C5
:102310000620B1F906108A4200DDC180704770B511
:10232000B1F90040B2F900309C4200DD2346038041
:10233000B1F90250B2F90240A54200DD2C464480BA
:10234000B1F90460B2F90450AE4200DA3546858036
:10235000B1F90610B2F90620914200DB1146C180A6
:102360009D4201DBA14201DA002070BD012070BD59
:10237000014602480068407C00F002B82C000020B2
:102380002DE9F843012604468946022857DADFF88A
:10239000B480080008F1040530D0012802D00229D9
:1023A0004DD116E055F8240088B92046FEF73AFBD7
:1023B000009010B3C0680D21426A68469047020041
:1023C0003DD049460098904755F824000026401C0F
:1023D00033E02046FEF726FB009070B1C0680D2167
:1023E000426A68469047040029D0D8F8000000B13E
:1023F000804749460098A047002620E055F8240071
:10240000012813D12046FEF70DFB009070B1C06883
:102410000D21426A68469047070007D0D8F80000AF
:1024200000B1804749460098B847002655F8240077
:1024300008B1012100E00021401A45F8240030468F
:10244000BDE8F8832001002070B5FF23B3EB116FC6
:1024500029D0C3B200F47F4500F47F04060E534335
:10246000554354435643C2F1FF00CAB202FB003247
:1024700001F47F4303FB005301F47F0505FB004497
:10248000090E01FB0065C2F307204FF47F4101EA0A
:102490001322090201EA14214FF07F43104303EA9B
:1024A00005430843184370BD2DE9F04F0646DDE9AA
:1024B0000CB915460C4600208046584519D20B9F92
:1024C0004FF0FF0A01CE08CCAAEB106202FB09F222
:1024D000B2FBFAF1CAB21946FFF7B6FF20F07F400F
:1024E00001C57F1EEED1099804EB800408F10100BC
:1024F000E2E7BDE8F08F000002494A6942604861A6
:1025000070470000200000202DE9F041184C0646DD
:102510000D46206898461746B0F90A10A94224DCF7
:10252000B0F90E10A94220DBB0F90810B1421CDC52
:10253000B0F90C00B04218DB2946304601F040FCEF
:1025400001463A464046FFF77FFF01F05DFA034639
:1025500020682A46417C074850F82100C1688C69F0
:102560003146A446BDE8F0416047BDE8F081000077
:102570002C0000204400002010B502E000F8011BF0
:10258000521E0AB18307F9D1930818D001EB014418
:1025900002F0030204EB042406E010C01B1F10C06D
:1025A00040F8084B40F8044C042BF6DA01E010C068
:1025B0005B1E002BFBD102E000F8011B521E002A1B
:1025C000FAD110BD10B5830702D520F8021B521EA8
:1025D000530811D001EB0144042B09DB10C01B1F71
:1025E00010C0042B40F8084B40F8044CF6DA01E028
:1025F00010C05B1E002BFBD1D20700D0018010BDA4
:10260000F8B50025009590F82420AE46012A1ED08A
:10261000012280F824204A681F244FF47873072A87
:1026200017D20668776B93FAA3FC521EBCFA8CFC97
:1026300002FB0CFC04FA0CF4A74393FAA3F3B3FADD
:1026400083F30C685A439440274377632DE00220BC
:10265000F8BD06680D2A14D2376B93FAA3FCD21F7B
:10266000BCFA8CFC02FB0CFC04FA0CF4A74393FAB2
:10267000A3F3B3FA83F30C685A43944027433763B8
:1026800013E0F76A93FAA3FC0D3ABCFA8CFC02FB48
:102690000CFC04FA0CF4A74393FAA3F3B3FA83F304
:1026A0000C685A4394402743F7620A68382307248A
:1026B00006680A2A14D3F76893FAA3FC0A3ABCFA0C
:1026C0008CFC02FB0CFC04FA0CF4A74393FAA3F372
:1026D000B3FA83F38C685A4394402743F76012E0BF
:1026E000376993FAA3FCBCFA8CFC02FB0CFC04FADD
:1026F0000CF4A74393FAA3F3B3FA83F38C685A4319
:102700009440274337610A68102A01D0112A20D14A
:10271000124B02689A4217D193681B0219D493682E
:1027200043F4000393600968102912D10C490D4A43
:102730000968B1FBF2F101EB8101490000E0491E9B
:1027400000910029FBD104E0816A41F020018162FF
:10275000012580F824E02846F8BD0000002401404F
:102760001000002040420F002DE9F04104004FF01E
:10277000000514D0A06A002628B9E66284F8246017
:10278000204600F08BF82046FDF73EFDA16A01F0DF
:102790001001014304D0A06A40F01000A06277E06D
:1027A000A16A21F4885141F00201A1626268E169E5
:1027B00002270A43E16897FAA7F70B46B7FA87F7AB
:1027C000B9400A43A1684FF48077B94208D0012983
:1027D00006D00021D4F814C0BCF1010F02D00AE0E9
:1027E0003946F7E7F3B1A36A43F02003A362E36A33
:1027F00043F00103E3622368D3F804C02CF4694C6E
:102800004CEA010CC3F804C021688B68DFF884C06F
:1028100003EA0C0313438B60A168B94210D001296D
:102820000ED016E0A3694FF4604C9CFAACFC5B1E22
:10283000BCFA8CFC03FA0CF30B4343F40061DAE7B7
:1028400025694FF4700191FAA1F16D1EB1FA81F181
:102850008D402168CB6A23F470032B43CB6221683F
:1028600089680D4B1940914208D1E662A16A21F0B6
:10287000020141F00101A162BDE8F081A06A20F0EF
:10288000020040F01000A062E06A40F00100E06247
:102890000120F1E7FDF7E1FFFE0E1FFF30B5054611
:1028A00000681B4985B088422FD11A48816941F4DC
:1028B000007181618069032400F4007004900F208E
:1028C000CDE900046946144800F0BEF91F20CDE9A7
:1028D00000046946114800F0B7F9124C1048206016
:1028E00000206060A0608020E060400020618000E7
:1028F00060612020A0610002E061204600F070F9D4
:1029000008B1FDF7D9FC2C62656205B030BD00004E
:102910000024014000100240001001400008014066
:10292000080002403002002010B5040002D0607997
:1029300010B106E0012010BD00202071204600F0FB
:1029400005F801206071002010BD000008B5006886
:102950000649884208D10648416941F04001416179
:10296000406900F04000009008BD000000300240C7
:10297000001002402DE9F05FDFF860820446D8F8CD
:102980000020DFF858B2954D944E944F0068DFF860
:102990004C92DFF848A20BF1080B1C353036443757
:1029A0004FF400614FF4004C4FF4002E09F1580928
:1029B0000AF16C0A584501D1082316E0A84201D15A
:1029C000802312E0B04201D10B460EE0B84201D1A3
:1029D00063460AE0484501D1734606E0504502D1FE
:1029E0004FF4000301E04FF000631A4231D0026857
:1029F000D24312072DD4026822F008020260206838
:102A0000584501D1082114E0A84201D1802110E0ED
:102A1000B0420ED0B84201D161460AE0484501D12A
:102A2000714606E0504502D14FF4000101E04FF03D
:102A30000061C8F80410606B40F00100606304207E
:102A400084F82100002084F82000216B09B1204681
:102A500088476248D0F800C04FF4806120680A01BE
:102A60000B044FF4802E584502D14FF0040816E0B5
:102A7000A84202D14FF0400811E0B04201D188468F
:102A80000DE0B84201D1904609E0484501D1F04639
:102A900005E0504502D14FF4800800E098461CEA5A
:102AA000080F33D0D0F800C06FEA0C0C5FEA4C7C02
:102AB0002CD4D0F800C05FEA8C6C05D4D0F800C0EC
:102AC0002CF0040CC0F800C02068584501D1042146
:102AD00013E0A84201D140210FE0B0420DD0B8422E
:102AE00001D1114609E0484501D1714605E0504544
:102AF00002D14FF4800100E01946384841601120AE
:102B000084F82100E16A09B120468847334AD2F8A7
:102B100000C05B46206851154FF4005B4FF4003E47
:102B2000984202D14FF0020817E0A84202D14FF0BC
:102B3000200812E0B04201D188460EE0B84201D12F
:102B4000D8460AE0484501D1F04606E0504502D19A
:102B50004FF4001801E04FF000781CEA080F3BD05A
:102B6000D0F800C06FEA0C0C5FEA8C7C34D4D0F84B
:102B700000C05FEA8C6C05D4D0F800C02CF0020CC9
:102B8000C0F800C02068984201D1022114E0A84298
:102B900001D1202110E0B0420ED0B84201D15946F7
:102BA0000AE0484501D1714606E0504502D14FF494
:102BB000001101E04FF000715160606B6063012013
:102BC00084F82100002084F82000A16A002903D0A5
:102BD0002046BDE8F05F0847BDE8F09F00000240D6
:102BE00070B520B190F82110002411B103E001204C
:102BF00070BD80F82040022180F8211003681A6817
:102C000043F6F0718A43D0E901152943D0E9035610
:102C1000354329434569294385692943C5692943C2
:102C2000114319604463012180F82110002070BD18
:102C300031B500F0FBF8044600F0F8F80099001BED
:102C40008842F9D338BD00002DE9F84FDFF8ACA178
:102C500000220AF1040B144601274FF00F090BF173
:102C6000040E00BF0B6807FA04F52B40AB4276D187
:102C7000DFF88CC14E68A6EB0C0866452BD00DDC46
:102C8000032E34D005DC36B3012E19D0022E2FD1FD
:102C90001BE0112E16D0122E2AD119E0B8F5881F8C
:102CA00019D006DCB8F5803F15D0B8F5801F1FD1CC
:102CB00011E0B8F5001F0ED0B8F5041F18D10AE0D6
:102CC000CA6815E0CA68121D12E0CA6808320FE02F
:102CD000CA680C320CE08A682AB1012A4FF0080257
:102CE00003D0456104E0042202E0056100E0002217
:102CF000FF2B01D8054601E000F104054FEA8406E8
:102D000001D9A6F12006D5F800C009FA06F82CEA88
:102D1000080C02FA06F64CEA060CC5F800C04D682D
:102D2000ED0065D5374DAE6946F00106AE61AD697F
:102D300024F0030605F001050095334D06EB050C64
:102D4000DCF80850A607360F09FA06F825EA080548
:102D5000DFF8B880404503D14FF0000817E047E0A6
:102D6000DFF8AC80404502D14FF001080FE0DFF8FA
:102D7000A480404502D14FF0020808E0DFF89880B7
:102D8000404502D14FF0030801E04FF0040808FA73
:102D900006F848EA0508CCF808804D68DAF80060C3
:102DA000ED03002D554601DA1E4300E09E432E60E0
:102DB0004D68DBF80060AD03002D5D4601DA1E436F
:102DC00000E09E432E604D68DEF80060ED02002DAD
:102DD000754601DA1E4300E09E432E604D68AD0249
:102DE000002D0E4D2E6801DA1E4300E09E432E603A
:102DF000641C102CFFF436AFBDE8F88F00040140CE
:102E000000001110001002400000014000080140C5
:102E1000000C014000100140001401400C0401406E
:102E20000AB1016170470904FBE70000014800682E
:102E3000704700000800002010B5040008D020688A
:102E4000C168C943C90705D1C068C043800701D420
:102E5000012010BD607B20B900202073204600F0C7
:102E600018F802206073216845F255500860206808
:102E70004168626821F00701114341602068816860
:102E8000A2686FF30B011143816001206073002081
:102E900010BD704704480168491C0160034801687F
:102EA000491C016070470000080000201400002049
:102EB000074810B5016841F010010160032000F0DF
:102EC00087F8002000F006F800F016F8002010BD8A
:102ED0000020024010B5044600F0E2F94FF47A7188
:102EE000B0FBF1F000F06FFD00222146501E00F013
:102EF0004FF8002010BD00001D4808B5816941F061
:102F000001018161806900F001000090052000F05E
:102F10005FF8002211466FF00B0000F039F8002234
:102F200011466FF00A0000F033F8002211466FF0EE
:102F3000090000F02DF800221146501F00F028F87B
:102F400000221146101F00F023F800221146901EA7
:102F500000F01EF800221146501E00F019F8054836
:102F6000416821F0E06141F00071416008BD00005E
:102F7000001002400000014000F01F0201219140BA
:102F800040094FF0E02202EB8000C0F800117047CA
:102F9000F0B40E4B1B680C46C3F30223C3F10705C4
:102FA000042D00D90425191D072901D2002300E0B2
:102FB000DB1E012606FA05F1491E214099409E407C
:102FC000761E16403143F0BC01F05ABC0CED00E017
:102FD000064900F0070208684FF6FF03184040EA70
:102FE0000220034A10430860704700000CED00E027
:102FF0000000FA052DE9F84305460078434CC00768
:1030000070D0E06940F08050E061E069404E00F02F
:1030100080500090306840F480703060FFF706FF09
:10302000074604E0FFF702FFC01B64282FD8306872
:10303000C005F7D5206A10F440704DD0A98801F47E
:103040004071814248D0206A01263204314992FA07
:10305000A2F3B3FA83F320F4407041F8236092FAAC
:10306000A2F2B2FA82F2002341F822302062C007B5
:1030700032D0FFF7DBFE074641F288394FF00208F5
:1030800008E000BFFFF7D2FEC11B494502D903206B
:10309000BDE8F88398FAA8F1B1FA81F141F0400156
:1030A0004046B6EB511F01D121680BE090FAA0F128
:1030B000B1FA81F141F04001B0EB511F01D1216A19
:1030C00000E0616A98FAA8F0B0FA80F000F01F0200
:1030D00006FA02F00142D5D0206A696820F44070F7
:1030E000084320622878800705D56068A96820F425
:1030F0004040084360602878C00605D56068E968EC
:1031000020F48000084360600020C1E70010024006
:1031100000700040000442422DE9F047DFF8708162
:1031200005460E46D8F8000000F00700B0420CD269
:10313000D8F8001021F007013143C8F80010D8F882
:10314000000000F00700B04277D12878514C80078A
:1031500005D56068A96820F0F00008436060287811
:10316000C00759D06968012001290DD0022929D052
:103170005FF0020393FAA3F2B2FA82F242F0200265
:10318000520904D0226803E04FF40033F2E7626A88
:1031900093FAA3F3B3FA83F303F01F0398400242B8
:1031A0004BD0606820F0030008436060FFF73EFEEC
:1031B0006968074641F2883001290DD0022981460D
:1031C00017D025E04FF00073D4E700BFFFF72EFEC5
:1031D000C11B494501D918E081466068C0F38100F0
:1031E0000128F3D118E000BFFFF720FEC11B4945BD
:1031F0000BD86068C0F381000228F5D10CE000BF55
:10320000FFF714FEC11B494502D90320BDE8F08732
:10321000606810F00C0FF3D1D8F80010404601F0B0
:103220000701B1420BD9016821F007013143016068
:10323000006800F00700B04201D00120E6E72878DE
:10324000400705D56068E96820F4E06008436060E5
:103250002878000706D56068296920F4605040EAA4
:10326000C100606000F022F86168F02292FAA2F2D8
:1032700001F0F001B2FA82F2D140074A515CC84035
:10328000064908600020FFF725FE0020BEE7000089
:10329000002002400010024048AC0108100000204D
:1032A00001480068704700001000002010B585B08C
:1032B0001AA301ACD3E901011A68DB6800920BC4C0
:1032C0001AA01B4B006804905A681A4802F00C01BF
:1032D00004291ED008291CD14FF4701494FAA4F4C8
:1032E00002F47011B4FA84F421FA04F1D2031DF847
:1032F000011010D55A684FF4003393FAA3F302F487
:103300000032B3FA83F3DA4004AB9A5CB0FBF2F01C
:10331000484305B010BD08484843FAE702030405D6
:10332000060708090A0B0C0D0E0F10100102000011
:103330000010024000127A0000093D002DE9F84F0C
:1033400004460078F94DC0074FF0010625D06868A3
:103350007704C0F38100012807D06868C0F38100BA
:1033600002281BD16868C00318D597FAA7F0B0FAF5
:1033700080F040F02000400901D0286800E0686A31
:1033800097FAA7F1B1FA81F101F01F0106FA01F1F4
:1033900008425ED0606800287CD05AE06068B0F5D2
:1033A000803F0BD010B1B0F5A02F11D0286820F4C9
:1033B00080302860286820F4802002E0286840F4EB
:1033C00080302860606828B3FFF730FD80460BE04E
:1033D000286840F480202860F0E700BFFFF726FD52
:1033E000A0EB0800642870D897FAA7F0B0FA80F034
:1033F00040F02000400901D0286800E0686A97FA90
:10340000A7F1B1FA81F101F01F0106FA01F10842BA
:10341000E4D01EE0FFF70AFD804605E0FFF706FD59
:10342000A0EB08006428DED897FAA7F0B0FA80F085
:1034300040F02000400901D0286800E0686A97FA4F
:10344000A7F1B1FA81F101F01F0106FA01F108427A
:10345000E4D12078DFF8D88280074FF000094FF0E0
:10346000020731D568684FF0F80B10F00C0F07D049
:103470006868C0F38100022828D16868C00325D499
:1034800097FAA7F0B0FA80F040F02000400902D08F
:10349000286801E083E0686A97FAA7F1B1FA81F140
:1034A00001F01F0106FA01F1084202D0206901284B
:1034B00075D128689BFAABF220F0F8016069B2FA86
:1034C00082F290400143296059E059E1206980B3BC
:1034D00096FAA6F1B1FA81F148F82160FFF7A6FC4F
:1034E000824605E0FFF7A2FCA0EB0A0002289AD86A
:1034F00097FAA7F0B0FA80F040F02000400901D020
:10350000286800E0686A97FAA7F1B1FA81F101F042
:103510001F0106FA01F10842E4D028689BFAABF2D9
:103520006169B2FA82F220F0F80091400843286005
:1035300025E0FFE796FAA6F2B2FA82F248F8229066
:10354000FFF774FC824605E0FFF770FCA0EB0A0071
:103550000228CCD897FAA7F0B0FA80F040F020000B
:10356000400901D0286800E0686A97FAA7F1B1FA2B
:1035700081F101F01F0106FA01F10842E4D120783F
:1035800000076AD56B48A169A9B396FAA6F1B1FA0A
:1035900081F140F82160FFF749FC824606E072E1C4
:1035A000FFF744FCA0EB0A000228A0D897FAA7F086
:1035B000B0FA80F040F06000B6EB501F01D12868EF
:1035C0000BE097FAA7F0B0FA80F040F06000B7EB9C
:1035D000501F01D1286A00E0686A97FAA7F1B1FA92
:1035E00081F101F01F0106FA01F21042D8D001204A
:1035F000FFF71EFB31E0FFE796FAA6F2B2FA82F27D
:1036000040F82290FFF712FC824605E0FFF70EFC1F
:10361000A0EB0A0002289CD897FAA7F0B0FA80F035
:1036200040F06000B6EB501F01D128680BE097FA1C
:10363000A7F0B0FA80F040F06000B7EB501F01D166
:10364000286A00E0686A97FAA7F1B1FA81F101F0FF
:103650001F0106FA01F21042D8D12078400764D544
:10366000E86940F08050E861E869DFF8CCB000F02C
:1036700080500090DBF8001041F48071CBF800100E
:10368000FFF7D4FB824605E0FFF7D0FBA0EB0A0072
:10369000642875D8DBF80000C005F5D5E06801287E
:1036A0000AD008B1052813D0286A20F0010028624A
:1036B000286A20F0040002E0286A40F00100286235
:1036C000E06841F2883BC8B3FFF7B0FB82460BE0ED
:1036D000286A40F004002862EEE700BFFFF7A6FB6F
:1036E000A0EB0A0159454BD897FAA7F0B0FA80F041
:1036F00040F04000B6EB501F01D128680BE097FA6C
:10370000A7F0B0FA80F040F04000B7EB501F01D1B5
:10371000286A00E0686A97FAA7F1B1FA81F101F02E
:103720001F0206FA02F10842D8D035E0001002402C
:10373000000042428004424200700040FFE7FFF771
:1037400075FB824606E000BFFFF770FBA0EB0A00A6
:10375000584515D897FAA7F0B0FA80F040F040002D
:10376000B6EB501F01D128680CE097FAA7F0B0FA29
:1037700080F040F04000B7EB501F02D1286A01E012
:1037800087E0686A97FAA7F1B1FA81F101F01F02A8
:1037900006FA02F10842D7D1E06988B36968C1F33B
:1037A000810102296FD04FF080714F0002284A46F4
:1037B00009D091FAA1F1B1FA81F148F82120FFF77F
:1037C00035FB044668E091FAA1F0B0FA80F0C146FA
:1037D0008A4648F82020FFF729FB804606E000BF14
:1037E000FFF724FBA0EB0800022852D897FAA7F0B5
:1037F000B0FA80F040F02000400902D0286801E0D3
:103800005FE0686A97FAA7F1B1FA81F101F01F0150
:1038100006FA01F10842E3D1206AB0F5803F05D1F4
:103820006868A16820F4003008436860D4E90801A2
:103830000843696821F47411084368609AFAAAF190
:10384000B1FA81F149F82160FFF7F0FA044604E08B
:10385000FFF7ECFA001B02281BD897FAA7F0B0FA82
:1038600080F040F02000400901D0286800E0686A3C
:1038700097FAA7F1B1FA81F101F01F0106FA01F1FF
:103880000842E5D01DE01EE0FFF7D0FA001B022839
:1038900002D90320BDE8F88F97FAA7F0B0FA80F0BC
:1038A00040F02000400901D0286800E0686A97FADB
:1038B000A7F1B1FA81F101F01F0106FA01F1084206
:1038C000E2D10020E6E70120E4E7000010B50400A3
:1038D00003D094F8510010B104E0012010BD20463F
:1038E00000F038F8022084F851002068016821F0C7
:1038F00040010160D4E901010843D4E903121143F6
:10390000084361690843218B01F400710843E169B0
:103910000843216A0843A16A084321680860A06936
:10392000042101EA1040616A084321684860216867
:10393000E06A08612068C16921F40061C16104493D
:10394000002008706065012084F85100002010BD3F
:103950000C00002010B50068114986B088421CD1C7
:103960001048816941F48051816180690E4C00F4F6
:1039700080500490A020009002200190032003902A
:1039800069462046FFF760F900214020CDE900019B
:10399000029169462046FFF757F906B010BD0000B6
:1039A0000030014000100240000801404FF0E021CB
:1039B0000428086903D020F004000861704740F033
:1039C0000400FAE7704710B5401EB0F1807F01D3C4
:1039D000012010BD4FF0E02460610F21601700F05E
:1039E0004FFF0020A06107202061002010BD10B50E
:1039F000FFF7E8FF10BDFEE702490A6808601046BD
:103A000070470000940100200449054A0968497C78
:103A100052F8211009690968084700002C000020AD
:103A2000440000202DE9F04F05468DB07B48DDF8BD
:103A300060901A9C00681E4617464FF0000A78B145
:103A40001B9B199ACDF808900593CDE90324DDE975
:103A50001623CDE90023046833463A46284680E021
:103A6000DDE9160201EB060805EB070C1043A8F18F
:103A70000108ACF1010C012806D0C9F1080005903D
:103A8000002002910990C6E065480268B2F90A3048
:103A9000581A002806DD361A002E63DD1946199BD8
:103AA00000FB0344B2F90E00A8EB0000002802DD81
:103AB000361A002E56DDB2F90C00ACEB00000028DF
:103AC00000DD3F1AB2F908300020AB4235DD581B4B
:103AD0003F1A4B46B9F1080F26D006DC012B0BD05C
:103AE000022B11D0042B28D116E0102B1ED0182B3E
:103AF0001FD0202B21D11CE020F0070304EBE004B1
:103B00001D4400F0070018E020F0030304EBA004BC
:103B10001D4400F0030010E020F0010304EB6004FA
:103B20001D4400F0010008E0044404E004EB4004FC
:103B300001E004EB800405440020002F12DD1B9BF4
:103B4000DDF864C0CDE90403CDE90069CDE902C424
:103B5000527C34483B4650F82200C26854680A46FA
:103B60002946A0470DB0BDE8F08F17990298084488
:103B70000C902B49401E00900A68B2F90A3083422B
:103B800041DCB2F90E10029881423CDB4FF0000B91
:103B9000D84603950A9434E0BBF1000F05D10A988A
:103BA0004FF0080B10F801AB0A900599ABEB090B2D
:103BB0003AFA01F00AFA09F101F0FF0A04D11849B2
:103BC0000968097C890716D415490968C96B0A6810
:103BD0000B921B9A0AB152F82000086016990398BC
:103BE000009B4218521E029900F07EF80C490B9877
:103BF0000968C96B08600399169808F10108084420
:103C00000390B845C8DB0998401C09900C980290B5
:103C1000199804440998B042A7DBA3E76800002084
:103C20002C00002044000020F0B40C461249096822
:103C3000B1F90A30A3421CDCB1F90E30A34218DB03
:103C4000B1F90830834200DD1846B1F90C309342D7
:103C500000DA1A4682420CDB4B7C084951F82350AB
:103C600013462246E9688E6801462846B446F0BCF1
:103C70006047F0BC704700002C000020440000208A
:103C80000A46174930B40968B1F90A30934225DC75
:103C9000B1F90E30934221DBB1F9083083421DDCCB
:103CA000B1F90C30834219DB0B7C0E4CDB0709D0D9
:103CB000497C54F82130D968CC690146A44630BC0F
:103CC00018466047CB6B497C1B6854F82140E1687B
:103CD0008D6901462046AC4630BC604730BC704719
:103CE0002C0000204400002038B5134C2468B4F99F
:103CF0000850854200DD2846B4F90C50954200DAA0
:103D00002A46824217DBB4F90A508D4200DD29466B
:103D1000B4F90E509D4200DA2B468B420BDB009328
:103D2000647C064B53F82440E3681D6913460A4639
:103D300001462046A84738BD2C0000204400002042
:103D4000082103F059BF000002480068806B00683A
:103D5000704700002C00002002480068C06B00681B
:103D6000704700002C000020024809210068407CB8
:103D700003F042BF2C000020092103F03DBF70B5C5
:103D800000252C462046FCF74DFE00B16D1C641C3E
:103D9000022CF7DB284670BD02480068407C00F02A
:103DA00003B800002C00002010B5FCF73BFE0028F3
:103DB00005D0C168CA6ABDE810400221104710BD95
:103DC00010B500F005F8BDE8104000F081B8000023
:103DD0002DE9FC41144E0546144F30680C46407CDA
:103DE00057F82000C1680A6B69469047BDF900008A
:103DF000A8420BDCBDF90400A84207DBBDF90200B4
:103E0000A04203DCBDF90600A04202DA0020BDE8B2
:103E1000FC8130682246407C57F82000C1684B691D
:103E200029469847F3E700002C00002044000020BA
:103E300002480E210068407C03F0DEBE2C0000200A
:103E4000032103F0D9BE032003F022BF042103F0B5
:103E5000D3BE0000024801210068407C03F0CCBEC4
:103E60002C000020012103F0C7BE000002480221FF
:103E70000068407C03F0C0BE2C000020022103F04B
:103E8000BBBE00F001B800002DE9F041002809D0C8
:103E9000876837B10D4E716819B10468B4F5807F39
:103EA00002DD0020BDE8F0813068844200DD044678
:103EB000002507E057F82500FFF7A6FD716841F8D7
:103EC00025006D1CA542F5DB7068EBE7840000203F
:103ED0000449054A0968497C52F821100969496872
:103EE000084700002C000020440000207047704765
:103EF00010B500F01F01074A074BC0F34514C0F38B
:103F0000C4201B5D105C515C00EB032000EB014002
:103F100010BD000090D20108B0D2010810B50A4CC3
:103F2000606860B920688000FCF7DEFB606040B12B
:103F300004F10801054808600846FEF7DDFA002094
:103F400010BD012010BD000084000020FD8000088D
:103F50002DE9F047FFF713FF07460024DFF86080E4
:103F60002AE02046FCF75EFD28B3D8F8000090F860
:103F7000119044742046FFF7E3FE082817DC11482F
:103F8000114950F824000069884210D02046FFF7FC
:103F9000F3FE0646002508E0E8B2FFF799FF024667
:103FA000E9B2204600F04EF96D1CB542F4DBD8F8BA
:103FB000001081F81190641CBC42D2DBBDE8F08790
:103FC0002C000020440000202CDD01082DE9FF4FCB
:103FD00083B01646DDE910408B46C0684769426AE7
:103FE0007AB1012111A8904705000AD00698CDE9C1
:103FF000000433465A4603991198A84707B0BDE814
:10400000F08F57480068407CFCF71EFE8246082867
:1040100001DC012005E0BAF1100F01DC022000E014
:1040200004208046002596E04046B8F1010F05D0F7
:10403000022871D0B8F1040F25D17CE0BAF1090F44
:1040400021D2DFE80AF08605213F3F59595959002E
:10405000039815E001465A461198B847C5F1070183
:1040600088404FF67F722178EA40114001436D1C71
:10407000217004EBE50425F00700054109F101007A
:104080008146B042E6DD64E0039817E001465A46F7
:104090001198B8470621A1EB450188406B004FF607
:1040A0003F722178DA40114001436D1C217004EB0E
:1040B000A50425F00300054109F101008146B04245
:1040C000E4DD46E0039813E001465A461198B847EC
:1040D0000421A1EB850188402178AB000F229A4092
:1040E0001140014321702C4485F0010509F10100C4
:1040F0008146B042E8DD2CE0DDF80C9007E0014697
:104100005A461198B847207009F1010944444846BD
:10411000B145F4DD1DE0FFE7DDF80C9007E0014656
:104120005A461198B847208009F10109444448468D
:10413000B145F4DD0DE0DDF80C9007E001465A468C
:104140001198B847206009F1010944444846B14537
:10415000F4DD0BF1010B06998B457FF765AF4DE759
:104160002C00002010B50D4C0D492068407C51F802
:10417000200040B1C1680968042901D00068F8E74F
:1041800008B1FCF74DFC20680021016600F1080130
:104190004161BDE8104000F02FB800002C00002065
:1041A0004400002001490968496808478000002050
:1041B000044909680A7C520701D5C96B00E0896B84
:1041C000086070472C0000207CB5094C054620682B
:1041D000417C084850F82100C1680A6B6946904745
:1041E00020686A4629460830FEF799F87CBD000031
:1041F0002C000020440000200448016804484A7C48
:10420000083150F82200C268126B10472C000020C1
:10421000440000200149096809680847800000201F
:10422000044909680A7C520701D5896B00E0C96B13
:10423000086070472C000020014909688968084718
:1042400080000020F8B515460E460124FCF7EAFB75
:10425000009058B1C0681021426A68469047030038
:1042600004D02A4631460098984700242046F8BDDD
:10427000F8B515460E460124FCF7D4FB009058B162
:10428000C0680B21426A68469047030004D02A4662
:1042900031460098984700242046F8BDF8B51546E9
:1042A0000E460124FCF7BEFB009058B1C0680A21FD
:1042B000426A68469047030004D02A463146009877
:1042C000984700242046F8BD10B5074C2068006BC5
:1042D000FFF79AFBFFF7A4FF2068406BFFF794FB02
:1042E000BDE81040FFF764BF2C00002070B500232C
:1042F0001A460F490F48FCF739FBFFF799FD4FF4B9
:1043000048744FF4F07538B1224629460020FFF773
:10431000AFFF2246294606E02A4621460020FFF745
:10432000A7FF2A462146BDE870400020FFF7B6BF30
:10433000A4AC010858AC010810B5042912D006DC61
:1043400001290DD002290DD0032906D10AE0052943
:104350000AD006290AD00E2904D04FF0FF3010BD34
:1043600004F016FF002010BD102000E0002004F033
:104370002DFFF7E72DE9FF4F8DB01746674ADDF8AF
:1043800070901E9E209812681D4600248AB11D9BC5
:104390001F98CDE90293CDE90460DDE91A03CDE968
:1043A000000314682B463A460D98A04711B0BDE8AB
:1043B000F08F0D9A01EB050802EB070CDDE91A23DB
:1043C0001A43A8F10108ACF1010C012A06D0C9F189
:1043D00008004FF0000B029105909CE0504A1268D3
:1043E000B2F90A40631A002B06DDED1A002DDDDD5F
:1043F00021461D9C03FB0466B2F90E30A8EB0303B3
:10440000002B02DDED1A002DD0DDB2F90C30ACEB43
:104410000303002B00DDFF1A0D9B1C1AB2F90830B4
:10442000A3420DDDA3EB040C0CEB0003181A20F0E3
:1044300007000444A7EB0C0706EBE30603F00700B4
:10444000002FB3DDDDF874C01F9BCDE902C6CDE9B6
:104450000403CDE90059527C32483B4650F8220013
:10446000C26855680A462146A8479FE71B990298EB
:1044700008440C902A49401E00900A68B2F90A309C
:10448000834242DCB2F90E10029881423DDB4FF0CC
:10449000000A0D980A96D046039034E0BAF1000F56
:1044A00005D10A984FF0080A10F8014B0A900599B7
:1044B000AAEB090A34FA01F004FA09F4E4B204D1CF
:1044C00017490968097C890717D415490968C96B18
:1044D0000A680B921F9A0AB152F8200008600399EB
:1044E0001A98009B0A18DDE90210521EFFF7FCFB28
:1044F0000B490B980968C96B086003991A9808F171
:10450000010808440390B845C8DB0C9802901D9838
:104510000BF1010B0644AB45A8DB47E76800002020
:104520002C00002044000020002818D0410817D09B
:10453000810817D0C10817D0010917D0410917D039
:10454000010A17D0410A17D0010B15D0C10B13D0A7
:10455000010C11D0810C11D0000E11D02020704719
:1045600001207047022070470320704704207047E5
:1045700005207047082070471020704712207047B0
:104580001820704700B50022FFF7CEFF012804D0A5
:10459000811E062903D808220BE0012209E0A0F1C0
:1045A0000901072901D8102203E011380F2800D88B
:1045B0002022104600BD70B5044615460E46022066
:1045C00000F028F8304600F017F8032000F022F839
:1045D000204600F011F8062000F01CF8184600F004
:1045E0000BF8072000F016F8284600F005F8BDE8A3
:1045F00070400F2000F00EB8044940220A61044ABE
:104600001060802048610861704700000010014080
:104610000C0C0140044940224A61044A1060802089
:104620004861086170470000001001400C0C014017
:104630002DE9FE4F374836490024016089150125D0
:104640004461C0E902154FF0090AC0F810A04FF408
:1046500060214460C161FEF787F800B1FEE70A20DF
:1046600006268DE8610069462A48FDF7C9FF00B1BA
:10467000FEE70B204FF00208CDE900086946254807
:10468000FDF7BEFF00B1FEE70C200327CDE90007D0
:1046900069462048FDF7B4FF00B1FEE70D204FF05A
:1046A0000409CDE9000969461A48FDF7A9FF00B1E0
:1046B000FEE70520CDE9004069461648FDF7A0FF5A
:1046C00000B1FEE7CDE9005669461248FDF798FFB4
:1046D00000B1FEE70720CDE9008069460D48FDF7EF
:1046E0008FFF00B1FEE70820CDE900706946094858
:1046F000FDF786FF00B1FEE7CDE9009A694605485F
:10470000FDF77EFF002800D0FEE7BDE8FE8F000029
:1047100000240140980100202DE9F041434886B073
:10472000816941F010018161816901F010010491FA
:10473000816941F020018161816901F020010491CA
:10474000816941F004018161816901F004010491F2
:10475000816941F0080181618069DFF8D48000F04F
:1047600008004FF4C0440490002221464046FEF762
:1047700057FB304F4FF6FF75002229463846FEF7AB
:104780004FFB01224FF47C614046FEF749FB2A4E65
:1047900001224FF410613046FEF742FB00940220E4
:1047A00001240390694601944046FEF74DFACDE995
:1047B00000540325694638460395FEF745FA4FF441
:1047C0007070CDE90004694603954046FEF73CFA57
:1047D0002002CDE90004694630460394FEF734FA1E
:1047E000E002009011200190694603953046FEF7E3
:1047F0002BFA250300270095CDE901746946304660
:10480000FEF722FA4FF44060CDE9000469464046C5
:104810000394FEF719FA0095CDE901746946404604
:10482000FEF712FA06B0BDE8F08100000010024069
:1048300000100140000C0140000801400E4810B576
:104840000C4901604FF48271416000218160C160B8
:104850004FF400720161C0E905123022C0E907215E
:10486000416281620A21C162FFF730F8002800D05E
:10487000FEE710BD00300140D8010020FEE7704780
:104880000907090E002803DA00F00F00024A00E0D1
:10489000024A81547047000014ED00E000E400E09B
:1048A0007047704710B5FEF7F5FABDE81040FFF706
:1048B0009EB830B593B00920012100904FF48030AC
:1048C000002504910691CDE901050224CDE90740B8
:1048D0004FF4E01009906846FEF730FD00B1FEE7A6
:1048E0000AA90F2031C14FF48060CDE90D050221E6
:1048F0000AA8FEF711FC00B1FEE74FF4404011900A
:104900000F940FA8FEF776FB00B1FEE7FEF7C8FC98
:104910004FF4FA51B0FBF1F0FFF755F80020FFF724
:1049200045F800221146501EFEF732FB13B030BD91
:104930000D48016841F00101016041680B4A1140D6
:10494000416001680A4A11400160016821F4802138
:104950000160416821F4FE0141604FF41F01816054
:104960000449C00308607047001002400000FFF8CF
:10497000FFFFF6FE08ED00E0FEE70000024901201F
:10498000096881F8540070472C0000202DE9F0419F
:104990008AB0040036D0FBF71FFF0190D0E9001267
:1049A000CDE90412876A056A01A8FBF737FF2046A4
:1049B00000F08AFC060025D0204600F0CAF98046A7
:1049C000B80704D52A46414604A800F0E3FD204676
:1049D000FBF702FF01904046FBF7FEFE06903046D3
:1049E000FBF7FAFE039005620698019AC16911620D
:1049F000C46101A8FBF712FF06A8FBF70FFF03A88D
:104A0000FBF70CFF0AB0BDE8F08100002DE9FC5F68
:104A1000DFF834A10746DDE90C54DAF81800DDF8B8
:104A20003CB0984691460E4604434DB9BAF8020090
:104A300048B346480AF144010068407C51F82050D0
:104A4000681C0ED0FDB12846FBF7C6FE0190B0F9F8
:104A50000010B0F902200F441644B9F1000F02D043
:104A600006E000250FE0B0F90430591A01F1010900
:104A7000B8F1000F04D1B0F90600801A00F1010866
:104A800001A8FBF7CBFE0BF12C00FBF7EAFD5FEA78
:104A9000000B56D0BAF80200401CAAF80200584693
:104AA000FBF79AFE0090078007EB09014680491E3C
:104AB000818006EB0801491EC1800E990161244ADC
:104AC000816A2240114381626846FBF7A7FEDAF84B
:104AD00010005E4650B1FBF7B9FE07463046FBF7C3
:104AE000B5FE0146786948617E6101E0CAF810B000
:104AF0002946584600F07EFCA00602D5584600F034
:104B0000AFFAE00704D0DAF82410491CCAF82410E0
:104B1000600602D55846FFF739FFA0070DD5584665
:104B2000FBF75AFE0090816A41F0020181626846FB
:104B3000FBF774FE584600F0C4F90121584600F016
:104B4000CAFE5846BDE8FC9F940000202C000020BF
:104B50009F3F3F0003490020096881F85400FFF798
:104B60004BBB00002C00002010B50446C168D4E9FE
:104B70000020172A0DD004DC0E2A0CD0142A07D1ED
:104B800004E0222A0CD0282A02D10CE000F056FBC7
:104B90000020E06010BD2146BDE8104000F080BA62
:104BA0006FF07040F5E7BDE8104000F08AB938B505
:104BB00004000BD0FBF710FE00900068FCF7EAFD44
:104BC0006846FBF72BFE2046FBF766FD38BD00006C
:104BD000F8B505006AD000F0E1FC002866D0284650
:104BE00000F084FB07460B21284600F074FE28469F
:104BF00000F0EBFA2846FBF7EFFD0090406A08B1A1
:104C0000FCF782F92A4C002104F15C026163E06840
:104C100052F82030AB4201D142F82010244A5432DD
:104C200052F82030AB4201D142F82010606904E014
:104C30004368AB4200D1416000680028F8D10721E9
:104C4000284600F072F9009801F0AEF8284600F00E
:104C5000E1FA20690DE000BFFBF7F8FD0646406968
:104C60002946A84205D10846FBF7F0FD406970616E
:104C700001E00028F0D10098806AC10702D0616A83
:104C8000491E6162800602D5A088401EA080684649
:104C9000FBF7C4FD6088401E60802846FBF7FCFCE3
:104CA0000348443050F8270000F0DAF9F8BD00005E
:104CB000940000202DE9F0411A4C0025206B10B122
:104CC000804700E0012502F0C1FC0028FAD1164E11
:104CD000306890F8540038B1A08828B1206A0127C4
:104CE00020B10068804704E0002702E00120FDF7C2
:104CF0003FFB306890F8540038B1A08828B102F02A
:104D00006FFBA08808B10125F3E73FB1206A10B11D
:104D10004068804702E00020FDF72AFB2846BDE8F6
:104D2000F0810000940000202C000020034804497A
:104D30000068407C51F82000704700002C000020E3
:104D4000D800002010B5002802D0FBF77FFDC06915
:104D500010BD10B5002802D0FBF778FD806910BDAA
:104D600010B501004FF0000004D00846FBF76EFDBF
:104D7000B0F9000010BD00002DE9FF5F2C4D6878F0
:104D8000002853D100272B482F616F630068DFF89C
:104D9000A8903C464764AF806F804FF0020A4FF006
:104DA000FF3B43F6FF7805F144062046FBF73AFE49
:104DB00098B1CDE90297CDE900BA002142464346B9
:104DC0000846FFF723FE1A4A46F824004C326FF0DB
:104DD000704142F8241000F074F8641C022CE4DBEB
:104DE000164FDFF85C80DFF85C90002407EBC4000E
:104DF00000F0B4F908EBC40000F0B0F909EBC4000E
:104E000000F0ACF9641C022CF0DB306800F028F9EB
:104E1000FFF7B4FD0120064968703C310A4808607C
:104E200004B00846BDE8F05FFDF766BBBDE8FF9F34
:104E3000940000202C000020159000082C34002045
:104E40003C3400204C3400201181000870B586B03D
:104E50000D4606002CD0FBF7BFFC0090846AA1072A
:104E600023D5D0E90010CDE90110E00302D530468A
:104E700000F016FB5DB1286803906868049003A9F0
:104E8000009800F073F903A901A8FDF72BFA314649
:104E900001A800F073F940B140F601000440012C74
:104EA00008D001A9304600F0F7FA6846FBF7B6FCD7
:104EB00006B070BD0098026A816901A800F06AFB23
:104EC000F3E70021FFF7C2BFFEB515460E4604000A
:104ED0001CD0FBF781FC0246009090F82800800768
:104EE00011D5314601A8FDF71AFA60B16846FBF703
:104EF00095FC2A4601A9204603F04AF82046FFF710
:104F000021FF04460CE06846FBF788FCFEBD2A46FC
:104F100001A92046FFF7D8FF2046FBF797FC046A5B
:104F2000002CF4D1FEBD00F04BBB1FB5262203912F
:104F30000092694600F0B4F81FBD000010B50C4C9B
:104F40000A4A03462468002086B052F82420002A2A
:104F50000AD00E200090CDE9043104A803906946E0
:104F6000104600F087FC012006B010BDF0000020C4
:104F7000A000002070B5154606468AB00C4651EADE
:104F800005006BD0002E69D03046FBF725FC05905C
:104F9000D0E90012CDE90212CDE906127CB1816A96
:104FA0000A0607D5890505D4BDF81810091BADF808
:104FB000181004E0BDF81C102144ADF81C107DB1A0
:104FC000816ACA0507D5490505D4BDF81A10491BE1
:104FD000ADF81A1004E0BDF81E102944ADF81E10FB
:104FE000806AC00302D5304600F05AFA05AB93E858
:104FF0000700C0E9001290F8280080070AD506AA29
:1050000002A908A8FCF78CFA0598026A816908A829
:1050100000F0C0FABDF91E00BDF90E10401A009054
:10502000BDF91C00BDF90C10431ABDF91A00BDF9F9
:105030000A10421ABDF91800BDF90810411A059866
:1050400000F050FC059901F10800FDF74BF905212E
:10505000304600F040FC05A8FBF7E0FB0AB070BD4D
:1050600070B50C4D04002868866C01D10A490C69A2
:105070008464204600F0F4FBFFF7BEF82046FBF7FF
:10508000E5FB2968B0F90020CA64B0F902000865A0
:10509000304670BD2C0000209400002000F008BCB9
:1050A00070B50C00054609D0FFF753FE002805D067
:1050B0002146A560BDE8704000F0DCBB70BD00007B
:1050C00010B5FBF749F9024900200968486410BD92
:1050D0002C000020F8B516460C46050018D0FBF74A
:1050E0007BFB0090B0F90410B0F90020891A641A13
:1050F000B0F90610B0F90200641E081A361A6846A4
:10510000761EFBF78BFB324621462846FFF732FF1F
:10511000F8BD00000EB50E48006890F8541009B1B3
:105120000C4811E0806CFBF757FB0090D0E90010B1
:10513000CDE901106846FBF771FB0748816A11B1A0
:1051400001A800F01BF801A803F092F90EBD0000C1
:105150002C000020AC3300209400002002490A6893
:105160000260086070470000A80000200B46B0F9FC
:105170000220B0F900101846FCF7FEB938B50C460D
:1051800005462046FBF728FB0146009090F82800D2
:10519000800703D46846FBF741FB12E02846FDF781
:1051A000A1F80098806920B104466846FBF736FBF9
:1051B000E7E76846FBF732FB204600F0FFFD0028DA
:1051C00001DA002038BD012038BDF8B50546684633
:1051D000FCF702FB1AE001212046FCF7E9FA0099EE
:1051E00081B178B10846FBF731FB4068A84209D18C
:1051F00069462046009EFCF703FB04463046FFF755
:10520000D6FC04E069462046FCF7FAFA0446002C76
:10521000E1D1F8BD38B50446FBF7DEFA00908169AC
:1052200041B1026A00F0B6F9204600F0F9FA00999F
:10523000002088616846FBF7F1FA38BD38B50C46A6
:1052400000280AD0002C08D0FBF7C6FA21460090AF
:1052500000F004F86846FBF7E1FA38BD00224A8006
:105260000A8082880388D21A8A80C2884088101AED
:10527000C880704710B5FFF76CFD002802D0FBF71F
:10528000E5FAC06910BD00000D4810B5006890F83F
:105290005400002806D00B4C6069012803DD401E35
:1052A0006061002010BD2069401C206102F0C2FA3C
:1052B00018B1FFF72FFF012010BD6069EFE7000074
:1052C0002C000020A433002070B50546FFF7D2FF64
:1052D00008E0AC4201D1002406E0FBF7B7FA006A0F
:1052E000A84201D00400F4D1204670BD10B5044698
:1052F000FBF7ACFA80690028F9D12046BDE81040E0
:1053000000F05CBDF0B5384E074687B0306890F8C5
:10531000541041B1354C6169491C6161012905DDB9
:10532000012007B0F0BDFFF7F5FEF9E7806CFBF751
:1053300053FA2F4D4FF0FF3100902161297821B1B0
:1053400081680291C068039007E090F828108907EF
:105350003CD5D0E90010CDE902101FB1394602A8B2
:10536000FCF7C0FF3068406C78B300980490306858
:10537000406C0168059140680690A86A30B104A8A5
:10538000FBF74CFAA86AFBF727FA049005A90498E2
:10539000FFF7ECFE05A902A8FCF7A4FF0DF1100031
:1053A000FBF73CFAA96A19B102A8FFF7E7FEB0B112
:1053B0003068816C02A8FFF7E1FE80B1DDE90201EF
:1053C000C4E90001FFF760FFABE706E06069401E3B
:1053D00060616846FBF722FA04E06846E0E760692E
:1053E000401E606100209CE72C000020A4330020B8
:1053F00094000020FEB50D00044647D0FBF7ECF901
:1054000000900021856101622846FBF7E5F90099CB
:105410000290C56991F8281001F008062DB12846C0
:10542000FBF7DAF9019036B115E0C4616846FBF785
:10543000F5F902A828E090F8280000070BD500989D
:1054400005620298C4616846FBF7E8F902A8FBF719
:10545000E5F901A818E002A8FBF7E0F901A8FBF7BD
:10546000DDF92846FBF7F2F911E004620BE028466B
:10547000FBF7ECF95EB990F82810090707D50198F9
:105480000462009805626846FBF7C8F9FEBD01900A
:10549000056A002DEBD1E8E7202202F079BD00007B
:1054A00038B5040022D0FBF797F9009090F8281047
:1054B000890718D5406A40B10D49C96AA14204D094
:1054C000FBF722FD0099002048622046FFF73AFCD6
:1054D000044606E02046FFF7E3FF2046FBF7B6F957
:1054E000046A002CF6D16846FBF798F938BD000035
:1054F0009400002070B5064615460C460846FBF79A
:10550000A5F9806AC00302D54FF4804300E0202350
:105510002A4621463046BDE87040AFF300802DE9B1
:10552000FF419846164607460D0031D00846FBF766
:1055300053F90090846A0246A00726D5394601A88F
:10554000FCF7EDFE08B340F601000440012C07D043
:10555000424601A9284602F01BFD0098C46912E0EA
:1055600000984346026A816901A8FFF7D8FFF4E773
:10557000B4420AD0424601A92046FFF7A5FC2046C6
:10558000FBF764F9046A002CF2D16846FBF746F990
:10559000BDE8FF812023FFF7C2BF000010B504461D
:1055A0000648006906E0A04201D1012010BDFBF7CA
:1055B0004DF940690028F6D110BD0000940000208C
:1055C000F0B58BB006004FF0000015460C46049075
:1055D0000590069007903ED054EA05003BD0304637
:1055E000FBF7FAF80090D0E90012CDE902122A4642
:1055F0002146FBF7C1FF00982A4621460830FBF7F9
:10560000BBFF0098C7696846FBF708F92A462146A0
:10561000384602F002FD3046FBF7DEF8009090F8C5
:10562000281089070AD5816941B1026AFFF762FF34
:105630000098026A816902A8FFF75CFF6846FBF7E1
:10564000EDF80320049007AA08A882E8310004A915
:10565000304600F00FF90BB0F0BD00002DE9F1412C
:1056600087B000250798FBF7B7F80190D0E9021240
:10567000CDE9031207698669846A01A8FBF7CEF8B1
:1056800044F2200814EA080F30D0DFB103A80799CC
:10569000FFF774FDB0B10798FFF7E2FC60070DD586
:1056A00056B144F30000401C0090002307AA1149A2
:1056B00003A8FBF749FC05E00120F5E7079800F097
:1056C00063F801250798FBF787F80190816A21EAC2
:1056D000080181628A0402D541F00401816201A8B7
:1056E000FBF79CF804498888401E888008B028464B
:1056F000BDE8F081D18F000894000020F0B589B09A
:105700000546FBF769F80290866A0469D0E9021041
:10571000CDE9001002A8FBF781F8002C30D0B007CB
:105720002ED52E212846FFF7B9FC164C6F4620785F
:10573000401C2070F0044FF00F0609D5CDE9046538
:105740000797FFF7BDFC04A9284600F093F810E086
:105750003846FFF7D7FD0AE0CDE904650797FFF764
:10576000AFFC04A9284600F085F8FFF78DFD00285E
:10577000F2D120782F21401E20702846FFF78EFCA2
:1057800009B0F0BD9400002038B50446FBF724F8BA
:105790000090806A40F601010840012805D0684663
:1057A000FBF73CF8204602F0E1FC1448406A002870
:1057B00023D0204602F032FD2046FBF747F88569EA
:1057C000046A18E02046FBF741F890F82800C0432F
:1057D000800702D1204602F0DBFC204602F01EFDCD
:1057E0002046FBF733F8046A002CEBD12846FBF780
:1057F0002DF88569046A002DF6D138BD940000208B
:10580000B0F90010B0F90420914205DCB0F90210A3
:10581000B0F90600814201DD002070470120704789
:1058200070B50646FBF712F805468069002809D0D6
:10583000FBF70CF80446C069B0420ED1FBF706F83E
:10584000006AE06170BD00BFFBF700F80146006A26
:10585000B04202D1286A086270BD0028F4D170BD40
:1058600010B5FFF743FD002803DBBDE81040FBF750
:105870000FBF10BD70B50D4C06460D4620681428AC
:105880000DDA3046FAF7E2FF01696E6041B1206837
:10589000401C2060284688472068401E206070BD5C
:1058A0002846BDE87040FFF75FB9000058010020AE
:1058B0007FB50546002000900190029003900C46B1
:1058C0002846FAF7C3FF0269002A03D06846CDE9EB
:1058D000004590477FBD1FB5CDE900106946FFF731
:1058E000C9FF1FBD2DE9FF4F81B09B46C66962E02D
:1058F0003046FAF771FF01460090D1E90004896A49
:10590000254601F420730246802B09D0B3F5207F91
:10591000029B134406D063F30F02029B234405E06D
:1059200002EB0B0363F30F0204EB0B0301F4A06122
:1059300063F30F04B1F5807F0BD0B1F5A06F03992D
:105940004FEA224307D0194461F31F4223140399FD
:1059500006E00E991314194461F31F420E992314A3
:1059600019440FFA82FA61F31F440FFA80F91714F1
:105970004FEA2048AAEB0901A7EB080251EA02000E
:1059800002D03046FFF7CFFA2AB221B2A2EB0900CB
:10599000A1EB0A01091AC7EB2440C8EB2542821A81
:1059A00051EA020002D03046FFF7E4FA0098066A96
:1059B0006846FAF733FF002E9AD105B0BDE8F08FA4
:1059C0002DE9F041204D0C460646E968A86B0144DC
:1059D000A019491E884205D8016819B941680E44CA
:1059E00002F09EFCA86BA0420AD254F8040C271ABD
:1059F000386828B978680644384602F091FC3C467D
:105A0000304602F055F905EBC0073246002120462A
:105A10007B6C02F0DDFE57F8440F083400B144609F
:105A20002060002060603C6028683044286095F861
:105A3000291029B9E968081AA968814200D2A8602A
:105A40003046BDE8F0810000683200202DE9F041C9
:105A5000054602F049FA2B48046CAC4202D8ED1C12
:105A600025F00304804600680C34A04202D20020D6
:105A7000BDE8F08102F020FC0600F9D0204602F0DB
:105A800017F9414612E000BF01EBC002526C62B14F
:105A9000956855B16B68A3420BD2AA682AB1956884
:105AA0006B68A34205D2002DF7D1401C1028EBD320
:105AB0001FE0F5B1D8F84000191B0C301F46814299
:105AC00000D23C46284602F02BFC0420D8F83410C3
:105AD00000EBC60000230D5022463146284602F056
