:020000040800F2
:1000000010BC002045010008A18A0008717A000890
:100010009D8A000881130008759C000800000000FC
:100020000000000000000000000000007D950008B6
:10003000891B000800000000DD8C00083D980008C6
:100040005F0100085F0100085F0100085F01000810
:100050005F0100085F0100085F0100085F01000800
:100060005F0100085F0100085F01000881180008B7
:100070005F0100085F0100085F0100085F010008E0
:100080005F0100085F0100085F0100085F010008D0
:100090005F0100085F0100085F0100089D2400085F
:1000A0005F0100085F0100085F0100085F010008B0
:1000B0005F0100085F0100085F0100085F010008A0
:1000C0005F0100085F0100085F0100085F01000890
:1000D0005F0100085F0100085F0100085F01000880
:1000E0005F0100085F0100085F0100085F01000870
:1000F0005F0100085F0100085F0100085F01000860
:100100005F0100085F0100085F0100085F0100084F
:100110005F0100085F0100085F0100085F0100083F
:100120005F0100085F0100085F0100085F0100082F
:10013000DFF80CD000F08CFC00480047856B01080C
:1001400010BC00200648804706480047FEE7FEE74F
:10015000FEE7FEE7FEE7FEE7FEE7FEE7FEE7FEE777
:10016000459800083101000810B5431A934209D29E
:100170008318881803E010F8011D03F8011D521EB2
:10018000F9D210BD40EA01039B0703D009E008C97A
:10019000121F08C0042AFAD203E011F8013B00F84C
:1001A000013B521EF9D210BDD2B201E000F8012B82
:1001B000491EFBD270470022F6E710B513460A46E7
:1001C00004461946FFF7F0FF204610BD421C10F808
:1001D000011B0029FBD1801A704730B5044600206E
:1001E000034600E05B1C934203D2E05CCD5C401B05
:1001F000F8D030BD034611F8012B00F8012B002A7E
:10020000F9D118467047F0B480EA0102D40F4200D9
:10021000B2EB410F02D20246084611464A0042D0D4
:10022000C30DDDB2C1F3C752AD1A202D35DAC1F3CB
:10023000160141F4000204B15242C5F1200602FA4F
:1002400006F12A411044B3EBD05F23D0C4B1012D95
:10025000A0EBC35009DCF0BC4FF0004202EAC352ED
:1002600000F50000DBB200F03BBB400000F1807005
:1002700000EBC350A0F1807040EAD170490009E062
:10028000490841EAC071A0EBC35000F500004008E6
:1002900000EBC350F0BC00F01ABB6142012202EB3C
:1002A0004101001BF6E7F0BC704781F00041AAE76E
:1002B00080F00040A7E780EA010210B502F0004399
:1002C000400026D04A0023D04FEA106101EB1261B2
:1002D000C0F35600C2F3560240F4000042F400029C
:1002E000A0FB0220A1F17F014FEA0040140401D0DD
:1002F00000F1010050EA124001D44000491EC2B290
:100300000C0604EBD010401C4008802A02D003E009
:10031000002010BD20F00100002900DA0020184361
:1003200010BD30B480EA010202F0004530F0004216
:1003300021F0004015D0A0B1C0F3C753C2F3C75499
:10034000C2F31601C0F31600E41A41F4000140F4B0
:1003500000027D34914201D3641C00E04900002C6E
:1003600002DA30BC002070474FF4000000239142B5
:1003700001D3891A034340084FEA4101F7D151B133
:10038000914202D14FF0004105E002D24FF001014D
:1003900001E06FF0010103EBC450284430BC00F0D1
:1003A00096BA420005D0C0F3C7525242914201DCD6
:1003B0000020704700EBC15070472DE9FE4F80468A
:1003C00081EA0300C00F0C46009021F0004123F0A9
:1003D0000045B8EB0200A94105D2404621469046AF
:1003E0001C460B46024623F00040104304D1404611
:1003F000214603B0BDE8F08F270DC7F30A00C3F311
:100400000A510290401A0190402866DAC3F31300A3
:1004100040F4801B0098924620B10023D2EB030ADF
:1004200063EB0B0B01985946C0F14002504600F0B7
:100430001DFA06460D4650465946019A00F035FA17
:1004400010EB08006141002487EA115284EAE77347
:100450001A433BD0009A3AB3019A012A4FEA075255
:1004600010DC001B61EB02014FF0004202EA075270
:10047000CDE90042001C41F5801132462B4600F0C8
:1004800069FAB6E7001B61EB0201001C41F580131D
:1004900000185B412018A2F5001747EB030140EA62
:1004A000D570B6196D4111E06D084FEA360645EA80
:1004B000C0754FEA0752001B61EB0201001C41F5B9
:1004C000801149084FEA30000019514132462B464D
:1004D00003B0BDE8F04F00F030BA009801224000B0
:1004E0000023D0EB020263EBE073009821464FEA51
:1004F000E074B8EB000061EB0401E9E783F000432E
:100500005BE781F0004158E72DE9FE4F81EA0304E3
:1005100004F0004421F0004100944FF0000B23F060
:10052000004350EA010402D052EA030404D100203F
:10053000014603B0BDE8F08FC3F30A54C1F30A5576
:100540002C44A4F2F3340194A0FB0254C1F3130130
:1005500041F48011C3F3130343F4801301FB0244FD
:1005600000FB034E840A970A44EA815447EA835702
:10057000A4FB076802958D0A05FB07854FEA932CBB
:1005800004FB0C542705029D4FEA065847EA16372C
:10059000B5EB08056EEB070C870E920E47EA811744
:1005A00042EA8312A7FB0201B6EB0B0164EB0004E5
:1005B0002B0D43EA0C335E1844EB1C50DA465146CF
:1005C000E7FB0201C5F313044FEA0B3343EA14536C
:1005D0004FEA0432019C43EA0603A4F10C0402949E
:1005E000009CCDE900B400F0B5F9A2E72DE9F04D8B
:1005F00081EA030404F0004B21F0004514464FF05B
:10060000000A23F0004150EA050220D054EA01021A
:100610001DD0C5F30A570246C5F31303C1F31300F7
:10062000C1F30A5640F4801543F48013A7EB060883
:10063000101BD64608F2FD3873EB050002D308F113
:10064000010801E092185B41B8F1000F03DA0020C5
:100650000146BDE8F08D00204FF480110646844627
:100660000EE0171B73EB050705D3121B63EB0503A5
:1006700006434CEA010C49084FEA300092185B41EE
:1006800050EA0107EDD152EA030012D082EA0400D9
:1006900083EA0501084303D100224FF0004308E03C
:1006A000101BAB4102D20122002302E06FF00102D5
:1006B00053101AEB06004CEB085110EB0A0041EB0B
:1006C0000B01BDE8F04D00F038B9C10F80EAE070D1
:1006D0000844CA079623002100F002B9962300229D
:1006E000114600F0FDB80EB5C10F80EAE070084475
:1006F000CA07002140F233438DE80E000A460B463C
:1007000000F028F903B000BD0EB540F2334102916C
:100710000021CDE900110A460B4600F01BF903B099
:1007200000BD00F0004220F00040C10DC0F31600F3
:1007300040F400007F2901DA00207047962903DC8D
:10074000C1F19601C84001E096398840002AF4D0F2
:100750004042704720F00040C10DC0F3160040F445
:1007600000007F2901DA00207047962903DCC1F1DF
:100770009601C840704796398840704770B5C1F3FC
:100780000A5201F000450024C1F3130140F2FF3387
:1007900041F480119A4201DA002070BD40F23343E7
:1007A0009A42A2F2334203DC524200F06EF800E0BB
:1007B00090402C43F1D0404270BD00F0004230F038
:1007C00000400AD0C10D01F56071C0F3160042EA85
:1007D0000151C2084007114370470020014670478D
:1007E00001F0004330B421F0004150EA010206D08C
:1007F0000A0DA2F56072C1F31301002A02DC30BCBD
:1008000000207047440F44EAC104C100E01830BC26
:1008100000EBC25000F05BB8002801DBC0F10040E3
:10082000002901DBC1F1004181427047002801DB52
:10083000C0F10040002901DBC1F10041884270474E
:1008400030B50B46014600202022012409E021FAA0
:1008500002F59D4205D303FA02F5491B04FA02F59D
:100860002844151EA2F10102F1DC30BD202A04DB70
:10087000203A00FA02F1002070479140C2F12003B3
:1008800020FA03F3194390407047202A04DB203AF2
:1008900021FA02F00021704721FA02F3D040C2F1A0
:1008A00020029140084319467047202A06DBCB17E7
:1008B000203A41FA02F043EAE07306E041FA02F31B
:1008C000D040C2F1200291400843194670470029E8
:1008D000A8BF7047401C490008BF20F001007047C6
:1008E00010B4B0FA80FC00FA0CF050EA010404BF26
:1008F00010BC704749B1CCF1200421FA04F411FA7C
:100900000CF118BF012121430843A3EB0C01CB1DBF
:100910000106000A002BBEBF002010BC704700EB90
:10092000C35010440029A4BF10BC7047401C4900AC
:1009300008BF20F0010010BC704710B5002B08DA8A
:10094000401C41F1000192185B411A4301D120F093
:10095000010010BD2DE9F04D92469B4611B1B1FA50
:1009600081F202E0B0FA80F220329046FFF77EFF7B
:1009700004460F4640EA0A0041EA0B0153465A4634
:10098000084303D120463946BDE8F08D114653EAAD
:10099000010015D0C8F140025046FFF776FF05462A
:1009A0000E46504659464246FFF760FF084301D0C5
:1009B000012000E00020054346EAE0762C4337435F
:1009C0000A984FEA4453A0EB08004FEAD4240A30B7
:1009D0004FF0000244EA47544FEAD72502D50020E1
:1009E0000146D1E7010510196941DDE90845001903
:1009F0006941BDE8F04DA0E770B521F00043034325
:100A00000CD0C1F30A550024D5EB040564EB0403B4
:100A1000D617AD1AB34102DB0020014670BD201885
:100A200041EB025170BD000030B5002904DB4FF0EE
:100A30000044404264EB0101002B04DB4FF0004412
:100A4000524264EB0303994208BF904230BD00005C
:100A5000064C074D06E0E06840F0010394E807000B
:100A600098471034AC42F6D3FFF766FBBC2D040860
:100A7000DC2D040870B501EB020410F8015B15F0E1
:100A8000070301D110F8013B2A1106D110F8012B00
:100A900003E010F8016B01F8016B5B1EF9D12B0725
:100AA00005D40023521E0FD401F8013BFAE710F8D9
:100AB000013B02F10202A1EB030303E013F8015B27
:100AC00001F8015B521EF9D5A142D6D3002070BDBA
:100AD00021B1826842F00102826003E0826822F064
:100AE00001028260704721B1826842F480728260A4
:100AF00003E0826822F48072826070470146002021
:100B00008A6812F0040F01D0012000E00020704735
:100B1000014600208A6812F0080F01D0012000E091
:100B20000020704730B502460020002350680F4C6B
:100B300020400D790C6844EA0524204350609068F9
:100B40000B4C2040D1E902542C434D7944EA450432
:100B500020439060D06A20F470000C7C641EE4B2E4
:100B6000234340EA0350D06230BD0000FFFEF0FF97
:100B7000FDF7F1FFF0B504460D4600200021092DD8
:100B800011DDE068A5F10A0606EB4607072606FA1E
:100B900007F18843A5F10A0606EB460603FA06F1BB
:100BA0000843E0600CE0206905EB4507072606FADC
:100BB00007F1884305EB450603FA06F10843206177
:100BC000072A0FDA606B561E06EB86071F2606FA09
:100BD00007F18843561E06EB860605FA06F1084320
:100BE000606322E00D2A0FDA206BD61F06EB860722
:100BF0001F2606FA07F18843D61F06EB860605FA7C
:100C000006F10843206310E0E06AA2F10D0606EB4E
:100C100086071F2606FA07F18843A2F10D0606EBA8
:100C2000860605FA06F10843E062F0BD816841F0EE
:100C300008018160704721B1826842F4A00282609D
:100C400003E0826822F4A00282607047816841F06C
:100C5000040181607047000008B50121142008F0EC
:100C600057FA0F20ADF8000000208DF80300694608
:100C7000064802F045FE1F20ADF8000000208DF868
:100C800003006946024802F03BFE08BD0010014027
:100C90000008014010B5FFF7DFFF00F001F810BDBC
:100CA00000B591B00121084608F022FA012148025E
:100CB00008F02EFA594800F0F3FD594806905948BB
:100CC0000790002008900920099000200A908020B9
:100CD0000B9040000C9080000D9020200E900002A0
:100CE0000F900020109006A94C4800F088FE0121CA
:100CF0004A4800F0C9FD0020019001208DF808004D
:100D00008DF809004FF46020039000200490092022
:100D10008DF8140001A942484C38FFF703FF4FF447
:100D2000404008F0D9F9062301220A213C484C38FA
:100D3000FFF720FF062302220B2139484C38FFF72A
:100D400019FF062303220C2135484C38FFF712FF08
:100D5000062304220D2132484C38FFF70BFF0623EF
:100D6000052200212E484C38FFF704FF06231A46BF
:100D700001212B484C38FFF7FDFE062307220221F4
:100D800027484C38FFF7F6FE0623082203212448A3
:100D90004C38FFF7EFFE07230922042120484C3886
:100DA000FFF7E8FE01211E484C38FFF79CFE0121A9
:100DB0001B484C38FFF78CFE19484C38FFF736FFBC
:100DC00000BF17484C38FFF7A3FE0028F9D114489C
:100DD0004C38FFF73BFF00BF11484C38FFF78EFE41
:100DE0000028F9D10B208DF8000001208DF80100BA
:100DF00000208DF8020001208DF80300684607F0FE
:100E000051FE01220221054800F0F0FD01210448B5
:100E10004C38FFF710FF11B000BD00000800024081
:100E20004C24014070090020002800DC404270473B
:100E3000002011E00D4951F820100D4A32F8102021
:100E400011440A4A42F820100A4931F81010491C8E
:100E5000084A22F81010401C0928EBDB06484068BD
:100E600040F00100044948607047000094090020E8
:100E700070090020820900200000024038B5456852
:100E800004460146284608F00BFF00282BD02068B6
:100E9000304A11280DD006DC0B2825D00E2833D07F
:100EA0000F2852D112E0282849D0B0F5107F4CD13C
:100EB00008E09268002A16D02146284601B0BDE815
:100EC00030401047214628465268F7E7284603F08D
:100ED00087F90090406E0468684603F0CBF9002C57
:100EE00001D02846A04738BD284603F079F9009084
:100EF000683003F0D9F8009803216C3003F0DCF877
:100F0000684603F0B7F920E0E168486809680D29F0
:100F100002D0202913D105E0002810DD284610F06A
:100F20006BFA06E0002804DD2846BDE8384010F0E2
:100F300063BA2846BDE83840022110F073BAE06871
:100F400018B90021284600F0BAF92046BDE838401B
:100F500009F03ABABC0200202DE9FF410AAF97E838
:100F60007000002703958DE8D00000F003F804B06E
:100F7000BDE8F081F0B585B00DF1280C9CE8F000DB
:100F80004FF0000C8DE8F01000F024F805B0F0BD33
:100F9000F0B5044685B08069B4F90850668A002728
:100FA000CDE90265CDE900170490B4F90C00B4F95D
:100FB0001060C118B4F90A00B4F90E501044334659
:100FC0002A4600F007F80546616800F097F905B079
:100FD0002846F0BDF0B585B00C46DDE90D51DFF8CF
:100FE00054C04C31DDE90A67CDE902C12146CDE9A3
:100FF000006709F03BF9040018D003F0F1F8102263
:101000002946049008F0F2FF049830220A4934304F
:10101000FFF7AAF8084D04990C3D2868486604A813
:1010200003F028F9286841682046884705B0204623
:10103000F0BD00007D0E0008C8020020F0B5044697
:1010400080688B4989B051F82050606800287DD0B5
:10105000052804D006287AD0122879D1AEE0E869B4
:1010600000284FD095E80E008DE80F0004F1100124
:101070000FC906F06BF8002655F8260004F084FF2F
:10108000A169E8690A1A216901446069304403F0E2
:10109000ABFEA169E8690A1A21690144E069801B75
:1010A00003F0A2FEE169E8690A1A61690144206956
:1010B000304403F04FFFE169E8690A1A61690144AD
:1010C000A069801B03F046FF761C022ED4DBA868C3
:1010D00004F05AFFE069E9696669431A2069421819
:1010E0003144801C521E03F0CDFFE169E869A2691A
:1010F0000B1A61690144101A401C921E03F0C2FFD2
:10110000EE6913E05FF0000655F8260004F03CFF9E
:10111000E069831BA069821B6069811920693044E2
:1011200003F0DAFE761C022EEEDB0226D5E903017F
:10113000CDE900016169E06908444310A069891C98
:10114000821B2069304403F01BFE02E089E012E0BC
:101150008AE0D5E90501CDE90001E3696069012173
:10116000184401EB6001A0699B1E821B206930447A
:1011700003F006FE78E0206803F032F8049020685F
:101180000AF0A6FB40B1A06808B1002008E004986E
:10119000006F28B1012003E00498406F00B10220E5
:1011A000049901EB8000C56E04A803F063F80023E6
:1011B0001A462846216803F083FB55E0206803F0B7
:1011C0000FF80490866EEEB3B0F95C70A168D1B3ED
:1011D000032942D05FF0000100EB8101406D0C6CEF
:1011E00004F0DCFE204604F0CFFE05A803F0EAFF81
:1011F000BDF81410A88B0144ADF81410BDF81810F8
:10120000081AADF81800BDF81600801CADF81600DD
:10121000BDF81A00801EADF81A000498B0F96020DD
:10122000B0F95E1005A804F097FD04A803F022F8B9
:10123000022004F0F5FE304602F0D2FF3A4605A93E
:10124000079001E00BE006E003F01EFC0DF11C002E
:1012500003F010F808E00121BEE70221BCE704A872
:10126000F6E7206809F0E4FF09B00020F0BD0000B7
:10127000B8970308044A0349116004494A6A48625E
:1012800010467047F8020020BC020020C80200206F
:1012900000294FF0100101D008F092BD08F0ECBC1D
:1012A00038B50D46040009D002F09AFF009045655C
:1012B000684602F0DFFF204609F0E5FC38BD4FF438
:1012C00080720029114601D008F07ABD08F0D4BC24
:1012D00008B50023009300F001F808BD70B516466C
:1012E0000C46054619463046049A03F0D1FA0246E8
:1012F00021462846BDE8704000F028B82DE9FF419E
:101300000E4605004FF001041CD002F069FF019069
:10131000876E01A8009702F0ADFF3146684606F0DF
:101320001FFA78B100980024B84208D0284602F08D
:1013300057FF01900099816601A802F09BFF2846A3
:1013400009F0A1FC04B02046BDE8F081F8B51546CF
:101350000C46060013D002F043FF0090032C0BD282
:1013600000EB84006C3002F09FFE009800EB8400DC
:10137000C566304609F087FC684602F07BFFF8BD81
:1013800000BFFEE72DE9FF470446006810B10AF0F0
:101390009FFA68B10022314850F8221060680A288C
:1013A00041D007DCF0B306280DD0072854D106E061
:1013B0000122F0E712280AD019284DD137E0204643
:1013C0000BF03CFE48E020460CF0F4FF44E02068BF
:1013D00002F006FF0290B0F9548090F85650476C26
:1013E000466B02A802F046FF206800F039F88146FB
:1013F000684609F0EFF8BDF8001009EB0500084455
:10140000ADF80000246A304604F0C8FD022004F064
:1014100007FE384604F0B8FD42466946204603F010
:1014200033FB19E007E020460DF008FA14E0886964
:1014300004B0BDE8F087206809F0FAFE206802F0E9
:10144000CFFE0390B0F90610B0F90220891A491CAA
:10145000C16703A802F00EFF0020E9E7C897030860
:1014600038B502F0BDFE0090C46F684602F002FF7E
:10147000204638BD044A034911600449CA69C8615D
:101480001046704784030020E8070020EC07002086
:1014900000B589B024216846FEF78DFE1920019021
:1014A00003480068806841686846884709B000BD05
:1014B000E80700202DE9FC4F8046894617469A46EA
:1014C0000020019000250220009000260DE13C46FE
:1014D000FF2C02DCA020019028E0B4F5007F02DAA6
:1014E000A220019022E0B4F5407F02DAA42001900E
:1014F0001CE0B4F5806F02DAA620019016E0B4F586
:10150000A06F02DAA820019010E0B4F5C06F02DAF3
:10151000AA2001900AE0B4F5E06F02DAAC20019055
:1015200004E0B4F5006F01DAAE200190464609F000
:10153000FF0B0025BAF1000F5BD052E0FF2C02DC5C
:10154000A020019028E0B4F5007F02DAA2200190EB
:1015500022E0B4F5407F02DAA42001901CE0B4F54B
:10156000806F02DAA620019016E0B4F5A06F02DACF
:10157000A820019010E0B4F5C06F02DAAA20019013
:101580000AE0B4F5E06F02DAAC20019004E0B4F5B3
:10159000006F01DAAE20019008F0B0F8019808F071
:1015A0000DF807F001FE2844C5B2E0B208F006F8D5
:1015B00007F0FAFD2844C5B208F0A0F80199491CCB
:1015C000C8B207F0FBFF07F0EFFD2844C5B207F0F3
:1015D0001BFE06F8010B601C84B207F0A7FA08F0A6
:1015E000C5F85FEA0B00ABF1010101F0FF0BA5D1DB
:1015F00079E008F083F82844C5B2019807F0DEFFCF
:1016000007F0D2FD2844C5B2E0B207F0D7FF07F0DB
:10161000CBFD2844C5B253E016F8010B07F0CEFF0E
:1016200007F0C2FD2844C5B2601C84B2E11704EB88
:1016300011710911B4EB011142D108F097F80A2099
:1016400000F0A3FAFF2C02DCA020019028E0B4F502
:10165000007F02DAA220019022E0B4F5407F02DA96
:10166000A42001901CE0B4F5806F02DAA62001905E
:1016700016E0B4F5A06F02DAA820019010E0B4F5EE
:10168000C06F02DAAA2001900AE0B4F5E06F02DA36
:10169000AC20019004E0B4F5006F01DAAE200190B7
:1016A00008F02CF8019807F089FF07F07DFD284429
:1016B000C5B2E0B207F082FF07F076FD2844C5B25C
:1016C000ABF10100C0B25FEA000BA5D116F8010B27
:1016D00007F074FF07F068FD2844C5B208F046F82B
:1016E0000A2000F052FA05B906E00098411EC9B27E
:1016F000009100287FF4EBAE00BFB0462846BDE85D
:10170000FC8F00002DE9FC4104460D4616461F469D
:10171000DDF820801448006809F00AFB08BB134874
:10172000C0F8008000201249086012490F804880EC
:101730002346114A10211148CDE9005602F0C0FF9E
:10174000094908600846006809F0F4FA4FF480601F
:101750000B490860084644600348006888600548F3
:10176000C860BDE8FC810000D4010020D801002041
:10177000DC010020E0010020A1550108207A0108C9
:10178000880A00207CB504460E46154608490D70AF
:101790000848CDE90046084A04210368074802F0DA
:1017A0008FFF074908600846006809F0C3FA7CBD4E
:1017B0002C000020B8010020355E01089C7901084A
:1017C000280000201CB508F021FF044600200090EE
:1017D0002346044A04210190034802F071FF0349A3
:1017E00008601CBD155C01089C0E0308C0010020A8
:1017F0001CB508F00BFF0446002000902346164A53
:1018000001210190154802F05BFF15490860084668
:10181000006809F07FF90020009001901148124AF9
:1018200059210368114802F04BFF1149086008462E
:10183000006809F06FF900200090019009480D4AF6
:10184000012103680C4802F03BFF0C490860084680
:10185000006809F05FF91CBD695D0108A86F010807
:10186000B8010020BC010020653F0108C46F0108D9
:10187000C4010020195E010880790108C801002018
:1018800010B5FFF7D5FA10BD21B1026842F0010290
:10189000026004E002684FF6FE731A40026070476F
:1018A00001684FF6FE721140016000210160416045
:1018B0008160C1604B49884208D14A49083949686A
:1018C00041F00F01474A083A51608AE04549143116
:1018D000884208D143490839496841F0F001414A3A
:1018E000083A51607DE03F492831884208D13D499E
:1018F0000839496841F470613A4A083A516070E029
:1019000038493C31884208D136490839496841F4A0
:101910007041344A083A516063E03249503188429C
:1019200008D130490839496841F470212D4A083AF4
:10193000516056E02B496431884208D12949083961
:10194000496841F47001274A083A516049E0254945
:101950007831884208D123490839496841F07061DB
:10196000204A083A51603CE01F49884206D1011FD5
:10197000096841F00F01021F116032E01A49143169
:10198000884208D11849091F096841F0F001164A38
:10199000121F116025E014492831884208D11249EC
:1019A000091F096841F470610F4A121F116018E0A5
:1019B0000D493C31884208D10B49091F096841F49F
:1019C0007041094A121F11600BE0074950318842EB
:1019D00007D10549091F096841F47021024A121F05
:1019E0001160704708000240080402401AB1036801
:1019F0000B43036002E003688B430360704710B53C
:101A00000022026847F6F0739A430C6A8B682343FE
:101A10000C6923434C6923438C692343CC692343DA
:101A20004C6A23438C6A23431A430260CB684360A9
:101A30000B6883604B68C36010BD0000F8B50546B5
:101A4000006802F0CDFB0090448ED0F888606846B4
:101A500002F010FC06B1012604F00104286809F028
:101A600037FF0EB1002006E00CB1012003E008B101
:101A7000022000E003201B4951F82010686858B389
:101A800002280CD0052802D0122828D103E02846CD
:101A90000BF000FB23E028460DF0D5FA1FE06A6941
:101AA000E8694FF0FF33801AA0F1080203EB6204EB
:101AB000421CAB69001B4510A3EB6206C86904F029
:101AC00063FA06E03219311B284603F08DF9641ED3
:101AD0006D1C002CF6DA02E0286809F0A9FB002052
:101AE000F8BD0000D0970308044A03491160044977
:101AF0000A6B086310467047D003002028080020B6
:101B00002C08002038B50D46002402F069FB009037
:101B1000C06B294602F046FC0546684602F0AAFB67
:101B20001DB1284602F05CFB0446204638BD00008B
:101B300008B54FF6FF70ADF8000048208DF803009F
:101B40006946024801F0DCFE08BD0000000C0140BF
:101B500008B54FF6FF70ADF8000010208DF80300B7
:101B600003208DF802006946014801F0C9FE08BD56
:101B7000000C01400349888000BF02498988002980
:101B8000FBDC7047640900207047014605E0002037
:101B900001E0421C90B2FF28FBDB0A00A1F1010327
:101BA00099B2F4D1704700002DE9F04F8BB0064692
:101BB0000D464D200890082004F020FA022004F081
:101BC0002FFA864804F0EAF94FF47F0004F0DCF9BC
:101BD0004FF4B47000214D231A46CDE90010294678
:101BE000304603F001F8012004F008FA7C4804F0C4
:101BF000CBF94FF4B470002149231A46CDE9001007
:101C00002946304602F0F0FF4FF4B4700021512312
:101C10001A46CDE900102946304602F0E5FF71482A
:101C200004F0B2F946222946304603F013FA4FF485
:101C30007F0004F0A9F90024B2E004EB84016FF006
:101C40001D0202EB4100FEF74EFD0746664A674B58
:101C5000FEF75AFC0022664BCDE90401FEF7C6FCF4
:101C6000CDE90601FEF7BCFD83463046FEF74CFD8C
:101C7000CDE904015846FEF7A0FDCDE9000114F0BE
:101C8000F1FA00225B4BCDE90201FEF73DFC07466D
:101C9000DDE90423FEF791FBCDE90601FEF76EFDB9
:101CA00081462846FEF730FDCDE904015846FEF78F
:101CB00084FDCDE9000114F0F3FF074600224D4BEF
:101CC000FEF722FCCDE90201DDE90423FEF775FBF6
:101CD000CDE90601FEF752FD8246204604EBD071A5
:101CE0004910B4EB410103D1052004F087F902E06B
:101CF000032004F083F95146484603F0D7F8204604
:101D000004EBD0714910B4EB410148D13046FEF7E5
:101D1000FBFCCDE904015846FEF74FFD074614F0E1
:101D2000A1FA0022344BCDE90001FEF7EDFBCDE92D
:101D30000201DDE90423FEF740FBCDE90601FEF7D1
:101D40001DFD81462846FEF7DFFCCDE9040158461B
:101D5000FEF733FD074614F0A3FF0022274BCDE921
:101D60000001FEF7D1FBCDE90201DDE90423FEF716
:101D700024FBCDE90601FEF701FD824604EB840059
:101D8000800000F114021EA109A811F04BFD0C20E7
:101D900004F03CF95246494609A802F05BFE641C77
:101DA000182C7FF74AAF174804F0F8F8A6F1250180
:101DB00005F1320214A002F045FE144804F0EEF8DA
:101DC000002004F0E1F8A6F1210105F1170210A0AE
:101DD00002F038FE0BB0BDE8F08F00008415030858
:101DE0004040400080A0D0004AD8124DFB2109405D
:101DF00000806640000051C0000049C000804CC017
:101E0000256400004C39030853563A00C0250308E6
:101E100054656D70657261747572650070B50446C5
:101E20000D46304804F0B0F805F1DB0304F1B002D0
:101E300005F10A01A01D03F025F92B4804F0A4F8D0
:101E400005F1D40304F1AB0205F10A01A01D03F072
:101E500019F9264804F098F805F1D40304F1AB020F
:101E600005F10A01A01D03F037F805F1700291B2E7
:101E700004F1590290B2FFF797FE4FF6FF7004F09D
:101E800083F805F1220304F13A0205F10A01A01DCD
:101E900003F0F8F8164804F081F84FF47F0004F0DE
:101EA00073F8144A126802EB4202134B03EB02125E
:101EB000528802F118010F4A126802EB420203EB4A
:101EC0000212128802F10C0003F002FA0BA002F0D9
:101ED00039FD0022012107480068401C02F028FD5E
:101EE00070BD0000606060008080FF0040404000E6
:101EF000D8490308D0010020300000204E4F2E00AA
:101F000010B500221146024802F08EFE10BD0000FE
:101F1000E0A702082DE9FC470E465FEA000978D0E9
:101F200002F05EF9009090F85470D0F85880456B3C
:101F3000C46C684602F09EF9B8F1000F04D0314637
:101F400048464246904761E0122E18D006DC082E23
:101F500043D0102E3CD0112E06D112E0132E21D0EA
:101F60001D2E43D01E2E3DD0202E4FDB17B14846EC
:101F70000AF0D9FDB1B248460EF070FF60B3611CA3
:101F800027E04DB3284602F02BF905462146019083
:101F900004F06EFA4419204604F02CFA0146234658
:101FA000012210E0C5B1284602F01AF90546214683
:101FB000019004F05DFA4419204604F01BFA014632
:101FC00023464FF0FF3248460AF0EBFA01A81BE027
:101FD000611E484600F038FA18E0BCB1611E484660
:101FE00000F032FA48460AF09EFD0FE0484602F043
:101FF000F7F80090012F0ED0012180F854102146EF
:10200000484600F021FA684602F034F9484608F0E4
:102010003AFEBDE8FC87002180F85410F3E7FEB5D6
:1020200044680546204609F053FC064629462046EA
:1020300007F036FE002837D028680F2830D004DC9F
:102040000B2832D00E2853D13AE0A0F58070133817
:1020500004D0A0F580702D384AD110E0204608F059
:1020600085FF204600210FF0F4FB204602F0B8F86F
:102070000190C06F002108F05FFF01A81DE0E86833
:1020800060B1017A29B10168204600F0AFF8012162
:1020900000E00221204608F0A6FE29E00321F9E72E
:1020A000012120460FF0D5FBFEBD204602F098F836
:1020B0000090343001F0F8FF684602F0DBF817E0DA
:1020C000B6B1E8684168002912DD01681B290FD00C
:1020D00006DC09290CD00A290AD00D2904D107E011
:1020E000212905D0222903D02046FFF713FFFEBD8A
:1020F000284608F069F9FEBDF0B587B004460DF139
:10210000080CD4E90567B0F90850408A8CE8E10072
:102110000020CDE90010B4F90C00B4F91060C1182A
:10212000B4F90A00B4F90E50104433462A4600F0C0
:1021300009F8050002D0618A00F049F907B0284685
:10214000F0BD0000F0B585B00D46DDE90D640F9FD0
:10215000DDE90AC141F48051DFF870E0CDE900C14A
:102160005837CDE902E7294608F080F805002AD063
:1021700002F036F810223146049007F037FF049839
:102180001C2213496030FDF7EFFF0499012081F80C
:102190005500601C00D0012081F88000002C00DC7C
:1021A000082424B20C8700204887486304A8641CD4
:1021B00002F060F8214628460EF011FD18B92846B5
:1021C00008F036F9002505B02846F0BD1F200008AC
:1021D0008C04002038B5002430B102F001F80090E2
:1021E000846C684602F046F8204638BD2DE9F0417F
:1021F00086B00C46060050D001F0F2FF0090406B14
:1022000098B301F0EDFF03900098806E03F0C6FED6
:102210008046304608F084FA0746039803F01FF81A
:102220000546009890F8601001F00301012916D0CE
:1022300002290DD0416EC06A00680844241A641E49
:10224000039805F03BF90146002C0FDA002115E058
:10225000781B401C00EBD070A4EB6004F0E7406EEC
:10226000791B081A241A641CEAE713E0AC4205DC67
:1022700002462146039805F0C1F80146304600F0B9
:10228000E3F803A801F0F6FF404603F087FE30466E
:1022900008F0F9FC684601F0EDFF06B0BDE8F081FA
:1022A0002DE9F8431D46DDE9084916460F465FEA69
:1022B000000840D001F094FF20490090816520493A
:1022C000C1650021C0E91271E0E90F6501210472C6
:1022D00080F81A90017690F84470684601F0CAFFC1
:1022E00087B128460EF0BFF9054630460EF0BBF91F
:1022F0000CB1401C6D1C854200DD2846014640465D
:1023000000F031F8404610F015FE404601F068FF3D
:10231000009000F084F80B490978884205D10098B4
:10232000C16C4046491C00F08FF8684601F0A2FFDE
:10233000404608F0A8FCBDE8F883000065BF00082F
:10234000352F01083402002038B50D46040009D0AD
:1023500001F046FF00908566204608F094FC684630
:1023600001F088FF38BD7CB50C4606002ED001F088
:1023700037FF0090B0F93810458FA14223D012DD0D
:10238000406B80B101F02CFF019005F097F8A0425E
:1023900006DD2146019804F06BF8019A00211154E2
:1023A00001A801F067FF684601F064FF611B304639
:1023B000491C0EF014FC304601F012FF0090048717
:1023C000304608F060FC684601F054FF7CBD38B52B
:1023D0000C4605000AD001F003FF009018B1046616
:1023E000284608F050FC684601F044FF38BDF8B5B7
:1023F00015460C4606000ED001F0F2FE009038B1F2
:10240000022C05D200EB8400C566304608F03BFC88
:10241000684601F02FFFF8BD002210F051BC38B51E
:102420000546406B002468B101F0DAFE00900446D6
:10243000E96C04F01DF8204403F0DCFF0446684614
:1024400001F018FF204638BD1CB50C4601F0C8FE4F
:102450000090406BF0B101F0C3FE019005F02EF842
:10246000009991F8542002B10122002C00DA0024D6
:10247000844200DD0446B1F93800801AA04200DA37
:102480000446C86CA04200D0CC640020086501A8B6
:1024900001F0F0FE684601F0EDFE1CBD70472DE92D
:1024A000F04389B0984615460F4606004FF00004E9
:1024B00028D000F08FFB0446304600F077FB8146C1
:1024C00003A9304600F069FCF80706D0BDF91C00EE
:1024D0008221001B401B401C08E0B807BDF9180012
:1024E000284402D540F2022100E002210096CDE905
:1024F000018123461A464946FEF72EFD0446002177
:10250000FEF7C6FE09B02046BDE8F08310B50523EE
:10251000FFF7C5FF0446054A0021FEF7D9FE04492E
:10252000204608F057FD204610BD00001DCC0008D5
:10253000513F01082DE9F047044640688EB000275E
:10254000804601F04DFE0090B0F87CA0D0F8689075
:10255000D0F88060D0F88850C06D00B10768684638
:1025600001F088FE05E0696820468847002843D1CD
:102570002D68002DF7D12068172853D00CDC0F28C8
:102580003DD004DC0B2877D00D2825D18BE0112815
:1025900010D0142820D13BE0262846D004DC1E2889
:1025A00051D0202818D18AE02A2816D0B0F5107F03
:1025B00012D128E04046E56801F012FE0290697AE7
:1025C00039B9297A012904D130F87C1F41F480718E
:1025D000018002A801F04EFE75E0404601F000FEC9
:1025E0000090E16811B1C0F8841002E0D0F88400D6
:1025F000E060684601F03EFE0EB0BDE8F087D7B35C
:102600004046B8475FE0214640460EF0C9FFF3E779
:1026100005A9404600F0C1FBE068069901600799F2
:102620004160E9E7C4F80C90E6E7E0680228E3D1EE
:10263000CDF83080E0680D9027200A900AA9A068A4
:1026400009F040FBD8E7E068012804D000214046AB
:1026500000F0D8FAD0E7304608F06AFB68B130469F
:1026600008F070FD304608F045FA98B10121304677
:1026700007F0A6FB0EE026E02FE0484608F0B0FD8C
:102680000646404601F0ACFD0090C0F88060684608
:1026900001F0F0FD0121404600F0B4FA002EABD16C
:1026A0000020E060A8E75FEA0A700CD4E068C06828
:1026B00048B1007A38B1404608F044FD03E02146B5
:1026C00040460EF0CCFE2146404607F0E9FA0028CD
:1026D00092D0204607F078FE8EE7404601F080FD5C
:1026E0000090703001F0E0FC684673E7F0B587B009
:1026F000B0F908400DF10C0C0C9E876945688CE818
:10270000F000448A0025CDE900150294B0F90C10C0
:10271000B0F91050B0F90E40B0F90A001944104455
:102720002B46224600F002F807B0F0BD2DE9F04735
:102730008AB00DF14C0CDDE917849CE86006129F0D
:1027400045F48055DFF8BCC06034CDE902C4CDE962
:10275000007507F08BFD04004FD001F041FD3022E1
:102760004946049007F042FC049828222649343058
:10277000FDF7FAFC0498244FC0F86480A0F87C6050
:102780000026C0F88060C666083FC0F88860796897
:10279000C16504A801F06EFD05A9204600F0FDFA10
:1027A0001A4841F2827103960094CDE90110BDF9F7
:1027B0001E00BDF91A10BDF91C20431ABDF91800FE
:1027C0005B1C121A521C07F051FD064678684168DE
:1027D00020468847204601F003FD0490866604A841
:1027E00001F048FD42F20400054202D1204607F004
:1027F00091FE5146204600F04FFA0AB02046BDE84F
:10280000F087000035250008B0040020A130000842
:102810002DE9F041044694B0006800F0B7F908B122
:10282000D94D01E0D84D2C35606815281ED00CDC40
:102830000B281FD004DC00287ED005287DD12FE195
:102840000E287BD01228F9D141E1162806D017288E
:1028500008D0182808D01C28F0D109E0E86914B085
:10286000BDE8F081286AFAE7686AF8E7A86AF6E73F
:102870006869F4E720680B901C200C90206801F038
:10288000AFFC0390016D0BA88847064603A801F032
:10289000F1FC022E0FDB95E807008DE80700D4E974
:1028A00004023346A16904F01FFC20698719A0695E
:1028B000A0EB06082CE0286803F066FB2169E869B4
:1028C0000A18521E606902F08FFAA269E869111AAB
:1028D000491C606902F088FAD4E904077F1C394674
:1028E00002F0C4FA3946A06902F0C0FA686803F041
:1028F0004BFB20693946401C02F0B8FAA069394602
:10290000401E02F0B3FAA0692769A0F10208BF1CBB
:10291000286803F039FB42463946606902F064FAE0
:10292000686803F031FB606942463946401C02F09A
:102930005BFA686A022802E015E1B0E000E10BDD15
:10294000A86803F021FB61696A6A881C8B1801463C
:10295000424638465B1E27E0296AB14226DD60699F
:10296000022E074600F1020801DB374401E007F1BF
:102970000207206901DB304401E000F10200226916
:102980003B460A444146A2F1010202F07BFB022EC3
:1029900002DBA069821B01E0A269921EA069E969BD
:1029A0003B46401A4146401C02F06CFB022E02DB03
:1029B0006069064401E06669B61CE76928687F1E05
:1029C00003F0E2FA3A463146206902F0C3FA3A4689
:1029D0003146A06902F0BEFAE7696868BF1E03F0DD
:1029E000D3FA20693A463146401C02F0B3FAA06996
:1029F0003A463146401E02F0ADFAE869022802DC90
:102A0000286A022823DDA86A022802DDE1690F1A7C
:102A100001E0E769BF1EA86803F0B6FAE969022978
:102A200009DD20693B46421800F1020C3146604640
:102A3000521E02F027FB286A022808DDA269E86915
:102A40003B46101A3146401C921E02F01BFB2868C0
:102A500003F09AFAD4E90620216902F0C5F9686802
:102A600003F092FAD4E906202169401E491C521E47
:102A700002F0BAF9A86A022811DDA1692669E469A1
:102A8000A1F10208271AA41EB61C7F1CA86803F037
:102A90007BFA234642463946304602F0F3FA71E0AB
:102AA000208A00B2ADF81400A18A09B2ADF8161060
:102AB000228B12B2ADF81820A38B1BB2ADF81A30DE
:102AC0002C69ED68CDE9005402F05AF95AE0208AE9
:102AD000298B0844ADF81400A08AADF81600208BAD
:102AE000298B401AADF81800A08BADF81A002068A9
:102AF00001F076FB0390006FF0B1022003F090FA32
:102B0000039890F87C10C1F3C00100EB8100006CC9
:102B100003F03AFA0398406B03F040FA0398006F11
:102B200001F05EFB03990990B1F95A2005A901F063
:102B3000ABFF09A801F09EFB03A801F09BFB21E07D
:102B4000208AADF81400A08AADF81600208BADF8ED
:102B50001800A08BADF81A00A86803F015FA05A8B4
:102B600002F0B4FA0EE0206801F03AFB039030F86E
:102B70005A1F41F00C01018003A801F07BFB206883
:102B800008F056FB00206AE6EC04002038B500246B
:102B900050B101F025FB009090F87C00000700D5B3
:102BA0000124684601F066FB204638BD38B50500B3
:102BB0004FF000040CD001F013FB0090C06D002119
:102BC00080680268284690470446684601F052FB38
:102BD000204638BD30B587B005004FF000040ED058
:102BE00001A900F0DAF8284601F0FAFA0090B0F9ED
:102BF0005440684601F03EFB0CB9BDF9044007B0F3
:102C0000204630BD002801D00FF02EBC70470000D8
:102C1000074A0649054B1160064A083BD1695860CE
:102C20001B68C2E90630084670470000E004002037
:102C3000AC040020B00400202DE9FC410D46070043
:102C400028D001F0CDFA0190C16D8C6800F00CF92C
:102C500080460198456301A801F00CFB2268012120
:102C60003846904706462268032138469047054675
:102C700022680021384690470446384600F0D9F9CA
:102C80002B46324641463846009400F062F93846F9
:102C900007F0F9FFBDE8FC817CB50D46040019D0B2
:102CA00001F09EFA0090006F0190684601F0E2FA90
:102CB000294601A804F054FD00280BD0204601F05D
:102CC0008FFA009001990167684601F0D3FA204617
:102CD00007F0D9FF7CBD38B50C4605000ED001F0D9
:102CE0007FFA0090B0F95A10A14204D0A0F85A40DF
:102CF000284607F0C8FF684601F0BCFA38BD38B571
:102D00000C4605000FD001F06BFA0022009000EB9A
:102D10008201521C0C64022AF9D3684601F0AAFA17
:102D2000284607F0B0FF38BD2DE9FC470D465FEAA5
:102D300000094FF000042DD001F052FA0190B0F9D3
:102D40005440A54223D000F08FF88046019801211D
:102D5000A0F85450C06D856848462A6890470746D9
:102D60002A6803214846904706462A6800214846BB
:102D700090470546484600F05CF933463A464146DE
:102D80004846009500F0E5F8484607F07CFF01A8AA
:102D900001F070FA2046BDE8FC872DE9F34F85B0BD
:102DA00000270C46B846059801F01AFA0090C06D4D
:102DB0000121856805982A68904782462A68032180
:102DC0000598904704902A6802210598904703903F
:102DD0002A680021059890470646009808F0F6FBFF
:102DE0008346009808F0F9FB8146009890F832106D
:102DF000890601D5B0F9588000F036F805460098EC
:102E0000C06E10B107F09DFC074625806780A4F8CE
:102E100004A0049AABEB020006EB0802401E2A4411
:102E200020813A44E280039BA9EB0302521E628197
:102E3000A4F80CA020827019E681401E60826846CA
:102E400001F018FAB4F90C000190B4F910000290E6
:102E500002AA01A9059800F039F80198A08102980A
:102E6000208207B0BDE8F08F10B50146002091F830
:102E70003220920607D5B1F95400002803D1486BDF
:102E800002F012FA801C10BD70B58AB00C460546DF
:102E900001F0A6F90990C06D866809A801F0EAF969
:102EA000009534B1012C06D0022C0BD0032C04D198
:102EB0000AE0182000E016200190716868468847F3
:102EC0000AB070BD1520F7E71720F5E72DE9FC41A2
:102ED00017468846044601F083F90090C16D0568E5
:102EE00068468E6801F0C6F9326800212046904796
:102EF0000646204607F0A8FB27E000BF01F070F966
:102F00000190B0F900102AB2B0F90430891A9A1A67
:102F1000B0F90230A3EB2543B34210D190F828005A
:102F2000000605D53868884209DB491E396006E08D
:102F3000D8F80000904202DC521CC8F8002001A81A
:102F400001F098F9204607F0B3FB0400D6D1BDE8A4
:102F5000FC812DE9FF4F83B00E460746DDF8409017
:102F600001F03EF90190C16D8D68FFF77DFF0446C9
:102F700001A801F07FF92A6801213846904783466D
:102F80002A6803213846904782462A68002138463D
:102F900090470546B44207D105998B4504D106995F
:102FA0008A4501D14D4541D0A41B0026B046384684
:102FB00007F04AFB38E001F013F90090806A01063F
:102FC00001D5800502E0810528D50006002825DB13
:102FD00024B122461146384607F038FF009890F891
:102FE000280000060AD50698A5EB0902A0EB0A0006
:102FF00004FB16013846761C07F0F3FE0098008D9E
:1030000080050BD50599A5EB0902ABEB010004FB8C
:10301000080108F10108384607F0E3FE684601F0B0
:1030200029F9384607F044FB0700C4D107B0BDE8D2
:10303000F08F70B586B0064601F0D2F80590D0E961
:103040001A4505A801F016F954EA050026D069468C
:103050003046FFF7A2FEACB1BDF90620BDF9041061
:10306000204607F095FEBDF90A00BDF90610421A88
:10307000BDF90800BDF90410521C411A2046491C34
:1030800008F0F6F8002D09D0BDF90600BDF90210D0
:10309000421ABDF90410284607F07AFE06B070BD4A
:1030A0002DE9F0430446406889B0054607F007FB68
:1030B000814601F095F80290D0F84880D0F88070F1
:1030C000466E02A801F0D6F82068172853D008DC15
:1030D0000E283AD00F2811D014284CD015283DD1F5
:1030E00049E01E281ED01F282AD0222840D031288F
:1030F00034D10020E06009B0BDE8F0836FF070418A
:103100004046884503D005F061F901F091FA002EA0
:10311000F1D0D4E902122068CDE90405CDE9061208
:1031200004A81FE0E0680028E5D02FB1AF4203D02B
:10313000384608F007F8DEE7284608F051F8DAE7E5
:103140002146484606F0ACFDD5E7E0684168002915
:1031500004DD00680928EFD00A2805D05EB12046BA
:10316000C4F80490B047C6E7284608F041F8C2E723
:10317000C4F80C80BFE7204607F026F9BBE72DE92D
:10318000FF5F8346DDE90E45984691468A464FF03B
:10319000FF3601274FF4B47004F5B47405F5B47527
:1031A00003E0A4F5B474A5F5B4758442F9DA002DF2
:1031B00065DD5A2C11DA002C00DA00245A2D01DAD0
:1031C000284600E05A20CDE90040CDE9027643468A
:1031D0004A465146584609F0D3FD5A3C5A3D002D07
:1031E0004DDD5A2C14DA002C00DA00245A2D01DAB5
:1031F000284600E05A20C4F15A01C0F15A008DE877
:10320000430043464A4651465846039609F0B8FDE6
:103210005A3C5A3D002D32DD5A2C12DA002C00DACD
:1032200000245A2D01DA284600E05A200DF1040C42
:1032300000948CE8C10043464A465146584609F07E
:103240009FFD5A3C5A3D002D19DD5A2C14DA002CF2
:1032500000DA00245A2D01DA284600E05A20C4F191
:103260005A01C0F15A008DE8830043464A46514650
:103270005846039709F084FD5A3C5A3D97E7BDE84C
:10328000FF9F00002DE9F0430446C56887B09046D3
:103290008946002002F080FE064625B1287910B14B
:1032A00046F0020001E026F0020002F075FE2069FF
:1032B000012558B1D4E902128DE8260003956388F0
:1032C0002288046841464846A0471EE0124F134B2F
:1032D000214638681B68427CE068984730B9E0882E
:1032E000012801D0002001E03868806BA288E388C3
:1032F000A1680095CDE90410CDE9023201956388FB
:1033000022884146484604F051FC07B03046BDE8EB
:10331000F04302F041BE00004002002038020020CD
:103320001CB50024019401AC009400F0E7F81CBD2A
:103330002DE9FF4F83B0814606988A46A0EB0A0824
:10334000109E00200090A2EB09043568934654EAD1
:10335000080018D02046FDF767FD07464046FDF7F8
:1033600063FD87420BDA2046444680464846D146F4
:1033700082465846DDF818B0069001200090002CD7
:1033800007DD204606E007B04846BDE8F04F00F0F4
:103390003BB96042A0420AD04846D9466442C8F1CF
:1033A000000883464FF0FF37DDF818A000E0012742
:1033B0005148B8F1000F11D004EBD4714FEA610B02
:1033C00001DACBF1000B4C480068807E88B3002FF7
:1033D00002DA30682044306000257BE00099002943
:1033E000016821D0897E11B10027804615E007B021
:1033F0005A4649465046BDE8F04F04F039BD2846CC
:103400006D1C0FF01FF938B9D8F8000009EB07015F
:10341000406E4268504690477F1CA742EFDD6D1E0C
:10342000356007B0BDE8F08F8A7E1AB1002780466C
:1034300017E019E0486E5A465146036807B04846FF
:10344000BDE8F04F184728466D1C0FF0FBF838B95F
:10345000D8F8001009EB0700496E4A6851469047BA
:103460007F1CA742EFDDDAE700250FE008FB05B07F
:1034700090FBF4F101EB0A00009951B11E4A09EBEF
:1034800005011268526E526890476D1CA542EDDD31
:10349000C7E7194909EB05030968496E4A680146FF
:1034A0001846F1E708FB05B090FBF4F101EB0A00C8
:1034B00001903068384430600FF0C4F848B9009883
:1034C00090B10D4809EB05010068406E4268019813
:1034D00090476D1CA542E5DD3068002F01DA2044DD
:1034E0003060C01B30609CE7034909EB05000968A8
:1034F000496E4A680199EBE7400200202DE9FF4739
:103500000F4640491646804609680C981D460A7EBB
:10351000012A1CD0A8EB0600791B50EA01031CD03D
:10352000A2F1010910F0D2FC00F58060824604F09F
:1035300040FA00FB09F4504604F040FA00FB09F1A0
:10354000002C0CDAC4F50070801240420AE00090B2
:10355000324639464046FFF7EBFEBDE8FF8704F5EB
:103560000074A012002904DAC1F5007189124C42DE
:1035700002E001F500718C12002804DD411C01EB12
:10358000D171491003E000EBD0714910401E00EBEF
:10359000D0704210002C04DD601C00EBD070401095
:1035A00003E004EBD4704010641E04EBD47308EB0A
:1035B0000104ADF800403C18ADF80240A8EB02044D
:1035C0005B10B21AADF80440ADF808203144FC1A83
:1035D000EA1AADF80C102844ADF80A20ADF80E0038
:1035E0000023ADF806401A460421684600F07AF838
:1035F000394640460BF0BCFB294630460BF0B8FB81
:10360000ABE7000040020020064A13681A7E012A38
:1036100005D0521E02EBD272521000F005B85A6E5D
:1036200052681047400200202DE9F05F06468846A8
:1036300040F2C32002FB00F14FF47A7091FBF0F7E7
:1036400002FB02F102EBD27001EB600B1446B118E1
:10365000234A301B7F1C1268526E13680A4641468B
:103660009847012538E000BF05FB05F004FB040185
:1036700059451CDDBC4219DD194B06EB050AA6EBCA
:1036800005091B68AAF1010208EB04015B6E09F150
:1036900001001B689847124BAAF10102A8EB040134
:1036A0001B6809F101005B6E1B689847641E0C4B98
:1036B0003219301B1B68924608EB05015B6E814690
:1036C0001B689847064B5246A8EB05011B68484605
:1036D0005B6E1B6898476D1CBD42C5DDBDE8F09F61
:1036E000400200202DE9FF4F43F6FF740F4666426B
:1036F00083B09B46814600210BE000BF09EB8100AF
:10370000B0F90200A04200DA0446B04200DD0646ED
:10371000491CB942F2DB67480068406900280DD0B7
:10372000B0F906101A46A1EB0B01B14200DA0E46C1
:10373000B0F90200801AA04200DD0446B4E0DFF8D0
:1037400078A100200546CAF8000088E0781E85426E
:1037500001DA6B1C00E0002309EB850C09EB830206
:10376000BCF90200B2F90210A04244D1A14215D125
:1037700039F92330059A39F9251003EB020C4D4A2B
:1037800005981268084404EB0B01526E60451368FB
:1037900001DA62462AE00246604627E02846A4464F
:1037A0004FF000087A1E0BE008B1401E00E0781EC2
:1037B00009EB8003B3F90230634504D108F1010835
:1037C0009045F1DB2346A34248D01A1B39F9250066
:1037D000A1EB040C059B92EA0C0F09D4354A18445E
:1037E00004EB0B011268526E13680246984735E0ED
:1037F00008F056FB32E0A14230D001DBA04203DDED
:10380000A0422BDBA14229DCE04688420ADC0346C9
:10381000A04223DC0846A14220DBB8F900C0B2F97F
:10382000001008E00B46A14218DCA04216DBB2F9FA
:1038300000C0B8F90010E21AA1EB0C0151430029B5
:10384000A0EB030202DD01EB620102E0A1EB6201E9
:10385000491CC01A91FBF0F06044C9E76D1CBD42E1
:10386000FFF674AF0598009004EB0B000190002068
:103870008046054613E01149B8F1000F31F915A053
:1038800009D0009901EB0A0208440A490968496E07
:103890000B680199984788F0010850466D1C06494D
:1038A00009688D42E7DB641CB4427FF748AF07B07C
:1038B000BDE8F08F400200206C07002090AD002092
:1038C00010B5002002F05EFB6FF07F4002F05CFB61
:1038D000012002F093FB002002F098FB002002F090
:1038E0009FFB002002F058FB0448006802F056FBE2
:1038F000BDE81040002002F05DBB00003C0200204B
:103900002DE9F04102460025002600200023002476
:10391000002791F803C00CF00F0591F803C01CF0CC
:10392000100F03D091F802C04CEA050591F800C0D1
:10393000BCF1000F31D0146800202BE04FF0010CD7
:103940000CFA00F3B1F800C00CEA03069E4220D145
:1039500083004FF00F0C0CFA03F7BC4305FA03FC8D
:103960004CEA040491F803C0BCF1280F06D14FF0D3
:10397000010C0CFA00FCC2F814C00AE091F803C074
:10398000BCF1480F05D14FF0010C0CFA00FCC2F855
:1039900010C0401C0828D1D31460B1F800C0BCF19D
:1039A000FF0F34DD546800202EE000F1080C4FF0CA
:1039B000010808FA0CF3B1F800C00CEA03069E42B5
:1039C00021D183004FF00F0C0CFA03F7BC4305FA2A
:1039D00003FC4CEA040491F803C0BCF1280F05D1A4
:1039E00000F1080C08FA0CF8C2F8148091F803C032
:1039F000BCF1480F07D100F1080C4FF0010808FA9C
:103A00000CF8C2F81080401C0828CED35460BDE8E2
:103A1000F0814161704701617047000038B50121B4
:103A2000084605F075FB01213C2005F071FB0121E2
:103A3000402005F05DFB5D48406800F0E0605B49B8
:103A400048600846406840F0007048604FF4A0604D
:103A500005F062F8564800684FF47A72B0FBF2F154
:103A6000B1F1807F00D31DE021F07F40401E4FF078
:103A7000E022506150170F22002807DA13071D0EAD
:103A80004C4B00F00F04241F1D5503E013071C0EC0
:103A9000494B1C5400BF00204FF0E02290610720EA
:103AA000106100BF4FF4C040ADF8000010208DF849
:103AB000030001208DF8020069464048FFF720FF0F
:103AC000A020ADF8000010208DF8030003208DF831
:103AD000020069463A48FFF713FF4020ADF80000A6
:103AE00048208DF8030069463548FFF709FF4FF677
:103AF000FF70ADF8000010208DF8030003208DF852
:103B0000020069462F48FFF7FBFE4FF47070ADF8D6
:103B1000000010208DF8030003208DF80200694694
:103B20002648FFF7EDFE4FF48070ADF8000010203E
:103B30008DF8030001208DF8020069462048FFF748
:103B4000DFFE4FF4C050ADF8000014208DF80300E4
:103B500003208DF8020069461948FFF7D1FE4FF4A3
:103B60004060ADF8000010208DF8030001208DF8B2
:103B7000020069461148FFF7C3FE4FF6FF71114876
:103B8000FFF747FFA0210E48FFF743FF4FF4C8415E
:103B90000A48FFF73EFF4FF43C610848FFF73BFF40
:103BA0004FF410610648FFF736FF38BD00000140B2
:103BB0000000002018ED00E000E400E000100140EB
:103BC00000080140000C01402DE9F04FDFF828B15A
:103BD00091B04FF0FF35DBF80030B3F922100691B9
:103BE000DE69B3F924A0F469A189814206D8E2898B
:103BF000824203D3471AD4F8008012E0D4E901814D
:103C0000002970D00A8882426DD84D8885426AD3D7
:103C1000801A82B2486800EB8200B0F90070B0F9F7
:103C20000250781C5FD0307EA27C014600FB02F976
:103C3000207CCDE90710B3F92A60304604F010FC6F
:103C4000C0B20E90DBF8001007FB0980A37C8A6BE2
:103C50000127CDE90402CDE90273C869089AC17E43
:103C6000807ECDE90001DDE90603514603F09EFFA9
:103C7000681C18D046F0020004F0F2FBDBF80000EC
:103C8000A37C05FB0981826BCDE90273CDE90412A7
:103C9000C069089AC17E807ECDE90001DDE9060396
:103CA000514603F083FFDBF800005D46C069417EAA
:103CB000007E814214D9022E12D086F0040004F056
:103CC000CFFB2868C069027EC37E857E02FB03A10C
:103CD000437E089A0698534402FB050204F0F2F86A
:103CE0000E9804F0BDFBDBF80000627C418C1144AF
:103CF000418411B0BDE8F08F400200200448006804
:103D0000C069C06909B1027C0A60407C704700004C
:103D100040020020022008807047C06982898A42E0
:103D200002D8C2898A4210D2806880B102888A4251
:103D30000DD843888B420AD3406800EB8100A0EB8A
:103D40008200B0F90000002801DB0120704700204C
:103D5000704700002DE9F0432F4C034687B02068E0
:103D60001946B0F92A80C069C06900F082F80028BD
:103D70004ED041680088181A01EBC0054046AE7865
:103D800004F06EFB814620686A680123816BCDE9EF
:103D90000236CDE90421C169CB7E8A7ECDE90023BC
:103DA0000B7EB0F924102A78B0F9220003F0FEFE51
:103DB0002068C069477E067EB7421DD9C07E474352
:103DC0004643B8F1020F17D001F001FA804601F026
:103DD000E1F902F0D9F821682A78CB69B1F922001B
:103DE000B1F92410DB7E02FB0302CB19314404F04D
:103DF00069F8404602F0C8F8484604F031FB2068F4
:103E00006A78C369B0F922109B7E02FB03114184DA
:103E100007B0BDE8F08300004002002030B50E4C32
:103E200005460B4620682946C069C06900F021F8A4
:103E3000002810D04168008824682A1A0120E4690B
:103E400000EBC200085CA47E6043002B03D011F895
:103E500032106143196030BD40020020012008800B
:103E6000704700B5C06900F004F8002800D00120B8
:103E700000BD06E002888A4202D842888A4202D205
:103E800080680028F6D1704702490120096881F84E
:103E9000690070474002002010B50CF0E3F90448B7
:103EA000016A04480068416600F10801416110BDE3
:103EB000F0010020400200202DE9FC471C46154679
:103EC0008846814607F048FB054407F053FB04444D
:103ED000002007F089FB00281FD0114E114F12213E
:103EE0003068407C57F820000190C068426A01A801
:103EF00090475FEA000C06D02B46424649460094A4
:103F00000198E04705E023462A46414648460BF023
:103F100059FD07F001FB0028E1D1BDE8FC87000056
:103F200040020020580200202DE9F041224C0546B5
:103F30000E462068002788B920480068E06110B963
:103F400004F095F8E06100F0C5F8206080B31A49EC
:103F50001B4824310860084603F0FAFB1948006842
:103F6000854200DA0546E169731B4A1E20469342EA
:103F700001DD6E18761EAE4201DA2E460127124C84
:103F80002268516E4B68836301620B490F4B3431D9
:103F90000B60516602C880E8620008F025FB08F05B
:103FA0002FF9054821682C3048613846BDE8F0817A
:103FB000FFE70127D2E70000F00100207002002097
:103FC000BD140108740200204002002055EC0008D6
:103FD0000249096881F8680008F012B9400200201F
:103FE000F8B505460C000DD0084600F015F806009F
:103FF00010D000F0F5F8224600902DB12946FCF7CC
:10400000B3F804E00020F8BD002103F054FC68463A
:1040100000F030F93046F8BD002801D008F05AB859
:10402000704738B50546FFF7F7FF040009D000F0E8
:10403000D7F82A460021009003F03DFC684600F0C6
:1040400019F9204638BD0000024A106021F0030033
:1040500050607047E0AC002010B5002814D0044632
:104060000A48406B10F8341000290DD002290BD2F9
:10407000042101EBC4014158486807F02DFF204698
:10408000BDE810400EF0F6B810BD000020AC0020D6
:10409000002805D0034AD16B016001B14860D063AC
:1040A0007047000020AC002010B504460068FFF700
:1040B000D3FF0020206010BD70B50D4606460024D9
:1040C00005E000BF06EB8400FFF7EEFF641CAC4286
:1040D000F8DB70BD2DE9F04104460CF06BFE28487A
:1040E000E41C24F00305016C2D1DA94200D90D46E6
:1040F000C46B13E054F8042CAA420ED184B1216899
:1041000009B162684A60616809B122680A60C26BDD
:10411000A24231D12168C1632EE02468002CE9D18C
:104120008046816BC0680F1857F8040C3E1A30683F
:1041300038B100200EF008F957F8040C3E1A306828
:10414000D0B97068A84217DB3044441B3046241DA8
:104150000EF0B2F8D8F80C10491BC8F80C10D8F8BB
:1041600014102944C8F814107068401B02D031465E
:1041700007F0B2FE44F8045C2046BDE8F081000080
:1041800020AC002010B500240CF014FE0C490F20C8
:1041900001EBC002526C1AB101EBC000406C08E0A8
:1041A000401EF5D508E04168A14200D90C46806860
:1041B00010B180680028F6D1A4F10C0010BD0000F9
:1041C00020AC0020002138B10449042202EBC000D9
:1041D000496B085841680C390846704720AC0020EC
:1041E0000549CA69521CCA61496B01EBC0010A78D2
:1041F000521C0A7000F056B820AC00207CB5064670
:104200000C460846FFF708FF05001CD0DEB130461B
:10421000FFF7D8FFA04200DA04462846FFF7E0FF88
:1042200000903046FFF7DCFF0146019022460098DF
:10423000FBF79AFF684600F01DF801A800F01AF895
:104240003046FFF709FF28467CBD000010B5FFF798
:1042500099FF64220649B0F5800F04D990FBF2F073
:10426000096A484310BD096A4143B1FBF2F010BD31
:1042700020AC00200A4902684B6B52F8082C03EB73
:10428000C2021378022B03D3CB690BB15B1ECB6147
:104290001178491E11700021016008467047000026
:1042A00020AC0020002806D00349042202EBC00005
:1042B000496B08580830704720AC00202DE9FC41BC
:1042C0004FF000060B465FEA000834462BD032B1AF
:1042D00011461846FFF784FE060000D1012440462F
:1042E000FFF77EFF0090078845686846FFF7C2FF2A
:1042F000CCB9B9002846091DFFF780FF050015D08D
:10430000FFF76EFF019040F8276001A8FFF7B2FFAA
:104310004046FFF765FF009045600188491C018019
:104320006846FFF7A7FF2046BDE8FC813046FFF74F
:1043300093FE0124F7E70820FFF773BE7CB5050064
:1043400023D0FFF74DFF00904068C0B1FFF748FF52
:104350000024019005E0019800EB8400FFF7A4FE23
:10436000641C00980088A042F5DC01A8FFF782FFDA
:104370000098001DFFF798FE00990020088068460D
:10438000FFF778FF2846FFF767FE7CBD38B50024AD
:1043900030B1FFF725FF009004886846FFF76AFFF9
:1043A000204638BD38B50D46002448B1FFF718FF48
:1043B0002946009000F05BF804466846FFF75AFF74
:1043C000204638BD38B50D46002448B1FFF708FF38
:1043D0002946009000F05DF804466846FFF74AFF62
:1043E000204638BD2DE9FE43984691460D460024EF
:1043F000D0B3FFF7F5FE01900788466801A8FFF7E4
:1044000039FFBD4230D27EB33046FFF7E9FE00905F
:1044100050F825406846FFF72DFF24B12046FFF7EE
:10442000D1FE404511D04046FFF7FBFD04000CD003
:104430003046FFF7D5FE00EB850500902846FFF7D4
:1044400033FE68462C60FFF715FFB9F1000F0BD063
:1044500054B12046FFF7C4FE424649460290FBF79E
:1044600083FE02A8FFF706FF2046BDE8FE8338B5AD
:104470000D4601880024A94209D9406838B1FFF7E8
:10448000AFFE009050F825406846FFF7F3FE204647
:1044900038BD10B50024FFF7EAFF10B1FFF7A0FE0A
:1044A0000446204610BD0000F0B52D271C68B0F171
:1044B000004F08D0002600280DDA651C1D6027700B
:1044C0004042012408E0651C01261D606FF0004099
:1044D0002770491E01E00024091BC9B22AB3491EF6
:1044E000C9B222E00C46491EC9B2944205D1124C11
:1044F00027781C68651C1D602770104C54F82150EB
:1045000090FBF5F4E4B20A2C11D804FB150011B9A4
:104510000EB1641CE4B20A2C02D10124491CC9B2B8
:104520001D686F1C30341F602C700029DAD11968A7
:1045300000200870F0BD000034020020B49B030886
:1045400010B5136808290DD85C1814600022227079
:10455000054A04E000F00F040009145D5C54491E94
:10456000C9B2F7D210BD00000C2B040810B500280A
:1045700007DD0A682B24531C0B60147009680022A5
:104580000A7010BD70B506460D461446104600F080
:1045900025FE0300164804EB84010AD050F82100E0
:1045A00041688068711A2A1ABDE87040184601F007
:1045B000FFBC00EB8104A268B24201D0012200E0FE
:1045C0000022E368AB4201D0012300E000231A433C
:1045D0000CD0236943B150F82100816840686A1A01
:1045E000311A184601F0A4FCC4E9026570BD000050
:1045F00090AE002010B5C2B2CBB2D21A00D5524252
:1046000093B25B43C0F30722C1F30724121B00D50A
:104610005242000C92B2A0EB114002FB023200B2F7
:10462000002801DA404200B280B200FB002010BD39
:1046300010B50021084600F04BFE43F6FF725042D1
:10464000BDE8104013460146AFF300802DE9FC4160
:1046500007461C4615460E46042003F001FF80461F
:104660001148C068C16C006D0F4406440D440444F9
:10467000ADF80070ADF80450ADF80260ADF806403A
:10468000684606F0B1FF07E023462A463146384621
:1046900003F018FC06F040FF0028F5D1404603F077
:1046A000DFFEBDE8FC81000034020020B0F90630D6
:1046B000B0F90420B0F90210B0F90000FFF7C6BF4E
:1046C0002DE9F8431C00DDE9089816460F4605461B
:1046D00002D105F09BFF044600962E6843464A46E9
:1046E00021462846B047060035D005F083FF8146B5
:1046F000698A304605F064FB304606F0E5FD484621
:1047000006F0E2FD4FF000080CE000BFCDF800809D
:1047100055F81CCF00231A4649462846E047E0B129
:1047200006F0D2FD7F1E002FF0DC1D21484606F06A
:1047300040FC601C0ED005F08FFF30B1FFF7B2FDDA
:104740008469B44201D02000F8D1B44202D030468E
:1047500006F046FD3046BDE8F883304605F068FEB9
:104760000020F8E72DE9F0411C4616460D460746A5
:10477000022B02DB0020BDE8F0811C20FFF7AAFC21
:104780000028F8D00DB105610AE0094A52F824105A
:1047900009B905E011460A68002AFBD109690161DF
:1047A00084618682002101604160C0E90217E2E76E
:1047B0005802002070B51D46FFF7D4FF040009D051
:1047C00000F00EF8E068006820B90348006800EBCC
:1047D00085008465204670BD40020020FFF758BC6C
:1047E00070B590B38269022A30DA1E4C54F8221058
:1047F00019B944F8220032E019464B68002BFBD16E
:1048000006E0CB68C5681B682D68AB4203DD09680C
:104810000029F6D11AE0C1B1CB68C6681B683668BA
:10482000B3420CD1838A012B05D008E01946DB681E
:104830001B68AB4203DB0B68002BF7D129B14B6837
:1048400033B118604A68426004E0FFE7012070BDA0
:1048500044F822004860884200D100210160002015
:1048600070BD0000580200200EF04CBB022801DB96
:1048700000207047054951F8200004E0C16809682C
:104880000029F6D000680028F8D1704758020020AF
:10489000F8B5074615460E460C20FFF7C2FB04008C
:1048A0000AD0FFF79DFC05490090C0E9001706817A
:1048B00045816846FFF7DEFC2046F8BDE42A04087F
:1048C0002DE9F8431D461646884604000CD0FFF734
:1048D00087FC0090006807686846FFF7CBFC2B4612
:1048E000324641462046B847BDE8F88338B5040053
:1048F0004FF000000AD02046FFF772FC00900068DD
:1049000045686846FFF7B6FC2046A84738BD38B56D
:1049100004004FF000000AD02046FFF761FC009031
:10492000006885686846FFF7A5FC2046A84738BDA3
:104930001FB503ABCDF80CD0FFF7B6FD684600F00D
:1049400001F81FBD2DE9FC4706005BD000F05EFCBE
:104950003B4C81462068B0F9228000F08DFC216834
:1049600007468A8CD01B888441E000BF47F6FF7160
:10497000304602F087FD82460146304602F058FD7F
:104980002168054691F82C0000F0030001283FD073
:10499000022839D000204A8C101A4884ADF8000053
:1049A0006A1E1044ADF80400888CADF80200A9F12D
:1049B00001010844ADF806006A465146304602F04F
:1049C00073F82168BDF8020088845146304601F032
:1049D0004FFD064430780A281CD00D281AD0BDF8A7
:1049E0000000216828444884307818B1761C30785B
:1049F0000028BBD12068818C39448184818D21F0CD
:104A000003018185BDE8FC8705EBD5704010C2E746
:104A10002846C0E7206890F82C1001F00301012916
:104A20000BD0022909D0018C418431780A29DBD1CD
:104A3000828C02EB09018184D6E7A0F82280F4E79A
:104A400040020020024B1B6859849A84FFF77ABF0A
:104A5000400200202DE9F04107460A4815460E465F
:104A60000068B0F92C0040F0020001F0CFFA0446D3
:104A70002A4631463846FFF7E5FF2046BDE8F041BB
:104A800001F0C4BA4002002047F6FF73AFF3008084
:104A90002DE9FC411F46904606000D464FF00004EC
:104AA00016D065B1084606F003FC040007D00246A4
:104AB0002946684602F053FD684606F0F9FB3B467E
:104AC00042462946304602F047F8204606F0F0FB01
:104AD000BDE8FC812DE9FF4F87B09046894607006D
:104AE00079D00C68D9F8045021B228B2401A401C81
:104AF000029000F08BFB064618F00C0F1ED03846D3
:104B00000A9A029901F0BDFD08F00C01042904D0B5
:104B1000082902D00C2911D104E0291400FB161039
:104B2000401C09E02114C1EB254200FB1620401C6B
:104B300000EBD07001EB600060F31F44484606F0C4
:104B4000B7FB5FEA000B09D00246494604A8CDE94D
:104B5000044502F004FD04A806F0AAFBA6F1010A30
:104B600038460A9A029902F075FE03900AEB244037
:104B700060F31F45CDE900453846039902F058FC23
:104B800018F003010ED0012928D002290ED1B9F95D
:104B90000420B9F90010521A101A00EBD07001EB82
:104BA000600001E0B9F80000ADF800006A46384640
:104BB000039901F079FF38460A9A029902F040FE03
:104BC000074406EB244060F31F4438780028C7D11F
:104BD000584606F06DFB0BB0BDE8F08FB9F8041035
:104BE000081A401CE0E700002DE9FC4791460D4AF9
:104BF0009846DDE90A761268D36C1D18106D4418CA
:104C0000002006F0F1FC09E0CDE9007643464A4673
:104C100021462846FEF7B3FA06F07EFC0028F3D1C1
:104C2000BDE8FC87400200207CB5064610480068BD
:104C3000C36C006D5D1884183188681E0844ADF897
:104C40000400ADF800507188601E0844ADF80600FD
:104C5000ADF80240684606F0C7FC06E02246294649
:104C60003046FEF70FFB06F057FC0028F6D17CBD5E
:104C7000400200201CB50A460146684602F05BFD72
:104C80002448BDF80010006830F84C2F1144ADF8EE
:104C90000010BDF8021082881144ADF80210BDF872
:104CA000041002881144ADF80410BDF80610808885
:104CB0000844ADF80600684606F096FC27E000BF01
:104CC000BDF900400BE000BFBDF90210204603F023
:104CD0009BF8BDF90610204603F096F8A41CBDF918
:104CE0000400A042F0DABDF902400AE0BDF900007C
:104CF000214603F089F8BDF90400214603F084F849
:104D0000A41CBDF90600A042F0DA06F005FC00285C
:104D1000D6D11CBD400200202DE9F04F0C461649AB
:104D200087B00D68DDE91098E96C0F18286D8D18B3
:104D30000619C418ADF81070ADF81450ADF8126033
:104D4000ADF8164004A806F04FFC002811D0DFF89B
:104D50002CB04FF0000ACDE90098CDE902BA2B46FD
:104D600022463946304609F04DFE06F0D5FB0028B4
:104D7000F1D107B0BDE8F08F40020020717E00083D
:104D80002DE9F04F164C87B02568DDE91098EC6CE2
:104D90002718286DA5184618C418ADF81070ADF87E
:104DA0001450ADF81260ADF8164004A806F01CFCD3
:104DB000002811D0DFF82CB04FF0010ACDE900989F
:104DC000CDE902BA23462A463146384609F01AFE92
:104DD00006F0A2FB0028F1D107B0BDE8F08F00007B
:104DE00040020020B17D00082DE9FC41104F04462F
:104DF0003B68D86C4518196DADF800500E19841831
:104E0000ADF80440ADF80260ADF80660684606F003
:104E1000EBFB08E0386822463146406E03682846BE
:104E2000984706F079FB0028F4D1BDE8FC8100002A
:104E3000400200202DE9F0410B4C2568EC6C27184E
:104E4000286DA5184618C418002006F0CDFB07E011
:104E500023462A4631463846FEF762FA06F05CFBE6
:104E60000028F5D1BDE8F081400200207CB50E4D50
:104E70002A68D36C1E18106DADF804604418ADF8A4
:104E80000060ADF80640ADF80240684606F0ACFBA5
:104E900007E028682146406E42683046904706F099
:104EA0003BFB0028F5D17CBD4002002070B5094ACB
:104EB0001268D36C1C18106D4518002006F094FB86
:104EC00005E029462046FEF79FFB06F025FB00285B
:104ED000F7D170BD400200202DE9FC411C4C246834
:104EE000E66C94F818C03718206DACF1010C451829
:104EF000C418A7EB0C001644ADF8000006EB0C003C
:104F0000ADF80400A5EB0C00ADF8020004EB0C00BA
:104F1000ADF80600684606F067FB15E03246294604
:104F2000384602F045FF32462146384602F040FF3F
:104F3000621E691C384602F09BFF621E691C3046E7
:104F400002F096FF06F0E8FA0028E7D1BDE8FC8100
:104F5000400200207CB50E4B1B68DC6C2618186DD7
:104F6000ADF8006045188418ADF80460ADF8025043
:104F7000ADF80640684606F037FB06E022462946B3
:104F8000304602F075FF06F0C7FA0028F6D17CBD66
:104F90004002002070B50C46054600F029F910B11A
:104FA0000121C0E900142846BDE8704006F036BA79
:104FB00010B5044601F086FB04490968002903D0B6
:104FC0002046BDE81040084710BD000068070020DB
:104FD00030B59DB00D460446CDF870D06F2200214B
:104FE000684602F068FC64222146684607F0C4FB6C
:104FF0006846FBF7EBF81C991CAA08441C90082192
:10500000284601F068FB6846FFF7D2FF1DB030BDAF
:1050100010B5002400E0012400F004F80028FAD1C3
:10502000204610BD094810B50068002410B1804723
:1050300000B1012405F07CFA00B1012404480068A5
:1050400010B1804700B10124204610BD6402002049
:105050006002002070B51646094A1268D36C1C180D
:10506000106D4518002006F0BFFA06E032462946CA
:105070002046FEF7D9FA06F04FFA0028F6D170BDA7
:10508000400200202DE9FC410F4C2568EC6C2718EC
:10509000286DA5184618C418ADF80070ADF8045076
:1050A000ADF80260ADF80640684606F09DFA07E0EC
:1050B00023462A463146384602F004FF06F02CFA11
:1050C0000028F5D1BDE8FC8140020020B0F906308F
:1050D000B0F90420B0F90210B0F90000FFF7D2BF18
:1050E00008B50B46002805D0009281888268C088E8
:1050F00000F001F808BD10B50828029C30D008DC8B
:1051000004FB01F401280AD0022813D0042804D19A
:105110001CE0102828D020282CD0002010BD04EB43
:10512000D30003F00701105CC1F10701C84000F093
:10513000010010BD04EB93000621105C01EA43015D
:10514000C1F10601C84000F0030010BD04EB53009C
:10515000D907105C02D000F00F0010BD000910BD8F
:1051600004FB0130105C10BD481004FB003032F825
:10517000100010BD881004FB003052F8200010BD54
:10518000034951F82000C1688A6A082110470000CD
:105190005802002010B502F0C5FEBDE8104002F034
:1051A000ABBF000002490968C9694A68002110477D
:1051B00040020020024A1268D2695268104700007B
:1051C00040020020002801D005F004BA704710B555
:1051D00002F0B0FEBDE8104002F08EBF00210228B0
:1051E00002D2024951F82010084670478C0700206F
:1051F0001FB500210191029103912A210091694676
:1052000005F0D2FE039804B010BD0000024800680B
:10521000C069407E704700004002002010B9074876
:105220000068C06990F820208A7090F822200A71E6
:1052300090F82120CA7082681047000040020020C8
:1052400002F0ECB870B514460D4602F0F7FE0028E7
:1052500002D000202860206070BD02F03DB910B57A
:10526000044602F02BF901462046BDE8104002F04A
:10527000DFB801F029BA00000A490020096891F856
:105280002C2002F00C02042A07D0082A01D00C2A94
:1052900002D1C869007E40087047C869007E401E80
:1052A0007047000040020020017EC07E48437047E6
:1052B000024951F820000069006870475802002038
:1052C000024951F8200000694068704758020020E8
:1052D00070B50D460BF058FC044628460BF05CFCFC
:1052E000204370BD124810B5016821F00101016032
:1052F0001048012181601049016000680F4988420F
:1053000000D0FEE701F0FCFA0D492E20087001F0F4
:10531000E1F90C480BF000FD11F0A4F9044600215E
:10532000084600F04FFE05F009FC204610BD0000C5
:10533000002000E000300240C2A507F4CDB5E8B57A
:1053400034020020ECAC00202DE9FC4107461C464D
:1053500015460E46012000F01FFE804611480068E9
:10536000C16C006D0F4406440D440444ADF8007058
:10537000ADF80450ADF80260ADF80640684606F09E
:1053800033F907E023462A463146384602F09AFDB3
:1053900006F0C2F80028F5D1404600F0FDFDBDE85A
:1053A000FC8100004002002008B500280CD0FEF768
:1053B00017FF43F6FF7100908180C180494201814F
:1053C00041816846FEF756FF08BD000038B5134816
:1053D00000220068437C124850F8230001691148FC
:1053E000FFF7C0F9040011D01820FEF71AFE0500DF
:1053F0000ED02846A560FEF7F3FE00900460284614
:10540000FFF7D2FF6846FEF735FF04E0002038BD05
:105410002046FFF7E3F9284638BD0000400200208F
:1054200058020020B420040838B504460C4800682F
:10543000006EA04201D100F089FD2046FEF7D0FEAB
:10544000009005686846FEF715FF2046FEF704FE4B
:105450002846FFF709FA2846FFF7C0F938BD0000D3
:105460004002002038B50C4600280FD0002C0DD08B
:10547000FEF7B6FE009081882180C1886180018995
:10548000A1804089E0806846FEF7F4FE38BD000048
:1054900038B5040014D004F08DFF0B4D2868046665
:1054A0002046FEF79DFE00900068FFF799F92968F5
:1054B000002048616846FEF7DDFE02F0B1FF38BD0E
:1054C00000F044FD38BD0000400200201CB520B9AA
:1054D0000C480068006E002812D0FEF781FE009094
:1054E00044696846FEF7C6FE002C09D02046FEF748
:1054F00077FE019081688968884701A8FEF7BAFEA7
:105500001CBD00004002002001490A4600F002B81C
:1055100001F0FFFF2DE9F04387B015460C465FEA26
:10552000000842D0002000F037FD81462048006886
:10553000066E4046FEF754FE00900068806900F059
:105540000FFD074640F6FF70C44204D10098B0F941
:105550000440B0F906500098611E0289ADF804407D
:105560001144ADF808104189681E0844ADF8065092
:10557000ADF80A0004F030FE6846FEF77BFE01A895
:1055800006F032F806E02A462146404600F09AFB33
:1055900005F0C2FF0028F6D1384600F0E1FC3046A5
:1055A00000F0B2F9484600F0F7FC07B0BDE8F08320
:1055B0004002002001210174002070472DE9FE4FB8
:1055C000834619488A46194900680C9E9846407CD3
:1055D0009146002751F82040E1680968042903D06A
:1055E0002468002CF8D100E014B9FFF73FF9044615
:1055F0000121E068C26A20469047050011D0246965
:10560000A0688047401C02D1094C46F00106009674
:10561000CDE9015443464A465146584600F0F8F950
:1056200007463846BDE8FE8F4002002058020020A1
:10563000D821040838B5040018D00D480068006E61
:10564000A04201D100F082FC2046FEF7C9FD009087
:10565000406908B101F003F800980068FFF7BEF850
:105660006846FEF707FE2046FEF7F6FC38BD000050
:10567000400200202DE9FF4F0746464883B0994677
:105680000068DDF840B08A46447C43480057012852
:10569000204606DD02F0FAFC8046204602F002FDBC
:1056A00005E002F0E1FC8046204602F0E3FC0446FF
:1056B00017B302A901A8FFF7D0FDB7F90060002ECB
:1056C00000DA0026B7F90250002D00DA0025019912
:1056D000B7F904004144491E0BF030FD80460298A2
:1056E0000119B7F90600491E0BF028FDA8EB0602C8
:1056F000441B521C641C02E0002635464246B9F1A8
:10570000000F01D1C4F10009002A01DD002C03DCE7
:10571000002007B0BDE8F08F4B4629463046CDF853
:1057200000B0FFF74BFF5FEA000909D000F0B2F8C4
:105730008046484600F0E8F80027DFF860B01FE038
:105740005146059888470120E3E7E11B414502DA0D
:10575000484600F0C3F83FB1EA193146484600F028
:10576000F5F84846FFF7B2FE514605988847DBF842
:10577000001009B1002088474846FFF7C5FE47449E
:10578000A742E2DB4846FFF755FF002000F0BCF8D7
:10579000BEE700004002002078020020E007002061
:1057A0002DE9FF4F83B016460D460446FFF70EFE67
:1057B0005FEA000945D0FFF76BFE01276F70217C7F
:1057C00004F1080891B12F700698B0472146484669
:1057D000FFF748FE4846FFF7E7FD002028700698CF
:1057E000B04741464846FFF73DFE1AE00698B047ED
:1057F00021464846FFF736FE20880190A088009099
:105800002146B4F802B0B4F806A04246084600F0BB
:1058100077FA019820810098A081A4F80AB0A4F832
:105820000EA04846FFF700FE4FF0000885F8018003
:105830002F704346009731462046069AFFF71AFF1D
:1058400018B1012007B0BDE8F08F85F8008084F81A
:1058500010800020F6E738B5002460B1FEF7C0FCE8
:105860000090006800698068804703F031F80446C2
:105870006846FEF7FFFC204638BD38B5002808D042
:10588000FEF7AEFC00F1180400906846FEF7F2FC4B
:10589000204638BD38B5002418B907480068006EA6
:1058A00038B1FEF79DFC0090B0F90A406846FEF75B
:1058B000E1FC204638BD00004002002070B50546DE
:1058C0000024284607F072F8641C18B1BDE8704047
:1058D00000F068B8052CF4DB70BD000038B50C464C
:1058E00020B908480068006E00280AD0FEF778FC4E
:1058F0000090B0F90A10A14200DD44816846FEF72D
:10590000B9FC38BD40020020F8B50F4E05003068E4
:10591000046E16D00CB100F019FB04F04BFD2846C4
:10592000FEF75EFC009031680D660068FEF758FFD8
:105930006846FEF79FFC02F049FE02F071FD20462A
:10594000F8BD00F003FBFAE7400200207CB51546E5
:105950000C4620B912480068006E00281FD0FEF7E0
:105960003FFC2DB20090C58024B2848002F058FD27
:105970000098406980B1FEF733FC009A0190B2F9BB
:1059800008108180B2F90A20C28011B10AB10480E6
:10599000458001A8FEF76EFC6846FEF76BFC7CBDF7
:1059A0004002002001490A4600F002B801F0FFFF62
:1059B0007FB515460C46060028D0FEF711FC40F6D0
:1059C000FF710190CC4203D1B0F90440B0F9065008
:1059D0000289611E1144ADF80840ADF80C104189F0
:1059E000681E0844ADF80E00ADF80A5001A8FEF795
:1059F00041FC02A805F0F8FD06E02A4621463046A3
:105A000000F048F905F088FD0028F6D17FBD0000C0
:105A10002DE9FF4FDFF8E8B083B01C46DBF800103B
:105A2000DDE9106092464FF000084B7C4246129927
:105A3000FEF798FE050060D028698068804702F074
:105A400047FF81460AFB09F1C91DCF08FEF7FEFB9F
:105A5000F10705D1C11700EB9170801000EB4000F9
:105A6000002C09DC1FB11838B0FBF7F000E0002073
:105A70006442A04200DC0446F00707D10090DDE953
:105A800003012346524600F073FD8046002C03DCE0
:105A90002846FEF7A3FE30E004FB07F01830F107BC
:105AA00002D0FEF7B9FA01E0FEF7BBFA06001CD0FF
:105AB000FEF796FB01900560039981800499C180EF
:105AC000A0F808A04481C0F81480C0E9037901A8B7
:105AD000FEF7D0FB1298AE602861DBF80000407C36
