:020000040800F2
:1000000078BA0020010100084F970008798600089F
:100010004D970008C910000801A100080000000069
:10002000000000000000000000000000099D000822
:100030001514000800000000E59800080B9D00085A
:100040001B0100081B0100081B0100081B01000820
:100050001B0100081B0100081B0100081B01000810
:100060001B0100081B0100081B010008B512000855
:100070001B0100081B0100081B0100081B010008F0
:100080001B0100081B0100081B0100081B010008E0
:100090001B0100081B0100081B0100081B010008D0
:1000A0001B0100081B0100081B0100081B010008C0
:1000B0001B0100081B0100081B0100081B010008B0
:1000C0001B0100081B0100081B0100081B010008A0
:1000D0001B0100081B0100081B0100081B01000890
:1000E000051C00081B0100081B010008DFF80CD0EC
:1000F00000F08CFC00480047255E010878BA00201B
:100100000648804706480047FEE7FEE7FEE7FEE7B1
:10011000FEE7FEE7FEE7FEE7FEE7FEE7999D000843
:10012000ED000008202A04DB203A21FA02F0002129
:10013000704721FA02F3D040C2F1200291400843F7
:100140001946704710B5431A934209D2831888188C
:1001500003E010F8011D03F8011D521EF9D210BD75
:1001600040EA01039B0703D009E008C9121F08C039
:10017000042AFAD203E011F8013B00F8013B521EB9
:10018000F9D210BDD2B201E000F8012B491EFBD21A
:1001900070470022F6E710B513460A460446194692
:1001A000FFF7F0FF204610BD421C10F8011B00298C
:1001B000FBD1801A704730B504460020034600E0AA
:1001C0005B1C934203D2E05CCD5C401BF8D030BD99
:1001D000034611F8012B00F8012B002AF9D118462B
:1001E0007047F0B480EA0102D40F4200B2EB410F35
:1001F00002D20246084611464A0042D0C30DDDB283
:10020000C1F3C752AD1A202D35DAC1F3160141F4FE
:10021000000204B15242C5F1200602FA06F12A4159
:100220001044B3EBD05F23D0C4B1012DA0EBC35079
:1002300009DCF0BC4FF0004202EAC35200F50000B6
:10024000DBB200F043BB400000F1807000EBC35014
:10025000A0F1807040EAD170490009E0490841EA04
:10026000C071A0EBC35000F50000400800EBC35084
:10027000F0BC00F022BB6142012202EB4101001BF5
:10028000F6E7F0BC704781F00041AAE780F000403B
:10029000A7E780EA010210B502F00043400026D033
:1002A0004A0023D04FEA106101EB1261C0F35600FF
:1002B000C2F3560240F4000042F40002A0FB022008
:1002C000A1F17F014FEA0040140401D000F10100C8
:1002D00050EA124001D44000491EC2B20C0604EBA1
:1002E000D010401C4008802A02D003E0002010BD3E
:1002F00020F00100002900DA0020184310BD30B4BE
:1003000080EA010202F0004530F0004221F0004096
:1003100015D0A0B1C0F3C753C2F3C754C2F316013E
:10032000C0F31600E41A41F4000140F400027D34E9
:10033000914201D3641C00E04900002C02DA30BC79
:10034000002070474FF400000023914201D3891A26
:10035000034340084FEA4101F7D151B1914202D124
:100360004FF0004105E002D24FF0010101E06FF0D3
:10037000010103EBC450284430BC00F09EBA420097
:1003800005D0C0F3C7525242914201DC00207047B1
:1003900000EBC15070472DE9FE4F804681EA030013
:1003A000C00F0C46009021F0004123F00045B8EB4F
:1003B0000200A94105D24046214690461C460B4604
:1003C000024623F00040104304D14046214603B0CA
:1003D000BDE8F08F270DC7F30A00C3F30A5102905E
:1003E000401A0190402866DAC3F3130040F4801BE2
:1003F0000098924620B10023D2EB030A63EB0B0B6B
:1004000001985946C0F14002504600F035FA0646C0
:100410000D4650465946019A00F03DFA10EB08008F
:100420006141002487EA115284EAE7731A433BD002
:10043000009A3AB3019A012A4FEA075210DC001BD6
:1004400061EB02014FF0004202EA0752CDE900429F
:10045000001C41F5801132462B4600F071FAB6E7D8
:10046000001B61EB0201001C41F5801300185B4189
:100470002018A2F5001747EB030140EAD570B61922
:100480006D4111E06D084FEA360645EAC0754FEA46
:100490000752001B61EB0201001C41F58011490865
:1004A0004FEA30000019514132462B4603B0BDE8F7
:1004B000F04F00F038BA0098012240000023D0EB42
:1004C000020263EBE073009821464FEAE074B8EB58
:1004D000000061EB0401E9E783F000435BE781F092
:1004E000004158E72DE9FE4F81EA030404F000447F
:1004F00021F0004100944FF0000B23F0004350EA3C
:10050000010402D052EA030404D10020014603B0E2
:10051000BDE8F08FC3F30A54C1F30A552C44A4F28A
:10052000F3340194A0FB0254C1F3130141F4801190
:10053000C3F3130343F4801301FB024400FB034E97
:10054000840A970A44EA815447EA8357A4FB076860
:1005500002958D0A05FB07854FEA932C04FB0C548A
:100560002705029D4FEA065847EA1637B5EB0805FE
:100570006EEB070C870E920E47EA811742EA831250
:10058000A7FB0201B6EB0B0164EB00042B0D43EA61
:100590000C335E1844EB1C50DA465146E7FB02016F
:1005A000C5F313044FEA0B3343EA14534FEA043202
:1005B000019C43EA0603A4F10C040294009CCDE9DB
:1005C00000B400F0BDF9A2E72DE9F04D81EA030483
:1005D00004F0004B21F0004514464FF0000A23F0D0
:1005E000004150EA050220D054EA01021DD0C5F3B3
:1005F0000A570246C5F31303C1F31300C1F30A56A9
:1006000040F4801543F48013A7EB0608101BD64670
:1006100008F2FD3873EB050002D308F1010801E090
:1006200092185B41B8F1000F03DA00200146BDE8E3
:10063000F08D00204FF48011064684460EE0171B13
:1006400073EB050705D3121B63EB050306434CEA66
:10065000010C49084FEA300092185B4150EA01074B
:10066000EDD152EA030012D082EA040083EA0501C8
:10067000084303D100224FF0004308E0101BAB41B8
:1006800002D20122002302E06FF0010253101AEBA4
:1006900006004CEB085110EB0A0041EB0B01BDE8E2
:1006A000F04D00F040B970B521F0004303430CD089
:1006B000C1F30A550024D5EB040564EB0403D617F7
:1006C000AD1AB34102DB0020014670BD201841EB9A
:1006D000025170BDC10F80EAE0700844CA0796233A
:1006E000002100F0F3B896230022114600F0EEB886
:1006F0000EB5C10F80EAE0700844CA07002140F23D
:1007000033438DE80E000A460B4600F019F903B09A
:1007100000BD0EB540F2334102910021CDE9001138
:100720000A460B4600F00CF903B000BD00F0004291
:1007300020F00040C10DC0F3160040F400007F29F6
:1007400001DA00207047962903DCC1F19601C84008
:1007500001E096398840002AF4D04042704720F0EA
:100760000040C10DC0F3160040F400007F2901DAFB
:1007700000207047962903DCC1F19601C8407047FC
:1007800096398840704770B5C1F30A5201F00045B0
:100790000024C1F3130140F2FF3341F480119A4267
:1007A00001DA002070BD40F233439A42A2F2334294
:1007B00003DC5242FFF7B6FC00E090402C43F1D03E
:1007C000404270BD00F0004230F000400AD0C10D40
:1007D00001F56071C0F3160042EA0151C2084007FA
:1007E0001143704700200146704701F0004330B4C8
:1007F00021F0004150EA010206D00A0DA2F5607214
:10080000C1F31301002A02DC30BC00207047440F02
:1008100044EAC104C100E01830BC00EBC25000F053
:100820004CB80000002801DBC0F10040002901DBCA
:10083000C1F1004181427047002801DBC0F1004056
:10084000002901DBC1F100418842704730B50B46F9
:10085000014600202022012409E021FA02F59D42F0
:1008600005D303FA02F5491B04FA02F52844151EC4
:10087000A2F10102F1DC30BD202A04DB203A00FAAB
:1008800002F1002070479140C2F1200320FA03F3E7
:10089000194390407047202A06DBCB17203A41FAD3
:1008A00002F043EAE07306E041FA02F3D040C2F1FD
:1008B000200291400843194670470029A8BF70479D
:1008C000401C490008BF20F00100704710B4B0FA86
:1008D00080FC00FA0CF050EA010404BF10BC704721
:1008E00049B1CCF1200421FA04F411FA0CF118BF3B
:1008F000012121430843A3EB0C01CB1D0106000A93
:10090000002BBEBF002010BC704700EBC35010444A
:100910000029A4BF10BC7047401C490008BF20F04C
:10092000010010BC704710B5002B08DA401C41F1E3
:10093000000192185B411A4301D120F0010010BD63
:100940002DE9F04D92469B4611B1B1FA81F202E0D9
:10095000B0FA80F220329046FFF78EFF04460F4631
:1009600040EA0A0041EA0B0153465A46084303D1C4
:1009700020463946BDE8F08D114653EA010015D0F6
:10098000C8F140025046FFF7CDFB05460E465046E3
:1009900059464246FFF770FF084301D0012000E0AE
:1009A0000020054346EAE0762C4337430A984FEA95
:1009B0004453A0EB08004FEAD4240A304FF0000261
:1009C00044EA47544FEAD72502D500200146D1E733
:1009D000010510196941DDE9084500196941BDE8C3
:1009E000F04DA0E730B5002904DB4FF00044404251
:1009F00064EB0101002B04DB4FF00044524264EB36
:100A00000303994208BF904230BD0000064C074DD9
:100A100006E0E06840F0010394E8070098471034CE
:100A2000AC42F6D3FFF766FB14E2030834E2030896
:100A300070B501EB020410F8015B15F0070301D15A
:100A400010F8013B2A1106D110F8012B03E010F831
:100A5000016B01F8016B5B1EF9D12B0705D4002354
:100A6000521E0FD401F8013BFAE710F8013B02F1E6
:100A70000202A1EB030303E013F8015B01F8015B41
:100A8000521EF9D5A142D6D3002070BD70B50446E0
:100A900000688168C943C9071CD1816821F0010140
:100AA000816006F0ABFF05460FE000BF06F0A6FF31
:100AB000401B022809D9A06A40F01000A062E06A39
:100AC00040F00100E062012070BD20688068C043F2
:100AD000C007EBD0002070BD10B50146406A826AA5
:100AE00012F0500F05D0006A026BBDE810400846B6
:100AF0001047816A41F40071816201688968C1F31D
:100B0000424107290CD1C16851B9816A21F4807131
:100B10008162816AC90403D4816A41F00101816262
:100B200006F000FA10BD10B5406A816A41F040013C
:100B30008162C16A41F00401C16206F0F9F910BD99
:100B400010B5406A06F0F3F910BD0000F8B50026B4
:100B50000446009600688168C943C90728D08168A7
:100B600041F001018160134813490068B0FBF1F0C6
:100B700000E0401E00900028FBD106F03FFF054634
:100B800011E000BF06F03AFF401B02280BD9A06A13
:100B900040F01000A062E06A40F00100E06284F8DA
:100BA00024600120F8BD20688068C043C007E9D1F7
:100BB0000020F8BDC001002040420F00002800DCEA
:100BC0004042704738B5456804460146284609F05A
:100BD000ACFA00282BD02068304A11280DD006DC52
:100BE0000B2825D00E2833D00F2852D112E0282808
:100BF00049D0B0F5107F4CD108E09268002A16D099
:100C00002146284601B0BDE830401047214628461D
:100C10005268F7E7284602F01BFD0090406E04681A
:100C2000684602F05FFD002C01D02846A04738BD81
:100C3000284602F00DFD0090683002F06DFC00982F
:100C400003216C3002F070FC684602F04BFD20E09E
:100C5000E168486809680D2902D0202913D105E010
:100C6000002810DD284610F021FD06E0002804DDF4
:100C70002846BDE8384010F019BD2846BDE8384088
:100C8000022110F029BDE06818B90021284600F0C3
:100C9000BAF92046BDE8384009F0CCBD94020020E6
:100CA0002DE9FF410AAF97E87000002703958DE812
:100CB000D00000F003F804B0BDE8F081F0B585B0D5
:100CC0000DF1280C9CE8F0004FF0000C8DE8F010BE
:100CD00000F024F805B0F0BDF0B5044685B0806999
:100CE000B4F90850668A0027CDE90265CDE90017FE
:100CF0000490B4F90C00B4F91060C118B4F90A00FA
:100D0000B4F90E50104433462A4600F007F8054661
:100D1000616800F097F905B02846F0BDF0B585B0E0
:100D20000C46DDE90D51DFF854C04C31DDE90A67AE
:100D3000CDE902C12146CDE9006709F0CDFC0400F0
:100D400018D002F085FC10222946049009F092FB8D
:100D5000049830220A493430FFF7F4F9084D049919
:100D60000C3D2868486604A802F0BCFC286841686D
:100D70002046884705B02046F0BD0000C50B00089E
:100D8000A0020020F0B5044680688B4989B051F874
:100D90002050606800287DD0052804D006287AD02D
:100DA000122879D1AEE0E86900284FD095E80E000E
:100DB0008DE80F0004F110010FC905F037FB002684
:100DC00055F8260004F048FAA169E8690A1A216971
:100DD00001446069304403F091F9A169E8690A1A95
:100DE00021690144E069801B03F088F9E169E86941
:100DF0000A1A616901442069304403F035FAE16957
:100E0000E8690A1A61690144A069801B03F02CFAA1
:100E1000761C022ED4DBA86804F01EFAE069E969AA
:100E20006669431A206942183144801C521E03F03F
:100E300091FAE169E869A2690B1A61690144101A23
:100E4000401C921E03F086FAEE6913E05FF0000684
:100E500055F8260004F000FAE069831BA069821BA4
:100E6000606981192069304403F0C0F9761C022EB4
:100E7000EEDB0226D5E90301CDE900016169E069F5
:100E800008444310A069891C821B2069304403F088
:100E900001F902E089E012E08AE0D5E90501CDE937
:100EA0000001E36960690121184401EB6001A06958
:100EB0009B1E821B2069304403F0ECF878E0206828
:100EC00002F0C6FB049020680AF02AFF40B1A06837
:100ED00008B1002008E00498006F28B1012003E069
:100EE0000498406F00B10220049901EB8000C56EA8
:100EF00004A802F0F7FB00231A462846216802F0F6
:100F000069FE55E0206802F0A3FB0490866EEEB304
:100F1000B0F95C70A168D1B3032942D05FF0000141
:100F200000EB8101406D0C6C04F0A0F9204604F048
:100F300093F905A803F0AEFABDF81410A88B01448C
:100F4000ADF81410BDF81810081AADF81800BDF867
:100F50001600801CADF81600BDF81A00801EADF812
:100F60001A000498B0F96020B0F95E1005A804F0EA
:100F70005BF804A802F0B6FB022004F0B9F9304691
:100F800002F066FB3A4605A9079001E00BE006E097
:100F900002F004FF0DF11C0002F0A4FB08E00121A7
:100FA000BEE70221BCE704A8F6E720680AF068FB68
:100FB00009B00020F0BD0000384C0308044A034982
:100FC000116004494A6A486210467047D002002006
:100FD00094020020A002002000294FF0100101D04F
:100FE00009F033B909F08DB838B50D46040009D0C1
:100FF00002F02EFB00904565684602F073FB204628
:101000000AF069F838BD4FF480720029114601D00A
:1010100009F01BB909F075B808B50023009300F07A
:1010200001F808BD70B516460C460546194630460F
:10103000049A02F0B7FD024621462846BDE87040FA
:1010400000F028B82DE9FF410E4605004FF00104DD
:101050001CD002F0FDFA0190876E01A8009702F003
:1010600041FB3146684605F0EBFC78B1009800245E
:10107000B84208D0284602F0EBFA01900099816648
:1010800001A802F02FFB28460AF025F804B02046FC
:10109000BDE8F081F8B515460C46060013D002F005
:1010A000D7FA0090032C0BD200EB84006C3002F0D6
:1010B00033FA009800EB8400C56630460AF00BF85E
:1010C000684602F00FFBF8BDFEE700002DE9FF4780
:1010D0000446006810B10AF023FE68B100223148CE
:1010E00050F8221060680A2841D007DCF0B30628C7
:1010F0000DD0072854D106E00122F0E712280AD0CB
:1011000019284DD137E020460CF0C0F948E02046C0
:101110000DF0F0FA44E0206802F09AFA0290B0F97B
:10112000548090F85650476C466B02A802F0DAFAE9
:10113000206800F039F88146684609F073FCBDF874
:10114000001009EB05000844ADF80000246A3046A1
:1011500004F08CF8022004F0CBF8384604F07CF858
:1011600042466946204602F019FE19E007E0204693
:101170000DF004FD14E0886904B0BDE8F087206834
:101180000AF07EFA206802F063FA0390B0F90610C4
:10119000B0F90220891A491CC16703A802F0A2FA1B
:1011A0000020E9E7484C030838B502F051FA0090F6
:1011B000C46F684602F096FA204638BD044A0349D7
:1011C00011600449CA69C861104670475C03002079
:1011D000940700209807002000B589B024216846B4
:1011E000FEF7D7FF19200190034800688068416826
:1011F0006846884709B000BD940700202DE9FC47E8
:10120000134C06469846174689460A9D206809F001
:10121000B7FF002819D1C4E9015004F10C05334689
:10122000A5F800806880CDE900970A4A10210A4895
:1012300002F0D0FB206009F0A5FF08484FF4806160
:10124000C0E900162168C0E90215BDE8FC8700006E
:10125000AC0100202D520108B4C10208780B002017
:101260001CB509F0FBFB0346002000900190034AE7
:101270000321034802F0AEFB1CBD000059410108E8
:10128000908B01081CB509F0E9FB03460020009093
:101290000190054A5921054802F09CFB0449086069
:1012A000BDE81C4009F05EBE11420108F8B7020813
:1012B0009C010020014805F0D1BF000080090020FA
:1012C00010B5046863604368102B036803D099600D
:1012D0000068C26010BD9A600068C16010BD000067
:1012E000F8B50546006802F0B3F90090448ED0F8D6
:1012F0008860684602F0F6F906B1012604F00104A0
:1013000028680AF00DFD0EB1002006E00CB10120A6
:1013100003E008B1022000E003201B4951F820102F
:10132000686858B302280CD0052802D0122828D1AA
:1013300003E028460CF0D6F823E028460EF00BF820
:101340001FE06A69E8694FF0FF33801AA0F10802D4
:1013500003EB6204421CAB69001B4510A3EB620661
:10136000C86903F079FF06E03219311B284602F004
:10137000C5FE641E6D1C002CF6DA02E028680AF037
:101380007FF90020F8BD0000504C0308044A0349CF
:10139000116004490A6B086310467047A8030020D7
:1013A000D4070020D807002038B50D46002402F0ED
:1013B0004FF90090C06B294602F0C4F90546684613
:1013C00002F090F91DB1284602F042F90446204689
:1013D00038BD00001FB54FF6FF700090002001904F
:1013E000012002906946024806F000FA1FBD000085
:1013F000000C01401FB54FF6FF70009001200190D6
:10140000032003906946024806F0F0F91FBD000072
:10141000000C0140704700002DE9F04F81468FB06D
:101420008846062003F052FF022003F061FF5B486C
:1014300003F01CFF4FF47F0003F00EFF4FF4B47174
:101440000020CDE900014F231A464146484602F0EC
:1014500055FD00254846FFF75CF9CDE904014046FB
:10146000FFF757F9CDE9020105EB850A6FF01D0181
:1014700001EB4A00FFF73CF9494A4A4BFFF732F8C3
:101480000022494BFFF7A0F8FFF7AFF9DDE904614F
:101490000F46FFF797F901910446079114F022FADD
:1014A000DFF808B100225B46FFF71CF832463B46E6
:1014B000FEF771FFFFF767F90890DDE902610F465B
:1014C0002046079914F034FD00225B46FFF70AF826
:1014D00032463B46FEF75FFFFFF755F90646E80741
:1014E00009D0032003F0F2FE3146089802F068FEAE
:1014F000E80702D034E00520F4E7DDE904610F4697
:101500002046019914F0EEF90022294BFEF7EAFF7C
:1015100032463B46FEF73FFFFFF735F9DDE9027142
:1015200083460E462046019914F002FD0022214B0D
:10153000FEF7D8FF3A463346FEF72DFFFFF723F9B3
:101540001421044601EB8A021BA10CA812F064FAD4
:101550000C2003F0C3FE224659460CA802F004FCFE
:101560006D1C182D80DD154803F080FE08F1320255
:10157000A9F1250112A002F0EFFB124803F076FE5C
:10158000002003F069FE08F11702A9F121010EA065
:1015900002F0E2FB0FB0BDE8F08F000004CA0208C1
:1015A0004AD8124DFB21094000806640008051C09E
:1015B00000004AC000804DC025640000CCED020848
:1015C00053563A0040DA020854656D7065726174D2
:1015D0007572650070B504460D46204803F03CFE68
:1015E00005F10A0105F1D40304F1AB020E46A01D7A
:1015F00002F0B0FE05F1700081B204F1580080B233
:10160000FFF70AFF4FF6FF7003F026FE05F12203F5
:1016100004F13A023146A01D02F09CFE104803F08E
:1016200025FE4FF47F0003F017FE0E4CA06800EB80
:10163000400104F10C0000EB0110418800881831D2
:101640000C3002F0ADFF08A002F006FBA068BDE878
:10165000704000220121401C02F0F4BA8080FF009B
:1016600058FE02080C0000204E4F2E0000221146AA
:10167000014802F063BC0000E4B702082DE9FC4712
:101680000E465FEA000978D001F0E2FF009090F882
:101690005470D0F85880456BC46C684602F022F84C
:1016A000B8F1000F04D0314648464246904761E009
:1016B000122E18D006DC082E43D0102E3CD0112E4E
:1016C00006D112E0132E21D01D2E43D01E2E3DD068
:1016D000202E4FDB17B148460BF04DFCB1B2484607
:1016E0000FF01CFD60B3611C27E04DB3284601F0EC
:1016F000AFFF05462146019004F01EF8441920462C
:1017000003F0DCFF01462346012210E0C5B1284664
:1017100001F09EFF05462146019004F00DF84419A2
:10172000204603F0CBFF014623464FF0FF324846E8
:101730000BF05FF901A81BE0611E484600F038FA83
:1017400018E0BCB1611E484600F032FA48460BF082
:1017500012FC0FE0484601F07BFF0090012F0ED0F5
:10176000012180F854102146484600F021FA6846CD
:1017700001F0B8FF484609F0AEFCBDE8FC87002147
:1017800080F85410F3E7FEB54468054620460AF099
:10179000C7FA06462946204608F0C7FC002837D07D
:1017A00028680F2830D004DC0B2832D00E2853D103
:1017B0003AE0A0F58070133804D0A0F580702D3881
:1017C0004AD110E0204609F0F9FD2046002110F032
:1017D00055F9204601F03CFF0190C06F002109F04F
:1017E000D3FD01A81DE0E86860B1017A29B1016864
:1017F000204600F0AFF8012100E00221204609F068
:101800001AFD29E00321F9E70121204610F036F9FD
:10181000FEBD204601F01CFF0090343001F07CFE3C
:10182000684601F05FFF17E0B6B1E868416800293B
:1018300012DD01681B290FD006DC09290CD00A290A
:101840000AD00D2904D107E0212905D0222903D08F
:101850002046FFF713FFFEBD284608F0EBFFFEBD54
:10186000F0B587B004460DF1080CD4E90567B0F96E
:101870000850408A8CE8E1000020CDE90010B4F95E
:101880000C00B4F91060C118B4F90A00B4F90E5094
:10189000104433462A4600F009F8050002D0618A58
:1018A00000F049F907B02846F0BD0000F0B585B05A
:1018B0000D46DDE90D640F9FDDE90AC141F4805159
:1018C000DFF870E0CDE900C15837CDE902E72946DD
:1018D00008F002FF05002AD001F0BAFE10223146BE
:1018E000049008F0C7FD04981C2213496030FEF7ED
:1018F00029FC0499012081F85500601C00D00120CA
:1019000081F88000002C00DC082424B20C87002021
:101910004887486304A8641C01F0E4FE2146284679
:101920000FF0BFFA18B9284608F0B8FF002505B037
:101930002846F0BD871700086404002038B500244D
:1019400030B101F085FE0090846C684601F0CAFE5B
:10195000204638BD2DE9F04186B00C46060050D037
:1019600001F076FE0090406B98B301F071FE039099
:101970000098806E03F07AFC8046304609F0F8F853
:101980000746039802F0D3FD0546009890F86010D2
:1019900001F00301012916D002290DD0416EC06A61
:1019A00000680844241A641E039804F0F7FE0146F8
:1019B000002C0FDA002115E0781B401C00EBD070E2
:1019C000A4EB6004F0E7406E791B081A241A641C2B
:1019D000EAE713E0AC4205DC02462146039804F036
:1019E0007DFE0146304600F0E3F803A801F07AFEE0
:1019F000404603F03BFC304609F06DFB684601F0C1
:101A000071FE06B0BDE8F0812DE9F8431D46DDE921
:101A1000084916460F465FEA000840D001F018FE5C
:101A20002049009081652049C1650021C0E91271FB
:101A3000E0E90F650121047280F81A90017690F8B0
:101A40004470684601F04EFE87B128460EF085FFCF
:101A5000054630460EF081FF0CB1401C6D1C8542DE
:101A600000DD28460146404600F031F8404611F0BE
:101A70005FFB404601F0ECFD009000F084F80B495C
:101A80000978884205D10098C16C4046491C00F095
:101A90008FF8684601F026FE404609F01CFBBDE8C1
:101AA000F8830000B5C30008313101080C020020A2
:101AB00038B50D46040009D001F0CAFD00908566D6
:101AC000204609F008FB684601F00CFE38BD7CB5E5
:101AD0000C4606002ED001F0BBFD0090B0F9381086
:101AE000458FA14223D012DD406B80B101F0B0FDE3
:101AF000019004F053FEA04206DD2146019803F058
:101B00001BFE019A0021115401A801F0EBFD68466B
:101B100001F0E8FD611B3046491C0FF0C2F9304668
:101B200001F096FD00900487304609F0D4FA68462B
:101B300001F0D8FD7CBD38B50C4605000AD001F097
:101B400087FD009018B10466284609F0C4FA68467B
:101B500001F0C8FD38BDF8B515460C4606000ED09C
:101B600001F076FD009038B1022C05D200EB840024
:101B7000C566304609F0AFFA684601F0B3FDF8BD1E
:101B8000002211F09CB938B50546406B002468B1BD
:101B900001F05EFD00900446E96C03F0CDFD2044A9
:101BA00003F08CFD0446684601F09CFD204638BDDC
:101BB0001CB50C4601F04CFD0090406BF0B101F0FB
:101BC00047FD019004F0EAFD009991F8542002B11C
:101BD0000122002C00DA0024844200DD0446B1F921
:101BE0003800801AA04200DA0446C86CA04200D037
:101BF000CC640020086501A801F074FD684601F07E
:101C000071FD1CBD4FF4805005F0E4BDFEE72DE9E9
:101C1000F04389B0984615460F4606004FF0000481
:101C200028D000F08FFB0446304600F077FB814659
:101C300003A9304600F069FCF80706D0BDF91C0086
:101C40008221001B401B401C08E0B807BDF91800AA
:101C5000284402D540F2022100E002210096CDE99D
:101C6000018123461A464946FFF71AF80446002127
:101C7000FFF7B2F909B02046BDE8F08310B505239F
:101C8000FFF7C5FF0446054A0021FFF7C5F90449DF
:101C9000204609F0C7FB204610BD00006DD00008AB
:101CA000454101082DE9F047044640688EB0002701
:101CB000804601F0CDFC0090B0F87CA0D0F8689090
:101CC000D0F88060D0F88850C06D00B107686846D1
:101CD00001F008FD05E0696820468847002843D1E7
:101CE0002D68002DF7D12068172853D00CDC0F2861
:101CF0003DD004DC0B2877D00D2825D18BE01128AE
:101D000010D0142820D13BE0262846D004DC1E2821
:101D100051D0202818D18AE02A2816D0B0F5107F9B
:101D200012D128E04046E56801F092FC0290697A01
:101D300039B9297A012904D130F87C1F41F4807126
:101D4000018002A801F0CEFC75E0404601F080FC65
:101D50000090E16811B1C0F8841002E0D0F884006E
:101D6000E060684601F0BEFC0EB0BDE8F087D7B376
:101D70004046B8475FE0214640460FF06BFDF3E771
:101D800005A9404600F0C1FBE0680699016007998B
:101D90004160E9E7C4F80C90E6E7E0680228E3D187
:101DA000CDF83080E0680D9027200A900AA9A0683D
:101DB0000AF0B0F9D8E7E068012804D000214046D5
:101DC00000F0D8FAD0E7304609F0DAF968B13046C9
:101DD00009F0E0FB304609F0B5F898B10121304632
:101DE00008F033FA0EE026E02FE0484609F020FC28
:101DF0000646404601F02CFC0090C0F88060684622
:101E000001F070FC0121404600F0B4FA002EABD185
:101E10000020E060A8E75FEA0A700CD4E068C068C0
:101E200048B1007A38B1404609F0B4FB03E02146DE
:101E300040460FF06EFC2146404608F076F9002837
:101E400092D0204608F0F6FC8EE7404601F000FCF8
:101E50000090703001F060FB684673E7F0B587B022
:101E6000B0F908400DF10C0C0C9E876945688CE8B0
:101E7000F000448A0025CDE900150294B0F90C1059
:101E8000B0F91050B0F90E40B0F90A0019441044EE
:101E90002B46224600F002F807B0F0BD2DE9F047CE
:101EA0008AB00DF14C0CDDE917849CE86006129FA6
:101EB00045F48055DFF8BCC06034CDE902C4CDE9FB
:101EC000007508F009FC04004FD001F0C1FB30227E
:101ED0004946049008F0CEFA049828222649343066
:101EE000FEF730F90498244FC0F86480A0F87C60B5
:101EF0000026C0F88060C666083FC0F88860796830
:101F0000C16504A801F0EEFB05A9204600F0FDFA2A
:101F10001A4841F2827103960094CDE90110BDF98F
:101F20001E00BDF91A10BDF91C20431ABDF9180096
:101F30005B1C121A521C08F0CFFB064678684168F9
:101F400020468847204601F083FB0490866604A85B
:101F500001F0C8FB42F20400054202D1204608F01D
:101F60000FFD5146204600F04FFA0AB02046BDE86A
:101F7000F0870000A51C0008880400201128000834
:101F80002DE9F041044694B0006800F0B7F908B1BB
:101F9000D94D01E0D84D2C35606815281ED00CDCD9
:101FA0000B281FD004DC00287ED005287DD12FE12E
:101FB0000E287BD01228F9D141E1162806D0172827
:101FC00008D0182808D01C28F0D109E0E86914B01E
:101FD000BDE8F081286AFAE7686AF8E7A86AF6E7D8
:101FE0006869F4E720680B901C200C90206801F0D1
:101FF0002FFB0390016D0BA88847064603A801F04C
:1020000071FB022E0FDB95E807008DE80700D4E98D
:1020100004023346A16904F0D7F920698719A06941
:10202000A0EB06082CE0286803F016F92169E8699E
:102030000A18521E606902F061F8A269E869111A73
:10204000491C606902F05AF8D4E904077F1C39463C
:1020500002F096F83946A06902F092F8686803F039
:10206000FBF820693946401C02F08AF8A06939461D
:10207000401E02F085F8A0692769A0F10208BF1C84
:10208000286803F0E9F842463946606902F036F8FC
:10209000686803F0E1F8606942463946401C02F086
:1020A0002DF8686A022802E015E1B0E000E10BDDDE
:1020B000A86803F0D1F861696A6A881C8B18014628
:1020C000424638465B1E27E0296AB14226DD606938
:1020D000022E074600F1020801DB374401E007F158
:1020E0000207206901DB304401E000F102002269AF
:1020F0003B460A444146A2F1010202F02BF9022EAE
:1021000002DBA069821B01E0A269921EA069E96955
:102110003B46401A4146401C02F01CF9022E02DBED
:102120006069064401E06669B61CE76928687F1E9D
:1021300003F092F83A463146206902F095F83A46A3
:102140003146A06902F090F8E7696868BF1E03F0A5
:1021500083F820693A463146401C02F085F8A069B0
:102160003A463146401E02F07FF8E869022802DC58
:10217000286A022823DDA86A022802DDE1690F1A15
:1021800001E0E769BF1EA86803F066F8E969022963
:1021900009DD20693B46421800F1020C31466046D9
:1021A000521E02F0D7F8286A022808DDA269E86901
:1021B0003B46101A3146401C921E02F0CBF82868AC
:1021C00003F04AF8D4E90620216901F097FF686816
:1021D00003F042F8D4E906202169401E491C521E32
:1021E00001F08CFFA86A022811DDA1692669E46963
:1021F000A1F10208271AA41EB61C7F1CA86803F0D0
:102200002BF8234642463946304602F0A3F871E0E7
:10221000208A00B2ADF81400A18A09B2ADF81610F8
:10222000228B12B2ADF81820A38B1BB2ADF81A3076
:102230002C69ED68CDE9005401F02CFF5AE0208AAA
:10224000298B0844ADF81400A08AADF81600208B45
:10225000298B401AADF81800A08BADF81A00206841
:1022600001F0F6F90390006FF0B1022003F040F89E
:10227000039890F87C10C1F3C00100EB8100006C62
:1022800002F0EAFF0398406B02F0F0FF0398006F42
:1022900001F0DEF903990990B1F95A2005A901F07E
:1022A0007DFD09A801F01EFA03A801F01BFA21E048
:1022B000208AADF81400A08AADF81600208BADF886
:1022C0001800A08BADF81A00A86802F0C5FF05A899
:1022D00002F064F80EE0206801F0BAF9039030F8DB
:1022E0005A1F41F00C01018003A801F0FBF920689E
:1022F00009F0C6F900206AE6C404002038B50024BD
:1023000050B101F0A5F9009090F87C00000700D5CD
:102310000124684601F0E6F9204638BD38B50500CD
:102320004FF000040CD001F093F90090C06D002133
:1023300080680268284690470446684601F0D2F952
:10234000204638BD30B587B005004FF000040ED0F0
:1023500001A900F0DAF8284601F07AF90090B0F906
:102360005440684601F0BEF90CB9BDF9044007B00D
:10237000204630BD002801D010F08AB97047000017
:10238000074A0649054B1160064A083BD169586067
:102390001B68C2E90630084670470000B8040020F8
:1023A00084040020880400202DE9FC410D4607002C
:1023B00028D001F04DF90190C16D8C6800F00CF946
:1023C00080460198456301A801F08CF9226801213B
:1023D000384690470646226803213846904705460E
:1023E00022680021384690470446384600F0D9F963
:1023F0002B46324641463846009400F062F9384692
:1024000008F069FEBDE8FC817CB50D46040019D0DA
:1024100001F01EF90090006F0190684601F062F92A
:10242000294601A804F00CFB00280BD0204601F03F
:102430000FF9009001990167684601F053F92046B1
:1024400008F049FE7CBD38B50C4605000ED001F001
:10245000FFF80090B0F95A10A14204D0A0F85A40F9
:10246000284608F038FE684601F03CF938BD38B51A
:102470000C4605000FD001F0EBF80022009000EBB5
:102480008201521C0C64022AF9D3684601F02AF931
:10249000284608F020FE38BD2DE9FC470D465FEACE
:1024A00000094FF000042DD001F0D2F80190B0F9EE
:1024B0005440A54223D000F08FF8804601980121B6
:1024C000A0F85450C06D856848462A689047074672
:1024D0002A6803214846904706462A680021484654
:1024E00090470546484600F05CF933463A46414677
:1024F0004846009500F0E5F8484608F0ECFD01A8D4
:1025000001F0F0F82046BDE8FC872DE9F34F85B0D7
:1025100000270C46B846059801F09AF80090C06D67
:102520000121856805982A68904782462A68032118
:102530000598904704902A680221059890470390D7
:102540002A680021059890470646009809F066FA27
:102550008346009809F069FA8146009890F8321095
:10256000890601D5B0F9588000F036F80546009884
:10257000C06E10B108F00DFB074625806780A4F8F7
:1025800004A0049AABEB020006EB0802401E2A44AA
:1025900020813A44E280039BA9EB0302521E628130
:1025A000A4F80CA020827019E681401E6082684663
:1025B00001F098F8B4F90C000190B4F91000029001
:1025C00002AA01A9059800F039F80198A0810298A3
:1025D000208207B0BDE8F08F10B50146002091F8C9
:1025E0003220920607D5B1F95400002803D1486B78
:1025F00001F0C2FF801C10BD70B58AB00C460546C4
:1026000001F026F80990C06D866809A801F06AF803
:10261000009534B1012C06D0022C0BD0032C04D130
:102620000AE0182000E0162001907168684688478B
:102630000AB070BD1520F7E71720F5E72DE9FC413A
:1026400017468846044601F003F80090C16D0568FE
:1026500068468E6801F046F83268002120469047AF
:102660000646204608F018FA27E000BF00F0F0FF09
:102670000190B0F900102AB2B0F90430891A9A1A00
:10268000B0F90230A3EB2543B34210D190F82800F3
:10269000000605D53868884209DB491E396006E026
:1026A000D8F80000904202DC521CC8F8002001A8B3
:1026B00001F018F8204608F023FA0400D6D1BDE84E
:1026C000FC812DE9FF4F83B00E460746DDF84090B0
:1026D00000F0BEFF0190C16D8D68FFF77DFF0446DD
:1026E00001A800F0FFFF2A68012138469047834681
:1026F0002A6803213846904782462A6800213846D6
:1027000090470546B44207D105998B4504D10699F7
:102710008A4501D14D4541D0A41B0026B04638461C
:1027200008F0BAF938E000F093FF0090806A0106E3
:1027300001D5800502E0810528D50006002825DBAB
:1027400024B122461146384608F0A8FD009890F8BA
:10275000280000060AD50698A5EB0902A0EB0A009E
:1027600004FB16013846761C08F063FD0098008DC6
:1027700080050BD50599A5EB0902ABEB010004FB25
:10278000080108F10108384608F053FD684600F0DA
:10279000A9FF384608F0B4F90700C4D107B0BDE876
:1027A000F08F70B586B0064600F052FF0590D0E974
:1027B0001A4505A800F096FF54EA050026D06946A0
:1027C0003046FFF7A2FEACB1BDF90620BDF90410FA
:1027D000204608F005FDBDF90A00BDF90610421AB1
:1027E000BDF90800BDF90410521C411A2046491CCD
:1027F00008F066FF002D09D0BDF90600BDF90210F2
:10280000421ABDF90410284608F0EAFC06B070BD73
:102810002DE9F0430446406889B0054608F077F991
:10282000814600F015FF0290D0F84880D0F8807003
:10283000466E02A800F056FF2068172853D008DC27
:102840000E283AD00F2811D014284CD015283DD18D
:1028500049E01E281ED01F282AD0222840D0312827
:1028600034D10020E06009B0BDE8F0836FF0704122
:102870004046884503D006F045FB01F063F8002E82
:10288000F1D0D4E902122068CDE90405CDE90612A1
:1028900004A81FE0E0680028E5D02FB1AF4203D0C4
:1028A000384608F077FEDEE7284608F0C1FEDAE792
:1028B0002146484607F039FCD5E7E0684168002921
:1028C00004DD00680928EFD00A2805D05EB1204653
:1028D000C4F80490B047C6E7284608F0B1FEC2E746
:1028E000C4F80C80BFE7204607F0A4FFBBE72DE942
:1028F000FF5F8346DDE90E45984691468A464FF0D4
:10290000FF3601274FF4B47004F5B47405F5B475BF
:1029100003E0A4F5B474A5F5B4758442F9DA002D8A
:1029200065DD5A2C11DA002C00DA00245A2D01DA68
:10293000284600E05A20CDE90040CDE90276434622
:102940004A46514658460AF043FC5A3C5A3D002D2F
:102950004DDD5A2C14DA002C00DA00245A2D01DA4D
:10296000284600E05A20C4F15A01C0F15A008DE80F
:10297000430043464A465146584603960AF028FC0F
:102980005A3C5A3D002D32DD5A2C12DA002C00DA66
:1029900000245A2D01DA284600E05A200DF1040CDB
:1029A00000948CE8C10043464A46514658460AF016
:1029B0000FFC5A3C5A3D002D19DD5A2C14DA002C1C
:1029C00000DA00245A2D01DA284600E05A20C4F12A
:1029D0005A01C0F15A008DE8830043464A465146E9
:1029E000584603970AF0F4FB5A3C5A3D97E7BDE876
:1029F000FF9F00002DE9F0430446C56887B090466C
:102A00008946002002F030FC064625B1287910B135
:102A100046F0020001E026F0020002F025FC2069E9
:102A2000012558B1D4E902128DE826000395638888
:102A30002288046841464846A0471EE0124F134BC7
:102A4000214638681B68427CE068984730B9E088C6
:102A5000012801D0002001E03868806BA288E3885B
:102A6000A1680095CDE90410CDE902320195638893
:102A700022884146484605F035FE07B03046BDE89D
:102A8000F04302F0F1BB0000180200201002002009
:102A90001CB50024019401AC009400F0E7F81CBDC3
:102AA0002DE9FF4F83B0814606988A46A0EB0A08BD
:102AB000109E00200090A2EB09043568934654EA6A
:102AC000080018D02046FEF779F807464046FEF782
:102AD00075F887420BDA2046444680464846D14680
:102AE00082465846DDF818B0069001200090002C70
:102AF00007DD204606E007B04846BDE8F04F00F08D
:102B00003BB96042A0420AD04846D9466442C8F167
:102B1000000883464FF0FF37DDF818A000E00127DA
:102B20005148B8F1000F11D004EBD4714FEA610B9A
:102B300001DACBF1000B4C480068807E88B3002F8F
:102B400002DA30682044306000257BE000990029DB
:102B5000016821D0897E11B10027804615E007B0B9
:102B60005A4649465046BDE8F04F05F01DBF28467D
:102B70006D1C0FF077FE38B9D8F8000009EB07019B
:102B8000406E4268504690477F1CA742EFDD6D1EA5
:102B9000356007B0BDE8F08F8A7E1AB10027804605
:102BA00017E019E0486E5A465146036807B0484698
:102BB000BDE8F04F184728466D1C0FF053FE38B99A
:102BC000D8F8001009EB0700496E4A685146904753
:102BD0007F1CA742EFDDDAE700250FE008FB05B018
:102BE00090FBF4F101EB0A00009951B11E4A09EB88
:102BF00005011268526E526890476D1CA542EDDDCA
:102C0000C7E7194909EB05030968496E4A68014697
:102C10001846F1E708FB05B090FBF4F101EB0A0060
:102C200001903068384430600FF01CFE48B90098BD
:102C300090B10D4809EB05010068406E42680198AB
:102C400090476D1CA542E5DD3068002F01DA204475
:102C50003060C01B30609CE7034909EB0500096840
:102C6000496E4A680199EBE7180200202DE9FF47F9
:102C70000F4640491646804609680C981D460A7E54
:102C8000012A1CD0A8EB0600791B50EA01031CD0D6
:102C9000A2F1010911F014FA00F58060824603F0F8
:102CA000F8FF00FB09F4504603F0F8FF00FB09F1C0
:102CB000002C0CDAC4F50070801240420AE000904B
:102CC000324639464046FFF7EBFEBDE8FF8704F584
:102CD0000074A012002904DAC1F5007189124C4277
:102CE00002E001F500718C12002804DD411C01EBAB
:102CF000D171491003E000EBD0714910401E00EB88
:102D0000D0704210002C04DD601C00EBD07040102D
:102D100003E004EBD4704010641E04EBD47308EBA2
:102D20000104ADF800403C18ADF80240A8EB0204E5
:102D30005B10B21AADF80440ADF808203144FC1A1B
:102D4000EA1AADF80C102844ADF80A20ADF80E00D0
:102D50000023ADF806401A460421684600F07AF8D0
:102D6000394640460CF09CF9294630460CF098F95B
:102D7000ABE7000018020020064A13681A7E012AF9
:102D800005D0521E02EBD272521000F005B85A6EF6
:102D900052681047180200202DE9F05F0646884669
:102DA00040F2C32002FB00F14FF47A7091FBF0F780
:102DB00002FB02F102EBD27001EB600B1446B1187A
:102DC000234A301B7F1C1268526E13680A46414624
:102DD0009847012538E000BF05FB05F004FB04011E
:102DE00059451CDDBC4219DD194B06EB050AA6EB63
:102DF00005091B68AAF1010208EB04015B6E09F1E9
:102E000001001B689847124BAAF10102A8EB0401CC
:102E10001B6809F101005B6E1B689847641E0C4B30
:102E20003219301B1B68924608EB05015B6E814628
:102E30001B689847064B5246A8EB05011B6848469D
:102E40005B6E1B6898476D1CBD42C5DDBDE8F09FF9
:102E5000180200202DE9FF4F43F6FF740F4666422B
:102E600083B09B46814600210BE000BF09EB810047
:102E7000B0F90200A04200DA0446B04200DD064686
:102E8000491CB942F2DB67480068406900280DD050
:102E9000B0F906101A46A1EB0B01B14200DA0E465A
:102EA000B0F90200801AA04200DD0446B4E0DFF869
:102EB00078A100200546CAF8000088E0781E854207
:102EC00001DA6B1C00E0002309EB850C09EB83029F
:102ED000BCF90200B2F90210A04244D1A14215D1BE
:102EE00039F92330059A39F9251003EB020C4D4AC4
:102EF00005981268084404EB0B01526E6045136894
:102F000001DA62462AE00246604627E02846A446E7
:102F10004FF000087A1E0BE008B1401E00E0781E5A
:102F200009EB8003B3F90230634504D108F10108CD
:102F30009045F1DB2346A34248D01A1B39F92500FE
:102F4000A1EB040C059B92EA0C0F09D4354A1844F6
:102F500004EB0B011268526E13680246984735E085
:102F600009F0C6F932E0A14230D001DBA04203DD16
:102F7000A0422BDBA14229DCE04688420ADC034662
:102F8000A04223DC0846A14220DBB8F900C0B2F918
:102F9000001008E00B46A14218DCA04216DBB2F993
:102FA00000C0B8F90010E21AA1EB0C01514300294E
:102FB000A0EB030202DD01EB620102E0A1EB620182
:102FC000491CC01A91FBF0F06044C9E76D1CBD427A
:102FD000FFF674AF0598009004EB0B000190002001
:102FE0008046054613E01149B8F1000F31F915A0EC
:102FF00009D0009901EB0A0208440A490968496EA0
:103000000B680199984788F0010850466D1C0649E5
:1030100009688D42E7DB641CB4427FF748AF07B014
:10302000BDE8F08F1802002018070020F8AC00203F
:1030300010B5002002F00EF96FF07F4002F00CF99D
:10304000012002F043F9002002F048F9002002F0CC
:103050004FF9002002F008F90448006802F006F970
:10306000BDE81040002002F00DB90000140200205D
:103070002DE9F04FDFF828B191B04FF0FF35DBF8C4
:103080000030B3F922100691DE69B3F924A0F46987
:10309000A189814206D8E289824203D3471AD4F833
:1030A000008012E0D4E90181002970D00A888242B0
:1030B0006DD84D8885426AD3801A82B2486800EB89
:1030C0008200B0F90070B0F90250781C5FD0307EF9
:1030D000A27C014600FB02F9207CCDE90710B3F980
:1030E0002A60304605F058FFC0B20E90DBF80010A1
:1030F00007FB0980A37C8A6B0127CDE90402CDE997
:103100000273C869089AC17E807ECDE90001DDE9BD
:103110000603514605F0E6FA681C18D046F0020096
:1031200005F03AFFDBF80000A37C05FB0981826B08
:10313000CDE90273CDE90412C069089AC17E807E90
:10314000CDE90001DDE90603514605F0CBFADBF8D5
:1031500000005D46C069417E007E814214D9022E86
:1031600012D086F0040005F017FF2868C069027EBF
:10317000C37E857E02FB03A1437E089A06985344D2
:1031800002FB050205F03AFC0E9805F005FFDBF89E
:103190000000627C418C1144418411B0BDE8F08F85
:1031A0001802002004480068C069C06909B1027CA7
:1031B0000A60407C7047000018020020022008804E
:1031C0007047C06982898A4202D8C2898A4210D275
:1031D000806880B102888A420DD843888B420AD326
:1031E000406800EB8100A0EB8200B0F900000028ED
:1031F00001DB012070470020704700002DE9F043FB
:103200002F4C034687B020681946B0F92A80C06960
:10321000C06900F082F800284ED041680088181A72
:1032200001EBC0054046AE7805F0B6FE8146206849
:103230006A680123816BCDE90236CDE90421C169B9
:10324000CB7E8A7ECDE900230B7EB0F924102A784C
:10325000B0F9220005F046FA2068C069477E067E74
:10326000B7421DD9C07E47434643B8F1020F17D07D
:1032700001F015F9804601F0F5F801F0EDFF216845
:103280002A78CB69B1F92200B1F92410DB7E02FB68
:103290000302CB19314405F0B1FB404601F0DCFFDD
:1032A000484605F079FE20686A78C369B0F92210B3
:1032B0009B7E02FB0311418407B0BDE8F083000050
:1032C0001802002030B50E4C05460B4620682946F2
:1032D000C069C06900F021F8002810D0416800885A
:1032E00024682A1A0120E46900EBC200085CA47E6D
:1032F0006043002B03D011F832106143196030BDD8
:103300001802002001200880704700B5C06900F055
:1033100004F8002800D0012000BD06E002888A429F
:1033200002D842888A4202D280680028F6D17047CB
:1033300002490120096881F86900704718020020DD
:1033400010B50DF009F90448016A044800684166A7
:1033500000F10801416110BDC801002018020020E1
:103360002DE9FC471C4615468846814608F01CFBA3
:10337000054408F027FB0444002008F05DFB00280A
:103380001FD0114E114F12213068407C57F8200099
:103390000190C068426A01A890475FEA000C06D01D
:1033A0002B464246494600940198E04705E02346F3
:1033B0002A46414648460CF085FC08F0D5FA00281C
:1033C000E1D1BDE8FC870000180200203002002097
:1033D0002DE9F041224C05460E462068002788B9A9
:1033E00020480068E06110B905F0DDFBE06100F005
:1033F000A9F8206080B31A491B48243108600846A8
:1034000003F016FB19480068854200DA0546E169B9
:10341000731B4A1E2046934201DD6E18761EAE4293
:1034200001DA2E460127124C2268516E4B688363E5
:1034300001620B490F4B34310B60516602C880E8C2
:10344000620009F0F9FA09F003F9054821682C3007
:1034500048613846BDE8F081FFE70127D2E7000068
:10346000C801002048020020711701084C0200200A
:103470001802002085EF00080249096881F86800F9
:1034800009F0E6B818020020002801D009F04AB877
:10349000704738B50546FFF7F7FF040009D000F084
:1034A000D7F82A460021009003F075FB684600F02B
:1034B00019F9204638BD0000024A106021F00300CF
:1034C0005060704748AC002010B5002814D0044666
:1034D0000A48406B10F8341000290DD002290BD295
:1034E000042101EBC4014158486808F01DFF204643
:1034F000BDE810400EF0D2BF10BD000088AB002028
:10350000002805D0034AD16B016001B14860D06347
:103510007047000088AB002010B504460068FFF734
:10352000D3FF0020206010BD70B50D460646002474
:1035300005E000BF06EB8400FFF7EEFF641CAC4221
:10354000F8DB70BD2DE9F04104460DF093FD2848ED
:10355000E41C24F00305016C2D1DA94200D90D4681
:10356000C46B13E054F8042CAA420ED184B1216834
:1035700009B162684A60616809B122680A60C26B79
:10358000A24231D12168C1632EE02468002CE9D128
:103590008046816BC0680F1857F8040C3E1A3068DB
:1035A00038B100200EF0E4FF57F8040C3E1A3068E2
:1035B000D0B97068A84217DB3044441B3046241D44
:1035C0000EF08EFFD8F80C10491BC8F80C10D8F874
:1035D00014102944C8F814107068401B02D03146FA
:1035E00008F0A2FE44F8045C2046BDE8F08100002B
:1035F00088AB002010B500240DF03CFD0C490F20D5
:1036000001EBC002526C1AB101EBC000406C08E043
:10361000401EF5D508E04168A14200D90C468068FB
:1036200010B180680028F6D1A4F10C0010BD000094
:1036300088AB0020002138B10449042202EBC0000D
:10364000496B085841680C390846704788AB002020
:103650000549CA69521CCA61496B01EBC0010A786D
:10366000521C0A7000F056B888AB00207CB50646A4
:103670000C460846FFF708FF05001CD0DEB13046B7
:10368000FFF7D8FFA04200DA04462846FFF7E0FF24
:1036900000903046FFF7DCFF01460190224600987B
:1036A000FCF750FD684600F01DF801A800F01AF87C
:1036B0003046FFF709FF28467CBD000010B5FFF734
:1036C00099FF64220649B0F5800F04D990FBF2F00F
:1036D000096A484310BD096A4143B1FBF2F010BDCD
:1036E00088AB00200A4902684B6B52F8082C03EBA8
:1036F000C2021378022B03D3CB690BB15B1ECB61E3
:103700001178491E117000210160084670470000C1
:1037100088AB0020002806D00349042202EBC00039
:10372000496B08580830704788AB002038B5002432
:1037300030B1FFF78DFF009004886846FFF7D2FF95
:10374000204638BD38B50D46002448B1FFF780FF4C
:103750002946009000F016F804466846FFF7C2FFBD
:10376000204638BD38B50D46002448B1FFF770FF3C
:103770002946009000F018F804466846FFF7B2FFAB
:10378000204638BD38B50D4601880024A94209D924
:10379000406838B1FFF75CFF009050F8254068465C
:1037A000FFF7A0FF204638BD10B50024FFF7EAFF61
:1037B00010B1FFF74DFF0446204610BDF0B52D2790
:1037C0001C68B0F1004F08D0002600280DDA651CF7
:1037D0001D6027704042012408E0651C01261D6021
:1037E0006FF000402770491E01E00024091BC9B298
:1037F0002AB3491EC9B222E00C46491EC9B29442FE
:1038000005D1124C27781C68651C1D602770104C70
:1038100054F8215090FBF5F4E4B20A2C11D804FBC3
:10382000150011B90EB1641CE4B20A2C02D10124B6
:10383000491CC9B21D686F1C30341F602C700029F0
:10384000DAD1196800200870F0BD00000C020020D9
:103850003450030810B5136808290DD85C1814609B
:1038600000222270054A04E000F00F040009145DF4
:103870005C54491EC9B2F7D210BD00008CDF0308AA
:1038800010B5002807DD0A682B24531C0B60147048
:10389000096800220A7010BD70B506460D46144630
:1038A000104600F003FE0300164804EB84010AD022
:1038B00050F8210041688068711A2A1ABDE87040EA
:1038C000184601F0DDBC00EB8104A268B24201D0D1
:1038D000012200E00022E368AB4201D0012300E0B6
:1038E00000231A430CD0236943B150F821008168AA
:1038F00040686A1A311A184601F082FCC4E9026570
:1039000070BD0000F8AD002010B5C2B2CBB2D21A23
:1039100000D5524293B25B43C0F30722C1F30724A0
:10392000121B00D55242000C92B2A0EB114002FBD8
:10393000023200B2002801DA404200B280B200FB3D
:10394000002010BD10B50021084600F029FE43F606
:10395000FF725042BDE8104013460146AFF30080AD
:103960002DE9FC4107461C4615460E46042005F08D
:1039700013FB80461148C068C16C006D0F440644BB
:103980000D440444ADF80070ADF80450ADF8026089
:10399000ADF80640684608F04FF807E023462A468F
:1039A0003146384605F02AF807F0DEFF0028F5D149
:1039B000404605F0F1FABDE8FC8100000C02002051
:1039C000B0F90630B0F90420B0F90210B0F90000E7
:1039D000FFF7C6BF2DE9F8431C00DDE9089816463D
:1039E0000F46054602D107F039F8044600962E68C6
:1039F00043464A4621462846B047060035D007F0E0
:103A000021F88146698A304606F01FFC304607F0EF
:103A100083FE484607F080FE4FF000080CE000BF30
:103A2000CDF8008055F81CCF00231A464946284699
:103A3000E047E0B107F070FE7F1E002FF0DC1D2193
:103A4000484607F0DEFC601C0ED007F02DF830B1C0
:103A5000FFF760FE8469B44201D02000F8D1B4427F
:103A600002D0304607F0E4FD3046BDE8F88330462A
:103A700006F014FF0020F8E72DE9F0411C46164639
:103A80000D460746022B02DB0020BDE8F0811C201A
:103A9000FFF758FD0028F8D00DB105610AE0094A8A
:103AA00052F8241009B905E011460A68002AFBD132
:103AB0000969016184618682002101604160C0E979
:103AC0000217E2E73002002070B51D46FFF7D4FF71
:103AD000040009D000F00EF8E068006820B903483F
:103AE000006800EB85008465204670BD1802002048
:103AF000FFF706BD70B590B38269022A30DA1E4C1A
:103B000054F8221019B944F8220032E019464B68E3
:103B1000002BFBD106E0CB68C5681B682D68AB4263
:103B200003DD09680029F6D11AE0C1B1CB68C66887
:103B30001B683668B3420CD1838A012B05D008E09C
:103B40001946DB681B68AB4203DB0B68002BF7D11F
:103B500029B14B6833B118604A68426004E0FFE75E
:103B6000012070BD44F822004860884200D1002145
:103B70000160002070BD0000300200200FF0C0BACC
:103B8000022801DB00207047054951F8200004E0BD
:103B9000C16809680029F6D000680028F8D170478C
:103BA00030020020F8B5074615460E460C20FFF7F8
:103BB00070FC04000AD0FFF74BFD05490090C0E9F6
:103BC0000017068145816846FFF78CFD2046F8BD49
:103BD000B4DE03082DE9F8431D4616468846040066
:103BE0000CD0FFF735FD0090006807686846FFF7C6
:103BF00079FD2B46324641462046B847BDE8F8835A
:103C000038B504004FF000000AD02046FFF720FD31
:103C10000090006845686846FFF764FD2046A847A5
:103C200038BD38B504004FF000000AD02046FFF739
:103C30000FFD0090006885686846FFF753FD204639
:103C4000A84738BD1FB503ABCDF80CD0FFF7B6FDC4
:103C5000684600F001F81FBD2DE9FC4706005BD067
:103C600000F03CFC3B4C81462068B0F9228000F01B
:103C70006BFC216807468A8CD01B888441E000BF1A
:103C800047F6FF71304602F06DFD82460146304630
:103C900002F03EFD2168054691F82C0000F003007B
:103CA00001283FD0022839D000204A8C101A4884BD
:103CB000ADF800006A1E1044ADF80400888CADF821
:103CC0000200A9F101010844ADF806006A46514618
:103CD000304602F059F82168BDF802008884514648
:103CE000304601F029FD064430780A281CD00D2802
:103CF0001AD0BDF80000216828444884307818B1F3
:103D0000761C30780028BBD12068818C39448184AE
:103D1000818D21F003018185BDE8FC8705EBD5701D
:103D20004010C2E72846C0E7206890F82C1001F048
:103D3000030101290BD0022909D0018C418431787B
:103D40000A29DBD1828C02EB09018184D6E7A0F835
:103D50002280F4E718020020024B1B6859849A84E1
:103D6000FFF77ABF180200202DE9F04107460A4804
:103D700015460E460068B0F92C0040F0020001F034
:103D8000ADFA04462A4631463846FFF7E5FF20469D
:103D9000BDE8F04101F0A2BA1802002047F6FF7317
:103DA000AFF300802DE9FC411F46904606000D460A
:103DB0004FF0000416D065B1084607F0A1FC0400DE
:103DC00007D002462946684602F039FD684607F0EA
:103DD00097FC3B4642462946304602F02DF82046E5
:103DE00007F08EFCBDE8FC812DE9FF4F87B09046BF
:103DF0008946070079D00C68D9F8045021B228B25E
:103E0000401A401C029000F069FB064618F00C0FA7
:103E10001ED038460A9A029901F097FD08F00C016D
:103E2000042904D0082902D00C2911D104E0291456
:103E300000FB1610401C09E02114C1EB254200FBD9
:103E40001620401C00EBD07001EB600060F31F44B3
:103E5000484607F055FC5FEA000B09D00246494688
:103E600004A8CDE9044502F0EAFC04A807F048FCE8
:103E7000A6F1010A38460A9A029902F05BFE039005
:103E80000AEB244060F31F45CDE90045384603990D
:103E900002F03EFC18F003010ED0012928D00229BF
:103EA0000ED1B9F90420B9F90010521A101A00EB1A
:103EB000D07001EB600001E0B9F80000ADF800003F
:103EC0006A463846039901F05FFF38460A9A02991C
:103ED00002F026FE074406EB244060F31F443878C6
:103EE0000028C7D1584607F00BFC0BB0BDE8F08F97
:103EF000B9F80410081A401CE0E700002DE9FC475F
:103F000091460D4A9846DDE90A761268D36C1D1871
:103F1000106D4418002007F08FFD09E0CDE9007610
:103F200043464A4621462846FEF7E1FC07F01CFDC1
:103F30000028F3D1BDE8FC87180200207CB50646B6
:103F400010480068C36C006D5D1884183188681EC5
:103F50000844ADF80400ADF800507188601E0844B4
:103F6000ADF80600ADF80240684607F065FD06E0D2
:103F7000224629463046FEF73DFD07F0F5FC0028B5
:103F8000F6D17CBD180200201CB50A4601466846E1
:103F900002F041FD2448BDF80010006830F84C2FB5
:103FA0001144ADF80010BDF8021082881144ADF83C
:103FB0000210BDF8041002881144ADF80410BDF8D9
:103FC000061080880844ADF80600684607F034FD06
:103FD00027E000BFBDF900400BE000BFBDF90210B3
:103FE000204604F0ADFCBDF90610204604F0A8FC04
:103FF000A41CBDF90400A042F0DABDF902400AE0B9
:10400000BDF90000214604F09BFCBDF904002146E7
:1040100004F096FCA41CBDF90600A042F0DA07F0FB
:10402000A3FC0028D6D11CBD180200202DE9F04FBA
:104030000C46164987B00D68DDE91098E96C0F1839
:10404000286D8D180619C418ADF81070ADF814500D
:10405000ADF81260ADF8164004A807F0EDFC00289A
:1040600011D0DFF82CB04FF0000ACDE90098CDE96F
:1040700002BA2B462246394630460AF063FE07F064
:1040800073FC0028F1D107B0BDE8F08F18020020C2
:10409000A98900082DE9F04F164C87B02568DDE9A5
:1040A0001098EC6C2718286DA5184618C418ADF8A0
:1040B0001070ADF81450ADF81260ADF8164004A8B9
:1040C00007F0BAFC002811D0DFF82CB04FF0010A3D
:1040D000CDE90098CDE902BA23462A463146384652
:1040E0000AF030FE07F040FC0028F1D107B0BDE82F
:1040F000F08F000018020020E98800082DE9FC413B
:10410000104F04463B68D86C4518196DADF8005047
:104110000E198418ADF80440ADF80260ADF80660E1
:10412000684607F089FC08E0386822463146406E50
:1041300003682846984707F017FC0028F4D1BDE82B
:10414000FC810000180200202DE9F0410B4C25688D
:10415000EC6C2718286DA5184618C418002007F025
:104160006BFC07E023462A4631463846FEF790FCB2
:1041700007F0FAFB0028F5D1BDE8F0811802002015
:104180007CB50E4D2A68D36C1E18106DADF8046016
:104190004418ADF80060ADF80640ADF8024068463E
:1041A00007F04AFC07E028682146406E4268304626
:1041B000904707F0D9FB0028F5D17CBD18020020FC
:1041C00070B5094A1268D36C1C18106D4518002090
:1041D00007F032FC05E029462046FEF7CDFD07F04A
:1041E000C3FB0028F7D170BD180200202DE9FC4167
:1041F0001C4C2468E66C94F818C03718206DACF19C
:10420000010C4518C418A7EB0C001644ADF80000CB
:1042100006EB0C00ADF80400A5EB0C00ADF80200B5
:1042200004EB0C00ADF80600684607F005FC15E04D
:1042300032462946384604F057FB32462146384676
:1042400004F052FB621E691C384604F0ADFB621E8E
:10425000691C304604F0A8FB07F086FB0028E7D174
:10426000BDE8FC81180200207CB50E4B1B68DC6C9D
:104270002618186DADF8006045188418ADF8046074
:10428000ADF80250ADF80640684607F0D5FB06E0F1
:1042900022462946304604F087FB07F065FB0028DC
:1042A000F6D17CBD1802002070B50C46054600F022
:1042B00007F910B10121C0E900142846BDE870409B
:1042C00007F0D4BA10B5044601F06CFB0449096844
:1042D000002903D02046BDE81040084710BD00006B
:1042E0001407002030B59DB00D460446CDF870D0BF
:1042F0006F220021684602F04EFC64222146684687
:1043000008F062FC6846FBF74FFF1C991CAA0844A2
:104310001C900821284601F04EFB6846FFF7D2FFAB
:104320001DB030BD094810B50068002410B18047A9
:1043300000B1012406F032FB00B1012404480068FA
:1043400010B1804700B10124204610BD3C0200207E
:10435000380200202DE9FC410F4C2568EC6C271831
:10436000286DA5184618C418ADF80070ADF80450B3
:10437000ADF80260ADF80640684607F05DFB07E067
:1043800023462A463146384604F038FB07F0ECFA5B
:104390000028F5D1BDE8FC8118020020B0F90630F4
:1043A000B0F90420B0F90210B0F90000FFF7D2BF55
:1043B00008B50B46002805D0009281888268C08825
:1043C00000F001F808BD10B50828029C30D008DCC8
:1043D00004FB01F401280AD0022813D0042804D1D8
:1043E0001CE0102828D020282CD0002010BD04EB81
:1043F000D30003F00701105CC1F10701C84000F0D1
:10440000010010BD04EB93000621105C01EA43019A
:10441000C1F10601C84000F0030010BD04EB5300D9
:10442000D907105C02D000F00F0010BD000910BDCC
:1044300004FB0130105C10BD481004FB003032F862
:10444000100010BD881004FB003052F8200010BD91
:10445000034951F82000C1688A6A0821104700000A
:104460003002002010B504F0F9FABDE8104004F065
:10447000DFBB000002490968C9694A68002110478A
:1044800018020020024A1268D269526810470000E0
:1044900018020020002801D006F0C4BA704710B5F9
:1044A00004F0E4FABDE8104004F0C2BB0021022889
:1044B00002D2024951F82010084670473807002000
:1044C0001FB500210191029103912A2100916946B3
:1044D00006F092FF039804B010BD00000248006887
:1044E000C069407E704700001802002010B90748DC
:1044F0000068C06990F820208A7090F822200A7124
:1045000090F82120CA70826810470000180200202D
:1045100002F0F4B870B514460D4604F02BFB0028E9
:1045200002D000202860206070BD02F045B910B5AF
:10453000044602F033F901462046BDE8104002F07F
:10454000E7B801F031BA00000A490020096891F883
:104550002C2002F00C02042A07D0082A01D00C2AD1
:1045600002D1C869007E40087047C869007E401EBD
:104570007047000018020020017EC07E484370474B
:10458000024951F82000006900687047300200209D
:10459000024951F82000006940687047300200204D
:1045A00070B50D460CF052FC044628460CF056FC43
:1045B000204370BD124810B5016821F0010101606F
:1045C0001048012181601049016000680F4988424C
:1045D00000D0FEE701F004FB0D492E20087001F029
:1045E000E9F90C480CF0F8FC11F0BEFA0446002181
:1045F000084600F04FFE06F0C9FC204610BD000042
:10460000002000E000300240C2A507F4CDB5E8B5B7
:104610000C02002054AC00202DE9FC4107461C464A
:1046200015460E46012000F01FFE80461148006826
:10463000C16C006D0F4406440D440444ADF8007095
:10464000ADF80450ADF80260ADF80640684607F0DA
:10465000F3F907E023462A463146384604F0CEF9FE
:1046600007F082F90028F5D1404600F0FDFDBDE8D5
:10467000FC8100001802002008B500280CD0FEF7CD
:10468000E7FF43F6FF7100908180C18049420181BC
:1046900041816846FFF726F808BD000038B5134889
:1046A00000220068437C124850F823000169114839
:1046B000FFF7E2F9040011D01820FEF7EAFE05002A
:1046C0000ED02846A560FEF7C3FF00900460284680
:1046D000FFF7D2FF6846FFF705F804E0002038BD79
:1046E0002046FFF705FA284638BD000018020020D2
:1046F0003002002034D5030838B504460C48006861
:10470000006EA04201D100F089FD2046FEF7A0FF17
:10471000009005686846FEF7E5FF2046FEF7D4FEE8
:104720002846FFF72BFA2846FFF7E2F938BD0000CC
:104730001802002038B50C4600280FD0002C0DD0F0
:10474000FEF786FF009081882180C1886180018901
:10475000A1804089E0806846FEF7C4FF38BD0000B4
:1047600038B5040014D006F05BF80B4D28680466D9
:104770002046FEF76DFF00900068FFF7BBF929683F
:10478000002048616846FEF7ADFF04F0E5FB38BD48
:1047900000F044FD38BD0000180200201CB520B90F
:1047A0000C480068006E002812D0FEF751FF009000
:1047B00044696846FEF796FF002C09D02046FEF7B4
:1047C00047FF019081688968884701A8FEF78AFF42
:1047D0001CBD00001802002001490A4600F002B882
:1047E00001F0FFFF2DE9F04387B015460C465FEA64
:1047F000000842D0002000F037FD814620480068C4
:10480000066E4046FEF724FF00900068806900F0C5
:104810000FFD074640F6FF70C44204D10098B0F97E
:104820000440B0F906500098611E0289ADF80440BA
:104830001144ADF808104189681E0844ADF80650CF
:10484000ADF80A0005F0FEFE6846FEF74BFF01A832
:1048500007F0F2F806E02A462146404600F09AFBAF
:1048600007F082F80028F6D1384600F0E1FC304627
:1048700000F0B2F9484600F0F7FC07B0BDE8F0835D
:104880001802002001210174002070472DE9FE4F1D
:10489000834619488A46194900680C9E9846407C10
:1048A0009146002751F82040E1680968042903D0A7
:1048B0002468002CF8D100E014B9FFF761F9044630
:1048C0000121E068C26A20469047050011D02469A2
:1048D000A0688047401C02D1094C46F001060096B2
:1048E000CDE9015443464A465146584600F0F8F98E
:1048F00007463846BDE8FE8F18020020300200202F
:10490000A8D5030838B5040018D00D480068006E1B
:10491000A04201D100F082FC2046FEF799FE0090F3
:10492000406908B100F0FFFF00980068FFF7E0F869
:104930006846FEF7D7FE2046FEF7C6FD38BD0000EC
:10494000180200202DE9FF4F0746464883B09946DC
:104950000068DDF840B08A46447C4348005701288F
:10496000204606DD04F02EF98046204604F036F994
:1049700005E004F015F98046204604F017F90446D6
:1049800017B302A901A8FFF7D0FDB7F90060002E08
:1049900000DA0026B7F90250002D00DA002501994F
:1049A000B7F904004144491E0CF028FD80460298E6
:1049B0000119B7F90600491E0CF020FDA8EB06020C
:1049C000441B521C641C02E0002635464246B9F1E5
:1049D000000F01D1C4F10009002A01DD002C03DC25
:1049E000002007B0BDE8F08F4B4629463046CDF891
:1049F00000B0FFF74BFF5FEA000909D000F0B2F802
:104A00008046484600F0E8F80027DFF860B01FE075
:104A10005146059888470120E3E7E11B414502DA4A
:104A2000484600F0C3F83FB1EA193146484600F065
:104A3000F5F84846FFF7B2FE514605988847DBF87F
:104A4000001009B1002088474846FFF7C5FE4744DB
:104A5000A742E2DB4846FFF755FF002000F0BCF814
:104A6000BEE7000018020020500200208C07002042
:104A70002DE9FF4F83B016460D460446FFF70EFEA4
:104A80005FEA000945D0FFF76BFE01276F70217CBC
:104A900004F1080891B12F700698B04721464846A6
:104AA000FFF748FE4846FFF7E7FD0020287006980C
:104AB000B04741464846FFF73DFE1AE00698B0472A
:104AC00021464846FFF736FE20880190A0880090D6
:104AD0002146B4F802B0B4F806A04246084600F0F9
:104AE00077FA019820810098A081A4F80AB0A4F870
:104AF0000EA04846FFF700FE4FF0000885F8018041
:104B00002F704346009731462046069AFFF71AFF5A
:104B100018B1012007B0BDE8F08F85F8008084F857
:104B200010800020F6E738B5002460B1FEF790FD54
:104B30000090006800698068804704F04BFC0446E0
:104B40006846FEF7CFFD204638BD38B5002808D0AE
:104B5000FEF77EFD00F1180400906846FEF7C2FDE6
:104B6000204638BD38B5002418B907480068006EE3
:104B700038B1FEF76DFD0090B0F90A406846FEF7C7
:104B8000B1FD204638BD00001802002070B5054672
:104B90000024284608F032F9641C18B1BDE87040C2
:104BA00000F068B8052CF4DB70BD000038B50C4689
:104BB00020B908480068006E00280AD0FEF748FDBA
:104BC0000090B0F90A10A14200DD44816846FEF76A
:104BD00089FD38BD18020020F8B50F4E0500306879
:104BE000046E16D00CB100F019FB05F019FE284632
:104BF000FEF72EFD009031680D660068FEF77AFF23
:104C00006846FEF76FFD04F07DFA04F0A5F9204632
:104C1000F8BD00F003FBFAE7180200207CB515464A
:104C20000C4620B912480068006E00281FD0FEF71D
:104C30000FFD2DB20090C58024B2848004F08CF961
:104C40000098406980B1FEF703FD009A0190B2F927
:104C500008108180B2F90A20C28011B10AB1048023
:104C6000458001A8FEF73EFD6846FEF73BFD7CBD92
:104C70001802002001490A4600F002B801F0FFFFC7
:104C80007FB515460C46060028D0FEF7E1FC40F63D
:104C9000FF710190CC4203D1B0F90440B0F9065045
:104CA0000289611E1144ADF80840ADF80C1041892D
:104CB000681E0844ADF80E00ADF80A5001A8FEF7D2
:104CC00011FD02A806F0B8FE06E02A46214630464D
:104CD00000F048F906F048FE0028F6D17FBD00003C
:104CE0002DE9FF4FDFF8E8B083B01C46DBF8001079
:104CF000DDE9106092464FF000084B7C4246129965
:104D0000FEF7BAFE050060D028698068804704F08D
:104D100061FB81460AFB09F1C91DCF08FEF7CEFCF5
:104D2000F10705D1C11700EB9170801000EB400036
:104D3000002C09DC1FB11838B0FBF7F000E00020B0
:104D40006442A04200DC0446F00707D10090DDE990
:104D500003012346524600F06FFD8046002C03DC21
:104D60002846FEF7C5FE30E004FB07F01830F107D7
:104D700002D0FEF789FB01E0FEF78BFB06001CD09A
:104D8000FEF766FC01900560039981800499C1805B
:104D9000A0F808A04481C0F81480C0E9037901A8F4
:104DA000FEF7A0FC1298AE602861DBF80000407CA2
:104DB000A861304607B0BDE8F08F2846FEF798FEA0
:104DC0005FEA080001D0FEF77FFB0020F2E7000059
:104DD000180200202DE9F74F8EB0144689460E9830
:104DE000FEF736FC0990B0F908B0B0F90A60006827
:104DF000006940680C9009A8FEF774FC564D574FA7
:104E00002868407C57F82000C1688A6A08219047CA
:104E10000790182801D3202007902868407C57F875
:104E200020000069069003C80B904D48814201D0D4
:104E3000012000E000200A90002000F0CBFD0028B7
:104E40007DD1286809EB0B01B0F90C20891A491EA5
:104E5000002902DDABEB010500E05D46B0F908106A
:104E6000494505DDA1EB090189446D1A089101E06E
:104E700000210891002D6BDDB0F90E20A119891ACF
:104E8000491E002902DDA6EB010800E0B046B0F99A
:104E90000A00A04204DD061B3444A8EB060800E02B
:104EA0000026B8F1000F53DD089801900DA95F4668
:104EB000DDF830A00E980091FFF747FE774300EB36
:104EC000870101982B4601EB800200994846CDE905
:104ED00000A1214601F060F80090002838D00A981F
:104EE000E8B1DDE906322946009800F073FEB0B95A
:104EF0000698009FDA46D0F810C0BCF1000F05D02C
:104F000004235A4639463846E04708E00B9938688A
:104F1000884701C7AAF101005FEA000AF6D10099AB
:104F20000020079ACDE90301059001200090CDE90A
:104F3000010221460346641C2A46484600E007E079
:104F400003F0D0FBA8F10100761C5FEA0008ABD1AA
:104F500011B0BDE8F08F00001802002030020020E0
:104F60004F8C0008F8B515460E460746FEF770FB55
:104F7000009000681621C068426A002090470446ED
:104F80006846FEF7AFFB002C03D02A463146384670
:104F9000A047F8BDF8B515460E460746FEF758FB84
:104FA000009044696846FEF79DFB3846FFF7BBFD5D
:104FB0000346082800DD2CB12A46314638460EF05B
:104FC0003FF9F8BD2A46314638460EF0D9FAF8BD09
:104FD00010B5002821D009B30AB3B1F90040B2F9E5
:104FE00000309C4200DA23460380B1F90240B2F956
:104FF00002309C4200DA23464380B1F90440B2F902
:1050000004309C4200DD23468380B1F90610B2F9DA
:105010000620914200DC1146C18010BD11460A688D
:1050200002604968416010BD00280BD003880B4422
:105030000380838819448180418811444180C1885C
:105040001144C1807047000070B50E4D0446D5E98B
:105050000001884209D10C49884201D13C3000E06E
:105060000C3807C884E8070006E090E80E0084E8E2
:105070000E000BF009FF2860207A002800D00120E4
:1050800070BD00002C07002068AD00200448D0E966
:105090000010814201D101207047002070470000BC
:1050A0002C070020054A10B5034911600DF036FFAA
:1050B000BDE8104000F026B9B5AB00084002002062
:1050C00070B5094C0020D4E900218A420AD0D2E907
:1050D000005610460BF0E2FE20603146284606F0EE
:1050E000B3F8012070BD00001C0700202DE9FC4131
:1050F000154DDDE908742D68B5F90860864200DDBC
:105100003046B5F90C60964200DA3246824219DB2D
:10511000B5F90A608E4200DD3146B5F90E509D4268
:1051200000DA2B468B420DDB00E02C46E5682D684B
:1051300025B1042D02D02568002DF6D1CDE90074EB
:1051400003F0F4FDBDE8FC8118020020B0F9022054
:10515000B1F906309A4213DCB1F90220B0F90630F9
:105160009A420DDCB0F90020B1F904309A4207DC14
:10517000B1F90010B0F90400814201DC0120704750
:10518000002070470146024870220068FAF7DABF33
:10519000180200202DE9F0410D46064690461649BA
:1051A0001846FBF776F81549FBF7A9F8FBF7BEFAA6
:1051B000074600F0E3FD0446384601F077FC02465E
:1051C000002014E005EB800335F92010B3F902301C
:1051D00001FB04F703FB0277634301FB12313F1429
:1051E00026F82070091406EB8003401C59804045C6
:1051F000E8DBBDE8F081000000C82F48DA0F494025
:10520000002801D00DF0F2BB704700000249702267
:105210000968FAF797BF00001802002010B503F0E4
:1052200051FE03F06FFFBDE8104005F00BBA00001F
:1052300070B504460548022C0068457C02D24474CF
:10524000FFF7ECFF02480460284670BD18020020FA
:105250008C06002003F056BE03F08CBE0149886026
:10526000704700000C02002003F096BE0349096855
:10527000CA6900B1C86110467047000018020020DA
:1052800003F0EABE024909688A7E887610467047B4
:1052900018020020094A30B41080094A1180094AD6
:1052A0001268537C084A52F82330DA68146A0A46B6
:1052B000A446014630BC1846604700005802002052
:1052C0005A0200201802002030020020024909681A
:1052D0000A7E0876104670471802002003490968C4
:1052E000B1F92C2088851046704700001802002074
:1052F00003490968B1F92A20488510467047000023
:105300001802002002480068002800D000477047BB
:105310006807002002498A6802B98860FFF7F2BF77
:105320001C07002010B5040009D00DF0F3F820464A
:105330000DF0BEFE2046BDE81040FEF7C5B810BD1A
:1053400038B50C4660B1FEF783F9009080892042A1
:1053500001D0012400E000246846FEF7C3F900E014
:105360000124204638BD38B5040012D0FEF770F98C
:105370000090FFF7E6F80146009882691144416108
:105380006846FEF7AFF920460DF092FE20460BF07E
:1053900087FF38BD38B50C46002806D0FEF758F90F
:1053A000009084616846FEF79DF938BD38B5054622
:1053B000002028600648046844B12046FEF748F9FA
:1053C0000090006928606846FEF78CF9204638BDD9
:1053D0000809002038B504004FF000000D460860B1
:1053E00011D02046FEF734F90090846844B1684635
:1053F000FEF778F92046FEF72BF900900069286047
:105400006846FEF76FF9204638BD00002DE9F84FD9
:10541000DFF898800546264F98F818008B4641071C
:1054200038680A9E9946407C924607D403F0CAFB2E
:1054300004463868407C03F0D1FB06E003F0CEFB65
:1054400004463868407C03F0BDFB002785B1441E4C
:10545000B9EB060000D54042142806DB5146BBEBF1
:105460000A0000D54042142804DA0120BDE8F88F74
:10547000641EEDE70A464B465946384600960BF047
:1054800053FF0C4F4B46524647F8350059462046CD
:1054900000960BF049FF07EBC50148600DF01EFABE
:1054A00001210020C8F81C10E0E700005C02002089
:1054B00018020020D0AC00202DE9F0474D4D4E4E93
:1054C0000024E86950B9686834607460B46010F012
:1054D000060FF4600DF002FA0120E8612878C8B1E7
:1054E00000F0E2F8A846286100F0DCF82969286A93
:1054F00081420BDBD8F824204046914206DC836AC7
:1055000042699A4202DBC36A9A420DDD4FF0FF30D6
:1055100001466AE000F0CAF8686100F0C4F8287833
:10552000401C2870BDE8F087326898F81800334FA7
:105530008D1A40073868407C02D403F043FB01E039
:1055400003F04CFB401E4543D6E90020B146801ACB
:1055500095FBF0F6D8F81420D9F8081098F8180040
:10556000551A40073868407C02D403F037FB01E04D
:1055700003F028FB401E4543D9E90201081A95FBB8
:10558000F0F598F8180040073868407C17D403F00D
:1055900019FB81463868407C03F020FBD8F81820BE
:1055A0000146D00703D0A9EB0600401E00E03046BC
:1055B000920702D5491B491E17E0294615E003F062
:1055C0000DFB81463868407C03F0FCFAD8F81820BF
:1055D000D10703D0A9EB0601491E00E0314692072E
:1055E00002D5401B401E00E028460DF0CBFC88F899
:1055F000004097E75C020020D0AC00201802002099
:10560000054910B591E81C0080E81C00087A0028C4
:1056100000D0012010BD0000C4AC00200149886109
:10562000704700005C020020074A002806DB0029C2
:1056300004DB01231372C2E9000101E000201072B3
:10564000014800F003B8000020AE002010B5044669
:105650000C220849FAF7AFFD002809D0054894E864
:105660000E0080E80E002046BDE81040FFF71ABD8E
:1056700010BD0000C4AC0020094B30B41A68821A77
:1056800000D552425C680C1B00D564422244022AB9
:1056900004DDC3E9000130BCFFF7C6BF30BC704772
:1056A000600700207047704710F034BD10F035BD22
:1056B000014A1268D26810471C020020014909689B
:1056C000096808471C020020014909684968084721
:1056D0001C02002001490968896808471C02002053
:1056E0002DE9F041084E04460568306801682846F7
:1056F0008847074630684168284688472844206024
:105700003846BDE8F08100001C0200202DE9F04180
:1057100000250E4680462C46064F06E0396808EB09
:1057200004004968884704446D1CA642F6DC2846FC
:10573000BDE8F0811C0200202DE9F0410C46064630
:105740000025064F05E03868416830468847064422
:105750000544641EF7D22846BDE8F0811C020020F3
:105760002DE9F0411E46069C1746884605463A46F6
:10577000A8687F1C3346D0F804C041462846E0475D
:10578000641EF4D1BDE8F08170B5B0F90040091B8A
:10579000B0F904408C422CDD00F11404B0F9025041
:1057A0000069521B02FB0040CA1800EBE104521EC4
:1057B000D010B0EBE10501F007034FF0FF0102F05C
:1057C000070221FA03F0C2F1070201FA02F1CEB298
:1057D00021780FD001436D1E04F8011B002D05DD5B
:1057E000FF2229462046FAF7CDFC2C44207830438E
:1057F000207070BD30400143217070BD10B5B0F90C
:105800000030B0F90240C91A00F114030069121BFC
:1058100002FB003000EBE10001F007030278802179
:10582000D9400A43027010BDB0F906100269514315
:105830001430FAF7AEBC00002DE9F843804602F1BF
:105840000F000011470003FB07F01C461546894670
:105850001430FDF71EFE060013D0FDF7F9FE009090
:10586000A0F80080A0F802908580C480064981607D
:105870000121818107616846FDF734FF3046BDE8AC
:10588000F8830020FBE7000034DE030870B5B0F9B0
:105890000660B0F904400B6800F1140596421BDD68
:1058A0000069A34202FB005000EBE30214DA641E1D
:1058B000E010A0EBE30512F8010B03F00704A04091
:1058C000C4B206E045B1083312F8014B23F00703D8
:1058D0006D1E002CF6D004E0002070BD6006040EA2
:1058E0005B1C2006FAD5FF2C07D0184602E06406A0
:1058F000240E401C6606FAD400E0D81DC443640799
:1059000005D006E012F8014BFF2C09D108306D1EBE
:10591000F8D5C01A401C0B6070BD6206140E401C06
:105920002206FAD4F5E738B50546FDF791FE00905A
:105930008189491E0CB284816846FDF7D3FE002C94
:1059400002D12846FDF7C0FD38BD2DE9F0411646CD
:105950000F460546002432463946284601F0E0F855
:10596000054408B1641CF6E72046BDE8F08100005C
:1059700010B54FF420410448FDF79EFDBDE81040EE
:105980000248FFF76BBC0000880B00201CD3020804
:1059900003490A6810440A68821A002AFBDC70472F
:1059A000C40100207047704701480068704700003C
:1059B000C4010020704730B41368202403F8014B61
:1059C000302403F8014B782403F8014B136030BCFA
:1059D000FDF740BF0EB508B102AA00E00022002387
:1059E00001A9684600F024FE0EBD0000074910B56D
:1059F000CC6818B10120C860801E03E00020C86098
:105A00006FF07F4002F058FE204610BD4007002096
:105A10002DE9F041984616460C4688B3FEF787FDFF
:105A2000074608F00300012825D0022817D0B4F952
:105A3000005000BFFEF752FD014608F00C0004289C
:105A40002BD00C281DD0B4F9020035807080EA19E3
:105A5000521E0844B280401EF080BDE8F081B4F9C7
:105A60000400B4F90010401AC01B401C00EBD070B9
:105A700001EB6005DEE7B4F90400C51B6D1CD9E736
:105A800010E0B4F90600B4F90220801A401A401C54
:105A900000EBD07002EB6000D7E7B4F90600401AC3
:105AA000401CD2E72068306060687060D5E7000075
:105AB00010B5082A0EDC0346012A18D0022A56D057
:105AC000042A76D010F8042B03F8012B491EF9D1D3
:105AD000012010BD102A08DC4FEA000230F8043B18
