:020000040800F2
:10000000500A0120450100085D8600084D76000871
:100010005986000849130008099C000800000000E8
:1000200000000000000000000000000039940008FB
:100030007D1B000800000000578B0008499700084E
:100040005F0100085F0100085F0100085F01000810
:100050005F0100085F0100085F0100085F01000800
:100060005F0100085F0100085F01000875180008C3
:100070005F0100085F0100085F0100085F010008E0
:100080005F0100085F0100085F0100085F010008D0
:100090005F0100085F0100085F0100080B220008F3
:1000A0005F0100085F0100085F0100085F010008B0
:1000B0005F0100085F0100085F0100085F010008A0
:1000C0005F0100085F0100085F0100085F01000890
:1000D0005F0100085F0100085F0100085F01000880
:1000E0005F0100085F0100085F0100085F01000870
:1000F0005F0100085F0100085F0100085F01000860
:100100005F0100085F0100085F0100085F0100084F
:100110005F0100085F0100085F0100085F0100083F
:100120005F0100085F0100085F0100085F0100082F
:10013000DFF80CD000F0C4FB004800476161010803
:10014000500A01200648804706480047FEE7FEE7C0
:10015000FEE7FEE7FEE7FEE7FEE7FEE7FEE7FEE777
:10016000519700083101000810B5431A934209D293
:100170008318881803E010F8011D03F8011D521EB2
:10018000F9D210BD40EA01039B0703D009E008C97A
:10019000121F08C0042AFAD203E011F8013B00F84C
:1001A000013B521EF9D210BDD2B201E000F8012B82
:1001B000491EFBD270470022F6E710B513460A46E7
:1001C00004461946FFF7F0FF204610BD421C10F808
:1001D000011B0029FBD1801A704730B5044600206E
:1001E000034600E05B1C934203D2E05CCD5C401B05
:1001F000F8D030BD034611F8012B00F8012B002A7E
:10020000F9D11846704770B5064613F0E7F8046850
:1002100005460A220021304600F085FA2C6070BDA8
:10022000F0B480EA0102D40F4200B2EB410F02D2D7
:100230000246084611464A0042D0C30DDDB2C1F362
:10024000C752AD1A202D35DAC1F3160141F4000270
:1002500004B15242C5F1200602FA06F12A411044C7
:10026000B3EBD05F23D0C4B1012DA0EBC35009DCA8
:10027000F0BC4FF0004202EAC35200F50000DBB2CE
:1002800000F092BA400000F1807000EBC350A0F182
:10029000807040EAD170490009E0490841EAC07124
:1002A000A0EBC35000F50000400800EBC350F0BCC9
:1002B00000F071BA6142012202EB4101001BF6E736
:1002C000F0BC704781F00041AAE780F00040A7E74A
:1002D00080EA010210B502F00043400026D04A0037
:1002E00023D04FEA106101EB1261C0F35600C2F354
:1002F000560240F4000042F40002A0FB0220A1F1EB
:100300007F014FEA0040140401D000F1010050EADF
:10031000124001D44000491EC2B20C0604EBD010BA
:10032000401C4008802A02D003E0002010BD20F0CD
:100330000100002900DA0020184310BD30B480EA23
:10034000010202F0004530F0004221F0004015D0DB
:10035000A0B1C0F3C753C2F3C754C2F31601C0F330
:100360001600E41A41F4000140F400027D34914289
:1003700001D3641C00E04900002C02DA30BC0020EC
:1003800070474FF400000023914201D3891A0343C0
:1003900040084FEA4101F7D151B1914202D14FF0EB
:1003A000004105E002D24FF0010101E06FF00101D0
:1003B00003EBC450284430BC00F0EDB92DE9FE4FEA
:1003C000804681EA0300C00F0C46009021F00041F6
:1003D00023F00045B8EB0200A94105D24046214672
:1003E00090461C460B46024623F00040104304D1C1
:1003F0004046214603B0BDE8F08F270DC7F30A0041
:10040000C3F30A510290401A0190402866DAC3F300
:10041000130040F4801B0098924620B10023D2EBD9
:10042000030A63EB0B0B01985946C0F1400250469A
:1004300000F048F906460D4650465946019A00F02C
:1004400060F910EB08006141002487EA115284EA48
:10045000E7731A433BD0009A3AB3019A012A4FEA54
:10046000075210DC001B61EB02014FF0004202EA70
:100470000752CDE90042001C41F5801132462B465F
:1004800000F0CCF9B6E7001B61EB0201001C41F55E
:10049000801300185B412018A2F5001747EB0301F9
:1004A00040EAD570B6196D4111E06D084FEA360685
:1004B00045EAC0754FEA0752001B61EB0201001CC0
:1004C00041F5801149084FEA300000195141324688
:1004D0002B4603B0BDE8F04F00F093B9009801221D
:1004E00040000023D0EB020263EBE073009821464A
:1004F0004FEAE074B8EB000061EB0401E9E783F038
:1005000000435BE781F0004158E72DE9FE4F81EAA7
:10051000030404F0004421F0004100944FF0000B6C
:1005200023F0004350EA010402D052EA030404D14C
:100530000020014603B0BDE8F08FC3F30A54C1F3B5
:100540000A552C44A4F2F3340194A0FB0254C1F3E5
:10055000130141F48011C3F3130343F4801301FB2F
:10056000024400FB034E840A970A44EA815447EA96
:100570008357A4FB076802958D0A05FB07854FEAA0
:10058000932C04FB0C542705029D4FEA065847EABA
:100590001637B5EB08056EEB070C870E920E47EA8F
:1005A000811742EA8312A7FB0201B6EB0B0164EB51
:1005B00000042B0D43EA0C335E1844EB1C50DA4662
:1005C0005146E7FB0201C5F313044FEA0B3343EA3C
:1005D00014534FEA0432019C43EA0603A4F10C04CD
:1005E0000294009CCDE900B400F018F9A2E7C10F15
:1005F00080EAE0700844CA079623002100F0D4B8CE
:1006000096230022114600F0CFB80EB5C10F80EA44
:10061000E0700844CA07002140F233438DE80E0021
:100620000A460B4600F0FAF803B000BD00F00042A5
:1006300020F00040C10DC0F3160040F400007F29F7
:1006400001DA00207047962903DCC1F19601C84009
:1006500001E096398840002AF4D04042704720F0EB
:100660000040C10DC0F3160040F400007F2901DAFC
:1006700000207047962903DCC1F19601C8407047FD
:1006800096398840704770B5C1F30A5201F00045B1
:100690000024C1F3130140F2FF3341F480119A4268
:1006A00001DA002070BD40F233439A42A2F2334295
:1006B00003DC524200F015F800E090402C43F1D0EA
:1006C000404270BD202A04DB203A00FA02F10020EB
:1006D00070479140C2F1200320FA03F31943904080
:1006E0007047202A04DB203A21FA02F000217047EB
:1006F00021FA02F3D040C2F120029140084319468A
:100700007047202A06DBCB17203A41FA02F043EA71
:10071000E07306E041FA02F3D040C2F120029140BA
:100720000843194670472DE9F04791460F46804629
:100730000446002614F8015B2DB100F0D3F80068E0
:10074000405DC007F6D12B2D02D02D2D18D0641E90
:100750004A463946204600F0C9F827B13968A14217
:1007600001D1C7F8008071054FF002040BD540425B
:10077000002803DD12F032FE0460A007BDE8F08718
:1007800046F48066E4E70028F8DA12F027FE0460F9
:100790006FF00040F2E70029A8BF7047401C4900F5
:1007A00008BF20F00100704710B4B0FA80FC00FAD6
:1007B0000CF050EA010404BF10BC704749B1CCF101
:1007C000200421FA04F411FA0CF118BF012121438D
:1007D0000843A3EB0C01CB1D0106000A002BBEBF92
:1007E000002010BC704700EBC35010440029A4BF88
:1007F00010BC7047401C490008BF20F0010010BC2D
:10080000704710B5002B08DA401C41F10001921826
:100810005B411A4301D120F0010010BD2DE9F04DDC
:1008200092469B4611B1B1FA81F202E0B0FA80F231
:1008300020329046FFF746FF04460F4640EA0A0082
:1008400041EA0B0153465A46084303D12046394634
:10085000BDE8F08D114653EA010015D0C8F1400201
:100860005046FFF73EFF05460E4650465946424663
:10087000FFF728FF084301D0012000E000200543D6
:1008800046EAE0762C4337430A984FEA4453A0EBFC
:1008900008004FEAD4240A304FF0000244EA4754DB
:1008A0004FEAD72502D500200146D1E701051019EE
:1008B0006941DDE9084500196941BDE8F04DA0E74F
:1008C000064C074D06E0E06840F0010394E807009D
:1008D00098471034AC42F6D3FFF72EFCA45C07080F
:1008E000C45C070800487047485B07082DE9F05FC3
:1008F00082460078002715468B460AF10104B94666
:10090000302801D09DB113E014F8010B012778289D
:1009100003D0582801D045B10AE00DB1102D07D100
:100920000027102514F8010B02E0082500E00A2535
:100930000026B0460EE005FB080005FB06F1012786
:1009400001EB10461FFA80F8B6F5803F00D3B94698
:1009500014F8010B294600F018F80028EBDABBF177
:10096000000F05D00FB1641E00E05446CBF80040E4
:10097000B9F1000F06D012F031FD02210160C81E4E
:10098000BDE8F09F48EA0640FAE73A2800D230383E
:1009900020F02002412A01D3A2F13700884201D37E
:1009A0004FF0FF30704770B501EB020410F8015BA7
:1009B00015F0070301D110F8013B2A1106D110F8F8
:1009C000012B03E010F8016B01F8016B5B1EF9D1FC
:1009D0002B0705D40023521E0FD401F8013BFAE780
:1009E00010F8013B02F10202A1EB030303E013F84C
:1009F000015B01F8015B521EF9D5A142D6D300205C
:100A000070BD21B1826842F00102826003E0826819
:100A100022F001028260704721B1826842F4807244
:100A2000826003E0826822F480728260704701462F
:100A300000208A6812F0040F01D0012000E000209D
:100A40007047014600208A6812F0080F01D001208B
:100A500000E000207047000030B50246002000236F
:100A600050680F4C20400D790C6844EA052420435F
:100A7000506090680B4C2040D1E902542C434D79D2
:100A800044EA450420439060D06A20F470000C7C56
:100A9000641EE4B2234340EA0350D06230BD00003C
:100AA000FFFEF0FFFDF7F1FFF0B504460D46002014
:100AB0000021092D11DDE068A5F10A0606EB4607C5
:100AC000072606FA07F18843A5F10A0606EB460653
:100AD00003FA06F10843E0600CE0206905EB4507E6
:100AE000072606FA07F1884305EB450603FA06F1E7
:100AF00008432061072A0FDA606B561E06EB860753
:100B00001F2606FA07F18843561E06EB860605FAED
:100B100006F10843606322E00D2A0FDA206BD61F2E
:100B200006EB86071F2606FA07F18843D61F06EB59
:100B3000860605FA06F10843206310E0E06AA2F198
:100B40000D0606EB86071F2606FA07F18843A2F179
:100B50000D0606EB860605FA06F10843E062F0BDD5
:100B6000816841F008018160704721B1826842F4D8
:100B7000A002826003E0826822F4A00282607047D3
:100B8000816841F0040181607047000008B50121CF
:100B9000142008F0F9F90F20ADF8000000208DF8BE
:100BA00003006946064802F005FD1F20ADF800006D
:100BB00000208DF803006946024802F0FBFC08BDE6
:100BC000001001400008014010B5FFF7DFFF00F002
:100BD00001F810BD00B591B00121084608F0C4F934
:100BE0000121480208F0D0F9594800F053FE594855
:100BF000069059480790002008900920099000208D
:100C00000A9080200B9040000C9080000D902020D6
:100C10000E9000020F900020109006A94C4800F0A2
:100C2000E8FE01214A4800F029FE00200190012041
:100C30008DF808008DF809004FF460200390002023
:100C4000049009208DF8140001A942484C38FFF7A0
:100C500003FF4FF4404008F07BF9062301220A21EC
:100C60003C484C38FFF720FF062302220B2139486D
:100C70004C38FFF719FF062303220C2135484C3866
:100C8000FFF712FF062304220D2132484C38FFF7EC
:100C90000BFF0623052200212E484C38FFF704FFE6
:100CA00006231A4601212B484C38FFF7FDFE062388
:100CB0000722022127484C38FFF7F6FE06230822B8
:100CC000032124484C38FFF7EFFE072309220421B3
:100CD00020484C38FFF7E8FE01211E484C38FFF74A
:100CE0009BFE01211B484C38FFF78BFE19484C38FE
:100CF000FFF736FF00BF17484C38FFF7A2FE002869
:100D0000F9D114484C38FFF73BFF00BF11484C386D
:100D1000FFF78DFE0028F9D10B208DF8000001208F
:100D20008DF8010000208DF8020001208DF80300ED
:100D3000684607F095FC01220221054800F050FEAC
:100D4000012104484C38FFF710FF11B000BD00002E
:100D5000080002404C240140C4070020002800DCA9
:100D600040427047002011E00D4951F820100D4A13
:100D700032F8102011440A4A42F820100A4931F88A
:100D80001010491C084A22F81010401C0928EBDBFF
:100D90000648406840F00100044948607047000080
:100DA000E8070020C4070020D6070020000002400A
:100DB00038B5456804460146284608F03BFF002840
:100DC0002BD02068304A11280DD006DC0B2825D006
:100DD0000E2833D00F2852D112E0282849D0B0F580
:100DE000107F4CD108E09268002A16D02146284690
:100DF00001B0BDE830401047214628465268F7E769
:100E0000284602F09BFF0090406E0468684602F09E
:100E1000DFFF002C01D02846A04738BD284602F04D
:100E20008DFF0090683002F0EDFE009803216C30D9
:100E300002F0F0FE684602F0CBFF20E0E16848686F
:100E400009680D2902D0202913D105E0002810DD02
:100E5000284610F023F806E0002804DD2846BDE807
:100E6000384010F01BB82846BDE83840022110F089
:100E70002BB8E06818B90021284600F0F0F92046A8
:100E8000BDE8384009F074BA140100202DE9FF4193
:100E90000AAF97E87000002703958DE8D00000F0B6
:100EA00003F804B0BDE8F081F0B585B00DF1280C71
:100EB0009CE8F0004FF0000C8DE8F01000F024F8F2
:100EC00005B0F0BDF0B5044685B08069B4F90850AE
:100ED000668A0027CDE90265CDE900170490B4F9D0
:100EE0000C00B4F91060C118B4F90A00B4F90E503E
:100EF000104433462A4600F007F80546616800F0C2
:100F0000CDF905B02846F0BDF0B585B00C46DDE959
:100F10000D51DFF854C04C31DDE90A67CDE902C15B
:100F20002146CDE9006709F075F9040018D002F0F8
:100F300005FF10222946049009F02CF8049830226D
:100F40000A493430FFF710F9084D04990C3D286820
:100F5000486604A802F03CFF28684168204688479C
:100F600005B02046F0BD0000B10D000820010020B2
:100F7000F0B5044680688B4989B051F8205060680C
:100F800000287DD0052804D006287AD0122879D1EF
:100F9000AEE0E86900284FD095E80E008DE80F001C
:100FA00004F110010FC905F0C1FE002655F8260016
:100FB00004F094FCA169E8690A1A21690144606996
:100FC000304403F0D3FCA169E8690A1A216901449D
:100FD000E069801B03F0CAFCE169E8690A1A6169EB
:100FE00001442069304403F061FDE169E8690A1AAF
:100FF00061690144A069801B03F058FD761C022E34
:10100000D4DBA86804F06AFCE069E9696669431A00
:10101000206942183144801C521E03F0DFFDE16953
:10102000E869A2690B1A61690144101A401C921EFA
:1010300003F0D4FDEE6913E05FF0000655F82600DA
:1010400004F04CFCE069831BA069821B6069811974
:101050002069304403F0ECFC761C022EEEDB022605
:10106000D5E90301CDE900016169E0690844431055
:10107000A069891C821B2069304403F043FC02E014
:1010800089E012E08AE0D5E90501CDE90001E369D4
:1010900060690121184401EB6001A0699B1E821B5D
:1010A0002069304403F02EFC78E0206802F046FE10
:1010B000049020680AF0C6FB40B1A06808B1002087
:1010C00008E00498006F28B1012003E00498406F05
:1010D00000B10220049901EB8000C56E04A802F063
:1010E00077FE00231A462846216803F0BFF955E031
:1010F000206802F023FE0490866EEEB3B0F95C70B7
:10110000A168D1B3032942D05FF0000100EB810157
:10111000406D0C6C04F0ECFB204604F0DFFB05A8EE
:1011200003F0FCFDBDF81410A88B0144ADF81410B9
:10113000BDF81810081AADF81800BDF81600801C8C
:10114000ADF81600BDF81A00801EADF81A0004981C
:10115000B0F96020B0F95E1005A804F0CFFA04A839
:1011600002F036FE022004F005FC304602F0E6FDF7
:101170003A4605A9079001E00BE006E003F066FAA5
:101180000DF11C0002F024FE08E00121BEE702215F
:10119000BCE704A8F6E720680AF020F809B00020B0
:1011A000F0BD0000500307082DE9FC4115460E462E
:1011B00000281DD002F0C2FD0190806E002798B17A
:1011C00002F0BCFD0090FFF701F80446681E84425F
:1011D00000DD0446224630460099FEF7C5FF68460A
:1011E00002F0F6FD375500E0377001A802F0F0FD7F
:1011F000BDE8FC8170B516460C46054619463046DA
:10120000049A03F0FFF8024621462846BDE87040E4
:1012100000F080B8044A0349116004494A6A4862F0
:1012200010467047500100201401002020010020CA
:1012300000294FF0100101D008F08CBD08F0E6BC89
:1012400038B50D46040009D002F078FD00904565E0
:10125000684602F0BDFD204609F0E9FC38BD4FF4B8
:1012600080720029114601D008F074BD08F0CEBC90
:1012700008B50023009300F001F808BD70B51646CC
:101280000C46054619463046049A03F0D7F8024644
:1012900021462846BDE8704000F03CB82DE9FF41EA
:1012A0000E4605004FF001041CD002F047FD0190EE
:1012B000876E01A8009702F08BFD3146684606F064
:1012C00077F878B100980024B84208D0284602F098
:1012D00035FD01900099816601A802F079FD28464C
:1012E00009F0A5FC04B02046BDE8F081F8B515462C
:1012F0000C4606000DD002F021FD0090032C02D216
:1013000000EB84000564684602F062FD304609F097
:101310008EFCF8BDF8B515460C46060013D002F059
:101320000DFD0090032C0BD200EB84006C3002F01A
:1013300069FC009800EB8400C566304609F077FC34
:10134000684602F045FDF8BD00BFFEE72DE9FF4706
:101350000446006810B10AF075FA68B100223148FD
:1013600050F8221060680A2841D007DCF0B3062844
:101370000DD0072854D106E00122F0E712280AD048
:1013800019284DD137E020460BF0A0FC48E020465C
:101390000CF058FE44E0206802F0D0FC0290B0F956
:1013A000548090F85650476C466B02A802F010FD2E
:1013B000206800F039F88146684609F0DFF8BDF88A
:1013C000001009EB05000844ADF80000246A30461F
:1013D00004F08EFA022004F0CDFA384604F07EFACA
:1013E00042466946204603F031F919E007E02046FD
:1013F0000DF08BF814E0886904B0BDE8F087206830
:1014000009F0ECFE206802F099FC0390B0F9061098
:10141000B0F90220891A491CC16703A802F0D8FC60
:101420000020E9E76003070838B502F087FC009068
:10143000C46F684602F0CCFC204638BD044A03491C
:1014400011600449CA69C86110467047DC01002078
:101450004C0600205006002000B589B024216846C3
:10146000FEF7A9FE192001900348006880684168D2
:101470006846884709B000BD4C0600202DE9FC4FA6
:101480008046894617469A46002001900025022092
:10149000009000260DE13C46FF2C02DCA0200190CC
:1014A00028E0B4F5007F02DAA220019022E0B4F532
:1014B000407F02DAA42001901CE0B4F5806F02DACC
:1014C000A620019016E0B4F5A06F02DAA8200190E2
:1014D00010E0B4F5C06F02DAAA2001900AE0B4F57A
:1014E000E06F02DAAC20019004E0B4F5006F01DA9D
:1014F000AE200190464609F0FF0B0025BAF1000F1F
:101500005BD052E0FF2C02DCA020019028E0B4F573
:10151000007F02DAA220019022E0B4F5407F02DAD7
:10152000A42001901CE0B4F5806F02DAA62001909F
:1015300016E0B4F5A06F02DAA820019010E0B4F52F
:10154000C06F02DAAA2001900AE0B4F5E06F02DA77
:10155000AC20019004E0B4F5006F01DAAE200190F8
:1015600008F052F8019807F0AFFF07F059FD284442
:10157000C5B2E0B207F0A8FF07F052FD2844C5B29B
:1015800008F042F80199491CC8B207F09DFF07F026
:1015900047FD2844C5B207F073FD06F8010B601C37
:1015A00084B207F0A1F808F067F85FEA0B00ABF12E
:1015B000010101F0FF0BA5D179E008F025F82844DE
:1015C000C5B2019807F080FF07F02AFD2844C5B294
:1015D000E0B207F079FF07F023FD2844C5B253E0DD
:1015E00016F8010B07F070FF07F01AFD2844C5B28A
:1015F000601C84B2E11704EB11710911B4EB011105
:1016000042D108F039F80A2000F0B9FAFF2C02DCC8
:10161000A020019028E0B4F5007F02DAA22001901A
:1016200022E0B4F5407F02DAA42001901CE0B4F57A
:10163000806F02DAA620019016E0B4F5A06F02DAFE
:10164000A820019010E0B4F5C06F02DAAA20019042
:101650000AE0B4F5E06F02DAAC20019004E0B4F5E2
:10166000006F01DAAE20019007F0CEFF019807F07D
:101670002BFF07F0D5FC2844C5B2E0B207F024FFE9
:1016800007F0CEFC2844C5B2ABF10100C0B25FEA5E
:10169000000BA5D116F8010B07F016FF07F0C0FCF0
:1016A0002844C5B207F0E8FF0A2000F068FA05B93F
:1016B00006E00098411EC9B2009100287FF4EBAE0D
:1016C00000BFB0462846BDE8FC8F00002DE9F04180
:1016D00086B004460D461646042009F0D3FC08F0F7
:1016E00069FF0746234909F04BFC08F063FF0746F2
:1016F00000200821CDE90465CDE902100220CDE9E2
:10170000007094E80F0000F0BDFE20611A492069C6
:1017100009F036FC60612821206901F0E0F91749E1
:10172000206901F079F90E21206901F0C4F9012244
:101730001146206900F0B6FD40F60B03012202219C
:10174000206900F063FD8046052003460C4A002115
:1017500000904046FFF74EFD40F60C030A2202219E
:10176000206900F053FD804614F0C2FD206906B0E8
:10177000BDE8F08189340108BD58010850FC060815
:1017800024BC02082DE9FC4104460D4616461F46BE
:10179000DDF820801548006809F09EFA20BB144847
:1017A000408908B31348C0F800800020124908603F
:1017B00012490F8048802346114A10211148CDE973
:1017C000005602F037FD094908600846006809F034
:1017D00085FA4FF480600C4908600846446003486D
:1017E000006888600548C860BDE8FC8148000020AA
:1017F000B60700204C0000205000002054000020BC
:10180000214B010870D20208840800201CB5084949
:10181000086908F0C3FE0446002000902346054AEC
:101820003A210190044802F005FD044908601CBDFE
:101830005C08002095510108203B0308400000206F
:101840001CB50849086908F0A9FE0446002000906C
:101850002346054A39210190044802F0EBFC044973
:1018600008601CBD5C080020C93401082CA70208D0
:101870003C00002010B5FFF775FA10BD21B10268D9
:1018800042F00102026004E002684FF6FE731A4063
:101890000260704701684FF6FE721140016000213E
:1018A000016041608160C1604B49884208D14A496A
:1018B0000839496841F00F01474A083A51608AE007
:1018C00045491431884208D143490839496841F0F3
:1018D000F001414A083A51607DE03F492831884291
:1018E00008D13D490839496841F470613A4A083ADB
:1018F000516070E038493C31884208D13649083996
:10190000496841F47041344A083A516063E0324911
:101910005031884208D130490839496841F4702172
:101920002D4A083A516056E02B496431884208D16B
:1019300029490839496841F47001274A083A516039
:1019400049E025497831884208D123490839496856
:1019500041F07061204A083A51603CE01F498842DA
:1019600006D1011F096841F00F01021F116032E02A
:101970001A491431884208D11849091F096841F0F1
:10198000F001164A121F116025E0144928318842DF
:1019900008D11249091F096841F470610F4A121FEA
:1019A000116018E00D493C31884208D10B49091FEC
:1019B000096841F47041094A121F11600BE00749A0
:1019C0005031884207D10549091F096841F4702147
:1019D000024A121F116070470800024008040240CA
:1019E0001AB103680B43036002E003688B43036092
:1019F000704710B50022026847F6F0739A430C6AEC
:101A00008B6823430C6923434C6923438C6923432C
:101A1000CC6923434C6A23438C6A23431A430260F4
:101A2000CB6843600B6883604B68C36010BD0000E7
:101A3000F8B50546006802F081F90090448ED0F8B0
:101A40008860684602F0C4F906B1012604F001047A
:101A5000286809F0F7FE0EB1002006E00CB1012065
:101A600003E008B1022000E003201B4951F82010D8
:101A7000686858B302280CD0052802D0122828D153
:101A800003E028460BF04EF923E028460DF0BFF89E
:101A90001FE06A69E8694FF0FF33801AA0F108027D
:101AA00003EB6204421CAB69001B4510A3EB62060A
:101AB000C86903F013FF06E03219311B284602F013
:101AC00055FF641E6D1C002CF6DA02E0286809F050
:101AD00085FB0020F8BD000068030708044A03499D
:101AE000116004490A6B0863104670472802002001
:101AF0008C0600209006002038B50D46002402F028
:101B00001DF90090C06B294602F0FAF905466846B7
:101B100002F05EF91DB1284602F010F90446204695
:101B200038BD000008B54FF6FF70ADF80000482042
:101B30008DF803006946024801F03CFD08BD000035
:101B4000000C014008B54FF6FF70ADF80000102002
:101B50008DF8030003208DF802006946014801F06A
:101B600029FD08BD000C01400349888000BF0249DF
:101B700089880029FBDC7047AC07002070470146CC
:101B800005E0002001E0421C90B2FF28FBDB0A00C8
:101B9000A1F1010399B2F4D17047000010B50446D9
:101BA00022465A21014802F001FE10BDF8630608E2
:101BB0002DE9FC470E465FEA000978D002F0BEF836
:101BC000009090F85470D0F85880456BC46C68460B
:101BD00002F0FEF8B8F1000F04D031464846424604
:101BE000904761E0122E18D006DC082E43D0102E4C
:101BF0003CD0112E06D112E0132E21D01D2E43D041
:101C00001E2E3DD0202E4FDB17B148460AF0D1FEE4
:101C1000B1B248460EF06AFE60B3611C27E04DB3D6
:101C2000284602F08BF805462146019004F0EEF8B4
:101C30004419204604F0ACF801462346012210E086
:101C4000C5B1284602F07AF805462146019004F015
:101C5000DDF84419204604F09BF8014623464FF076
:101C6000FF3248460AF0F6FB01A81BE0611E484619
:101C700000F0A1FA18E0BCB1611E484600F09BFAE2
:101C800048460AF096FE0FE0484602F057F80090EA
:101C9000012F0ED0012180F854102146484600F053
:101CA0008AFA684602F094F8484608F0C0FFBDE89A
:101CB000FC87002180F85410F3E7FEB54468054620
:101CC000204609F0BFFD06462946204607F0B2FF30
:101CD000002837D028680F2830D004DC0B2832D0F9
:101CE0000E2853D13AE0A0F58070133804D0A0F547
:101CF00080702D384AD110E0204609F00DF92046B9
:101D000000210FF0EEFA204602F018F80190C06FA3
:101D1000002109F0E7F801A81DE0E86860B1017A48
:101D200029B10168204600F0CDF8012100E0022130
:101D3000204609F02EF829E00321F9E70121204689
:101D40000FF0CFFAFEBD204601F0F8FF00903430CE
:101D500001F058FF684602F03BF817E0B6B1E868BA
:101D60004168002912DD01681B290FD006DC092912
:101D70000CD00A290AD00D2904D107E0212905D069
:101D8000222903D02046FFF713FFFEBD284608F0A6
:101D9000EFFAFEBDF0B587B004460DF1080CD4E9AA
:101DA0000567B0F90850408A8CE8E1000020CDE9D1
:101DB0000010B4F90C00B4F91060C118B4F90A00AD
:101DC000B4F90E50104433462A4600F009F80500D5
:101DD00002D0618A00F0C7F907B02846F0BD0000C4
:101DE000F0B585B00D46DDE90D640F9FDDE90AC150
:101DF00041F48051DFF870E0CDE900C15837CDE9FA
:101E000002E7294608F006FA05002AD001F096FFFD
:101E100010223146049008F0BDF804981C221349A2
:101E20006030FEF7A1F90499012081F85500601C8B
:101E300000D0012081F88000002C00DC082424B2AE
:101E40000C8700204887486304A8641C01F0C0FF89
:101E5000214628460EF00BFC18B9284608F0BCFABB
:101E6000002505B02846F0BDBB1C0008E402002098
:101E70002DE9FC4115460E0022D0002820D001F0AB
:101E80005DFF002701903770406BB0B101F056FF45
:101E9000009005F003F90146009803F0B7FF0446EF
:101EA000681E844200DD0446224630460099FEF753
:101EB0005BF9684601F08CFF375501A801F088FFF7
:101EC000BDE8FC812DE9F04186B00C46060050D0FB
:101ED00001F034FF0090406B98B301F02FFF0390A6
:101EE0000098806E03F004FD8046304608F0ECFB5D
:101EF0000746039802F05FFF0546009890F86010CF
:101F000001F00301012916D002290DD0416EC06AEB
:101F100000680844241A641E039805F0BFF80146BF
:101F2000002C0FDA002115E0781B401C00EBD0706C
:101F3000A4EB6004F0E7406E791B081A241A641CB5
:101F4000EAE713E0AC4205DC02462146039805F0BF
:101F500045F80146304600F02EF903A801F038FF9D
:101F6000404603F0C5FC304608F061FE684601F0CB
:101F70002FFF06B0BDE8F0812DE9F8431D46DDE9ED
:101F8000084916460F465FEA000840D001F0D6FE29
:101F90002049009081652049C1650021C0E9127186
:101FA000E0E90F650121047280F81A90017690F83B
:101FB0004470684601F00CFF87B128460EF031F8F6
:101FC000054630460EF02DF80CB1401C6D1C8542C4
:101FD00000DD28460146404600F031F8404610F04A
:101FE00063FD404601F0AAFE009000F0CFF80B49D7
:101FF0000978884205D10098C16C4046491C00F020
:10200000DAF8684601F0E4FE404608F010FEBDE84C
:10201000F883000005BF0008A92A01087C00002001
:1020200038B50D46040009D001F088FE00908566A1
:10203000204608F0FCFD684601F0CAFE38BD7CB5BC
:102040000C4606002ED001F079FE0090B0F9381051
:10205000458FA14223D012DD406B80B101F06EFEAE
:10206000019005F01BF8A04206DD2146019803F01F
:10207000CDFE019A0021115401A801F0A9FE684685
:1020800001F0A6FE611B3046491C0EF0F0FA304606
:1020900001F054FE00900487304608F0C8FD684601
:1020A00001F096FE7CBD2DE9FC4788465FEA0009F9
:1020B0004FF0000655D001F041FE0090B0F93850C5
:1020C000446B684601F084FE0027B8F1000F3ED053
:1020D0004CB1204601F032FE0190FEF777F8461C25
:1020E00001A801F075FE404604F0D8FF0446A8425E
:1020F00000DD2C462146404603F088FE451CA91B06
:1021000048460EF0A7FC08B3484601F017FE0090C1
:10211000406B01F013FE2A4641460190FEF724F879
:102120000198284400F8017C0098C464B0F9381084
:102130008C4205D190F85410012901D1641EC46469
:1021400001A801F045FE684601F042FE06E0009855
:10215000343001F057FD00984787C764484608F0BF
:1021600066FDBDE8FC8738B50C4605000AD001F0D5
:10217000E5FD009018B10466284608F058FD684651
:1021800001F026FE38BD002210F03EBB38B50546F2
:10219000406B002468B101F0D1FD00900446E96C69
:1021A00003F034FE204403F0F3FD0446684601F0DA
:1021B0000FFE204638BD1CB50C4601F0BFFD009057
:1021C000406BF0B101F0BAFD019004F067FF009997
:1021D00091F8542002B10122002C00DA002484423C
:1021E00000DD0446B1F93800801AA04200DA044646
:1021F000C86CA04200D0CC640020086501A801F0A2
:10220000E7FD684601F0E4FD1CBD70472DE9F04391
:1022100089B0984615460F4606004FF0000428D0B6
:1022200000F0B8FB0446304600F0A0FB814603A94D
:10223000304600F08DFCF80706D0BDF91C00822165
:10224000001B401B401C08E0B807BDF918002844DB
:1022500002D540F2022100E002210096CDE9018181
:1022600023461A464946FEF711FE04460021FEF7B2
:10227000DFFF09B02046BDE8F083000010B505235C
:10228000FFF7C4FF0446054A0021FEF7F1FF0449A9
:10229000204608F075FE204610BD0000DDCA00088B
:1022A000B534010810B50823FFF7B0FF0446054A0E
:1022B0000021FEF7DDFF0449204608F061FE2046BC
:1022C00010BD000029CC0008555901082DE9F04740
:1022D000044640688EB00027804601F02FFD009034
:1022E000B0F87CA0D0F86890D0F88060D0F8885022
:1022F000C06D00B10768684601F06AFD05E06968D5
:1023000020468847002843D12D68002DF7D120684A
:10231000172853D00CDC0F283DD004DC0B2877D0D5
:102320000D2825D18BE0112810D0142820D13BE0B6
:10233000262846D004DC1E2851D0202818D18AE057
:102340002A2816D0B0F5107F12D128E04046E56863
:1023500001F0F4FC0290697A39B9297A012904D193
:1023600030F87C1F41F48071018002A801F030FD3B
:1023700075E0404601F0E2FC0090E16811B1C0F860
:10238000841002E0D0F88400E060684601F020FD8F
:102390000EB0BDE8F087D7B34046B8475FE02146AE
:1023A00040460EF045FEF3E705A9404600F0D0FB9D
:1023B000E0680699016007994160E9E7C4F80C906C
:1023C000E6E7E0680228E3D1CDF83080E0680D90C0
:1023D00027200A900AA9A06809F044FCD8E7E06821
:1023E000012804D00021404600F0FCFAD0E7304636
:1023F00008F072FC68B1304608F07AFE304608F00A
:102400004DFB98B10121304607F0A4FC0EE026E018
:102410002FE0484608F0BAFE0646404601F08EFC22
:102420000090C0F88060684601F0D2FC012140466F
:1024300000F0D8FA002EABD10020E060A8E75FEAF8
:102440000A700CD4E068C06848B1007A38B14046E0
:1024500008F04EFE03E0214640460EF052FD2146B4
:10246000404607F0E7FB002892D0204607F080FFA7
:102470008EE7404601F062FC0090703001F0C2FB34
:10248000684673E72DE9F04387B00DF138088146BF
:1024900098E8F1104FF00008CDF818808DE8F110A1
:1024A000484600F023F807B0BDE8F083F0B587B0E8
:1024B000B0F908400DF10C0C0C9E876945688CE85A
:1024C000F000448A0025CDE900150294B0F90C1003
:1024D000B0F91050B0F90E40B0F90A001944104498
:1024E0002B46224600F002F807B0F0BD2DE9F04778
:1024F0008AB00DF14C0CDDE917849CE86006129F50
:1025000045F48055DFF8BCC06034CDE902C4CDE9A4
:10251000007507F07FFE04004FD001F00FFC302261
:102520004946049007F036FD0498282226493430A5
:10253000FDF71AFE0498244FC0F86480A0F87C6070
:102540000026C0F88060C666083FC0F888607968D9
:10255000C16504A801F03CFC05A9204600F0F8FA8A
:102560001A4841F2827103960094CDE90110BDF939
:102570001E00BDF91A10BDF91C20431ABDF9180040
:102580005B1C121A521C07F045FE0646786841682B
:1025900020468847204601F0D1FB0490866604A8B7
:1025A00001F016FC42F20400054202D1204607F079
:1025B00085FF5146204600F05FFA0AB02046BDE88C
:1025C000F0870000CD22000808030020592E0008E3
:1025D0002DE9F041044694B0006800F0B7F908B165
:1025E000D94D01E0D84D2C35606815281ED00CDC83
:1025F0000B281FD004DC00287ED005287DD12FE1D8
:102600000E287BD01228F9D141E1162806D01728D0
:1026100008D0182808D01C28F0D109E0E86914B0C7
:10262000BDE8F081286AFAE7686AF8E7A86AF6E781
:102630006869F4E720680B901C200C90206801F07A
:102640007DFB0390016D0BA88847064603A801F0A7
:10265000BFFB022E0FDB95E807008DE80700D4E9E9
:1026600004023346A16904F02FFB20698719A06991
:10267000A0EB06082CE0286803F030F92169E8692E
:102680000A18521E606902F071F9A269E869111A0C
:10269000491C606902F06AF9D4E904077F1C3946D5
:1026A00002F0A6F93946A06902F0A2F9686803F0C1
:1026B00015F920693946401C02F09AF9A06939469B
:1026C000401E02F095F9A0692769A0F10208BF1C1D
:1026D000286803F003F942463946606902F046F97A
:1026E000686803F0FBF8606942463946401C02F016
:1026F0003DF9686A022802E015E1B0E000E10BDD77
:10270000A86803F0EBF861696A6A881C8B180146B7
:10271000424638465B1E27E0296AB14226DD6069E1
:10272000022E074600F1020801DB374401E007F101
:102730000207206901DB304401E000F10200226958
:102740003B460A444146A2F1010202F047FA022E3A
:1027500002DBA069821B01E0A269921EA069E969FF
:102760003B46401A4146401C02F038FA022E02DB7A
:102770006069064401E06669B61CE76928687F1E47
:1027800003F0ACF83A463146206902F08FF93A4638
:102790003146A06902F08AF9E7696868BF1E03F054
:1027A0009DF820693A463146401C02F07FF9A06945
:1027B0003A463146401E02F079F9E869022802DC07
:1027C000286A022823DDA86A022802DDE1690F1ABF
:1027D00001E0E769BF1EA86803F080F8E9690229F3
:1027E00009DD20693B46421800F1020C3146604683
:1027F000521E02F0F3F9286A022808DDA269E8698E
:102800003B46101A3146401C921E02F0E7F9286838
:1028100003F064F8D4E90620216902F0A7F868689B
:1028200003F05CF8D4E906202169401E491C521EC1
:1028300002F09CF8A86A022811DDA1692669E46902
:10284000A1F10208271AA41EB61C7F1CA86803F079
:1028500045F8234642463946304602F0BFF971E05A
:10286000208A00B2ADF81400A18A09B2ADF81610A2
:10287000228B12B2ADF81820A38B1BB2ADF81A3020
:102880002C69ED68CDE9005402F03CF85AE0208A4A
:10289000298B0844ADF81400A08AADF81600208BEF
:1028A000298B401AADF81800A08BADF81A002068EB
:1028B00001F044FA0390006FF0B1022003F05AF8DF
:1028C000039890F87C10C1F3C00100EB8100006C0C
:1028D00003F004F80398406B03F00AF80398006FC4
:1028E00001F02CFA03990990B1F95A2005A901F0D9
:1028F000ADFE09A801F06CFA03A801F069FA21E025
:10290000208AADF81400A08AADF81600208BADF82F
:102910001800A08BADF81A00A86802F0DFFF05A828
:1029200002F080F90EE0206801F008FA039030F818
:102930005A1F41F00C01018003A801F049FA2068F8
:1029400008F04CFC00206AE64403002038B500245F
:1029500050B101F0F3F9009090F87C00000700D529
:102960000124684601F034FA204638BD38B5050028
:102970004FF000040CD001F0E1F90090C06D00218F
:1029800080680268284690470446684601F020FAAD
:10299000204638BD30B587B005004FF000040ED09A
:1029A00001A900F0D5F8284601F0C8F90090B0F967
:1029B0005440684601F00CFA0CB9BDF9044007B068
:1029C000204630BD002801D00EF0CFB8704710B5BA
:1029D000040006D00FF07CFA2046BDE810400FF04E
:1029E0004BBA10BD002801D00FF0EABA70470000C2
:1029F000074A0649054B1160064A083BD1695860F1
:102A00001B68C2E906300846704700003803002002
:102A100004030020080300202DE9FC410D460700B7
:102A200028D001F08BF90190C16D8C6800F0F7F8A7
:102A300080460198456301A801F0CAF92268012186
:102A40003846904706462268032138469047054697
:102A500022680021384690470446384600F0C5F900
:102A60002B46324641463846009400F04EF938462F
:102A700008F0DDF8BDE8FC817CB50D46040019D0F6
:102A800001F05CF90090006F0190684601F0A0F938
:102A9000294601A804F08CFC00280BD0204601F048
:102AA0004DF9009001990167684601F091F92046BF
:102AB00008F0BDF87CBD38B50C4605000ED001F01D
:102AC0003DF90090B0F95A10A14204D0A0F85A4044
:102AD000284608F0ACF8684601F07AF938BD2DE9CF
:102AE000FC470D465FEA00094FF000042DD001F0CD
:102AF00025F90190B0F95440A54223D000F08FF899
:102B0000804601980121A0F85450C06D8568484660
:102B10002A68904707462A68032148469047064698
:102B20002A680021484690470546484600F05DF96E
:102B300033463A4641464846009500F0E6F8484696
:102B400008F075F801A801F043F92046BDE8FC87BC
:102B50002DE9F34F85B000270C46B846059801F0E3
:102B6000EDF80090C06D0121856805982A689047AE
:102B700082462A6803210598904704902A6802211A
:102B80000598904703902A680021059890470646CB
:102B9000009808F0D5FC8346009808F0D8FC8146E0
:102BA000009890F83210890601D5B0F9588000F0ED
:102BB00036F805460098C06E10B107F096FD07463E
:102BC00025806780A4F804A0049AABEB020006EB12
:102BD0000802401E2A4420813A44E280039BA9EB6C
:102BE0000302521E6281A4F80CA020827019E681B3
:102BF000401E6082684601F0EBF8B4F90C000190C9
:102C0000B4F91000029002AA01A9059800F03AF860
:102C10000198A0810298208207B0BDE8F08F10B51E
:102C20000146002091F83220920607D5B1F95400F0
:102C3000002803D1486B02F0E3F8801C10BD70B58A
:102C40008AB00C46054601F079F80990C06D866897
:102C500009A801F0BDF8009534B1012C06D0022C72
:102C60000BD0032C04D10AE0182000E016200190BC
:102C70007168684688470AB070BD1520F7E71720CD
:102C8000F5E700002DE9FC4117468846044601F0AF
:102C900055F80090C16D056868468E6801F098F897
:102CA00032680021204690470646204607F0A0FCE7
:102CB00027E000BF01F042F80190B0F900102AB2FD
:102CC000B0F90430891A9A1AB0F90230A3EB2543FF
:102CD000B34210D190F82800000605D53868884224
:102CE00009DB491E396006E0D8F80000904202DC9A
:102CF000521CC8F8002001A801F06AF8204607F02D
:102D0000ABFC0400D6D1BDE8FC812DE9FF4F83B0B8
:102D10000E460746DDF8409001F010F80190C16DB5
:102D20008D68FFF77CFF044601A801F051F82A687E
:102D300001213846904783462A6803213846904748
:102D400082462A680021384690470546B44207D19A
:102D500005998B4504D106998A4501D14D4541D04D
:102D6000A41B0026B046384607F042FC38E000F0CD
:102D7000E5FF0090806A010601D5800502E081052B
:102D800028D50006002825DB24B122461146384606
:102D900008F032F8009890F8280000060AD5069846
:102DA000A5EB0902A0EB0A0004FB16013846761CCD
:102DB00007F0EDFF0098008D80050BD50599A5EB78
:102DC0000902ABEB010004FB080108F101083846D9
:102DD00007F0DDFF684600F0FBFF384607F03CFCDB
:102DE0000700C4D107B0BDE8F08F70B586B00646C5
:102DF00000F0A4FF0590D0E91A4505A800F0E8FF0F
:102E000054EA050026D069463046FFF7A1FEACB172
:102E1000BDF90620BDF90410204607F08DFFBDF96D
:102E20000A00BDF90610421ABDF90800BDF90410E8
:102E3000521C411A2046491C08F0F0F9002D09D017
:102E4000BDF90600BDF90210421ABDF9041028466A
:102E500007F072FF06B070BD2DE9F04304464068EC
:102E600089B0054607F0FFFB814600F067FF02903E
:102E7000D0F84880D0F88070466E02A800F0A8FF15
:102E80002068172853D008DC0E283AD00F2811D01C
:102E900014284CD015283DD149E01E281ED01F28EB
:102EA0002AD0222840D0312834D10020E06009B057
:102EB000BDE8F0836FF070414046884503D005F0CF
:102EC0005DF801F06FF9002EF1D0D4E9021220680C
:102ED000CDE90405CDE9061204A81FE0E06800284A
:102EE000E5D02FB1AF4203D0384608F001F9DEE754
:102EF000284608F04BF9DAE72146484606F09AFEE4
:102F0000D5E7E0684168002904DD00680928EFD0B2
:102F10000A2805D05EB12046C4F80490B047C6E741
:102F2000284608F03BF9C2E7C4F80C80BFE720460A
:102F300007F01EFABBE700002DE9F0430446C56820
:102F400087B090468946002002F0D0FC064625B1A5
:102F5000287910B146F0020001E026F0020002F0EC
:102F6000C5FC2069012558B1D4E902128DE826007C
:102F7000039563882288046841464846A0471EE0BE
:102F8000124F134B214638681B68427CE068984713
:102F900030B9E088012801D0002001E03868806B5A
:102FA000A288E388A1680095CDE90410CDE902323A
:102FB0000195638822884146484604F0CFFB07B05C
:102FC0003046BDE8F04302F091BC000088000020CC
:102FD000800000201CB50024019401AC009400F096
:102FE000E7F81CBD2DE9FF4F83B0814606988A465D
:102FF000A0EB0A08109E00200090A2EB090435689F
:10300000934654EA080018D02046FDF7A7FE07466D
:103010004046FDF7A3FE87420BDA20464446804631
:103020004846D14682465846DDF818B00690012041
:103030000090002C07DD204606E007B04846BDE8BA
:10304000F04F00F03BB96042A0420AD04846D94652
:103050006442C8F1000883464FF0FF37DDF818A03E
:1030600000E001275148B8F1000F11D004EBD471F2
:103070004FEA610B01DACBF1000B4C480068807E0F
:1030800088B3002F02DA30682044306000257BE0EE
:1030900000990029016821D0897E11B1002780465E
:1030A00015E007B05A4649465046BDE8F04F04F0D7
:1030B000B7BC28466D1C0FF071F838B9D8F800007D
:1030C00009EB0701406E4268504690477F1CA742BB
:1030D000EFDD6D1E356007B0BDE8F08F8A7E1AB156
:1030E0000027804617E019E0486E5A4651460368AB
:1030F00007B04846BDE8F04F184728466D1C0FF052
:103100004DF838B9D8F8001009EB0700496E4A6845
:10311000514690477F1CA742EFDDDAE700250FE01C
:1031200008FB05B090FBF4F101EB0A00009951B1E6
:103130001E4A09EB05011268526E526890476D1CD9
:10314000A542EDDDC7E7194909EB05030968496E9A
:103150004A6801461846F1E708FB05B090FBF4F118
:1031600001EB0A0001903068384430600FF016F827
:1031700048B9009890B10D4809EB05010068406E10
:103180004268019890476D1CA542E5DD3068002F2C
:1031900001DA20443060C01B30609CE7034909EB32
:1031A00005000968496E4A680199EBE7880000202C
:1031B0002DE9FF470F4640491646804609680C989E
:1031C0001D460A7E012A1CD0A8EB0600791B50EA96
:1031D00001031CD0A2F1010910F014F900F5806080
:1031E000824604F0D4F900FB09F4504604F0D4F907
:1031F00000FB09F1002C0CDAC4F50070801240428B
:103200000AE00090324639464046FFF7EBFEBDE843
:10321000FF8704F50074A012002904DAC1F50071DB
:1032200089124C4202E001F500718C12002804DD85
:10323000411C01EBD171491003E000EBD071491042
:10324000401E00EBD0704210002C04DD601C00EB2F
:10325000D070401003E004EBD4704010641E04EB07
:10326000D47308EB0104ADF800403C18ADF80240FF
:10327000A8EB02045B10B21AADF80440ADF80820C8
:103280003144FC1AEA1AADF80C102844ADF80A20B3
:10329000ADF80E000023ADF806401A46042168463A
:1032A00000F07AF8394640460BF044FB2946304698
:1032B0000BF040FBABE7000088000020064A1368D3
:1032C0001A7E012A05D0521E02EBD272521000F073
:1032D00005B85A6E52681047880000202DE9F05F4B
:1032E0000646884640F2C32002FB00F14FF47A7094
:1032F00091FBF0F702FB02F102EBD27001EB600BE5
:103300001446B118234A301B7F1C1268526E136892
:103310000A4641469847012538E000BF05FB05F005
:1033200004FB040159451CDDBC4219DD194B06EBB9
:10333000050AA6EB05091B68AAF1010208EB0401C6
:103340005B6E09F101001B689847124BAAF101025C
:10335000A8EB04011B6809F101005B6E1B6898472C
:10336000641E0C4B3219301B1B68924608EB05019A
:103370005B6E81461B689847064B5246A8EB0501D9
:103380001B6848465B6E1B6898476D1CBD42C5DDD7
:10339000BDE8F09F880000202DE9FF4F43F6FF7441
:1033A0000F46664283B09B46814600210BE000BF7A
:1033B00009EB8100B0F90200A04200DA0446B042F5
:1033C00000DD0646491CB942F2DB674800684069E7
:1033D00000280DD0B0F906101A46A1EB0B01B1423E
:1033E00000DA0E46B0F90200801AA04200DD044661
:1033F000B4E0DFF878A100200546CAF8000088E0B4
:10340000781E854201DA6B1C00E0002309EB850C75
:1034100009EB8302BCF90200B2F90210A04244D1C8
:10342000A14215D139F92330059A39F9251003EB5A
:10343000020C4D4A05981268084404EB0B01526EC9
:103440006045136801DA62462AE00246604627E0DA
:103450002846A4464FF000087A1E0BE008B1401E33
:1034600000E0781E09EB8003B3F90230634504D114
:1034700008F101089045F1DB2346A34248D01A1B0E
:1034800039F92500A1EB040C059B92EA0C0F09D435
:10349000354A184404EB0B011268526E1368024659
:1034A000984735E008F0CCFC32E0A14230D001DB97
:1034B000A04203DDA0422BDBA14229DCE04688428A
:1034C0000ADC0346A04223DC0846A14220DBB8F90F
:1034D00000C0B2F9001008E00B46A14218DCA0427F
:1034E00016DBB2F900C0B8F90010E21AA1EB0C012A
:1034F00051430029A0EB030202DD01EB620102E06F
:10350000A1EB6201491CC01A91FBF0F06044C9E7CD
:103510006D1CBD42FFF674AF0598009004EB0B00E4
:10352000019000208046054613E01149B8F1000FD4
:1035300031F915A009D0009901EB0A0208440A49A3
:103540000968496E0B680199984788F00108504650
:103550006D1C064909688D42E7DB641CB4427FF7A5
:1035600048AF07B0BDE8F08F88000020500700206A
:10357000E0FC002010B5002002F0AEF96FF07F40B3
:1035800002F0ACF9012002F0E3F9002002F0E8F9C2
:10359000002002F0EFF9002002F0A8F904480068CA
:1035A00002F0A6F9BDE81040002002F0ADB900001D
:1035B000840000202DE9F04102460025002600206D
:1035C00000230024002791F803C00CF00F0591F8A8
:1035D00003C01CF0100F03D091F802C04CEA05059F
:1035E00091F800C0BCF1000F31D0146800202BE02E
:1035F0004FF0010C0CFA00F3B1F800C00CEA03061E
:103600009E4220D183004FF00F0C0CFA03F7BC430D
:1036100005FA03FC4CEA040491F803C0BCF1280F3E
:1036200006D14FF0010C0CFA00FCC2F814C00AE0FD
:1036300091F803C0BCF1480F05D14FF0010C0CFA12
:1036400000FCC2F810C0401C0828D1D31460B1F8A7
:1036500000C0BCF1FF0F34DD546800202EE000F103
:10366000080C4FF0010808FA0CF3B1F800C00CEA9E
:1036700003069E4221D183004FF00F0C0CFA03F792
:10368000BC4305FA03FC4CEA040491F803C0BCF106
:10369000280F05D100F1080C08FA0CF8C2F81480C4
:1036A00091F803C0BCF1480F07D100F1080C4FF0AE
:1036B000010808FA0CF8C2F81080401C0828CED384
:1036C0005460BDE8F08141617047016170470000BE
:1036D00038B50121084605F057FC01213C2005F0D2
:1036E00053FC0121402005F03FFC5D48406800F09C
:1036F000E0605B4948600846406840F00070486000
:103700004FF4A06004F0E6FF564800684FF47A7268
:10371000B0FBF2F1B1F1807F00D31DE021F07F40DA
:10372000401E4FF0E022506150170F22002807DAA8
:1037300013071D0E4C4B00F00F04241F1D5503E012
:1037400013071C0E494B1C5400BF00204FF0E02211
:1037500090610720106100BF4FF4C040ADF8000039
:1037600010208DF8030001208DF8020069464048C2
:10377000FFF720FFA020ADF8000010208DF8030017
:1037800003208DF8020069463A48FFF713FF4020F6
:10379000ADF8000048208DF8030069463548FFF772
:1037A00009FF4FF6FF70ADF8000010208DF8030000
:1037B00003208DF8020069462F48FFF7FBFE4FF407
:1037C0007070ADF8000010208DF8030003208DF814
:1037D000020069462648FFF7EDFE4FF48070ADF811
:1037E000000010208DF8030001208DF802006946CA
:1037F0002048FFF7DFFE4FF4C050ADF80000142062
:103800008DF8030003208DF8020069461948FFF780
:10381000D1FE4FF49840ADF8000010208DF8030061
:1038200001208DF8020069461148FFF7C3FE4FF6EC
:10383000FF711148FFF747FFA0210E48FFF743FF34
:103840004FF4C8410A48FFF73EFF4FF43C61084877
:10385000FFF73BFF4FF410610648FFF736FF38BD16
:10386000000001400000002018ED00E000E400E04E
:103870000010014000080140000C01402DE9F04F0C
:10388000DFF828B191B04FF0FF35DBF80030B3F925
:1038900022100691DE69B3F924A0F469A18981425E
:1038A00006D8E289824203D3471AD4F8008012E096
:1038B000D4E90181002970D00A8882426DD84D88F0
:1038C00085426AD3801A82B2486800EB8200B0F960
:1038D0000070B0F90250781C5FD0307EA27C0146A7
:1038E00000FB02F9207CCDE90710B3F92A603046CD
:1038F00004F08EFBC0B20E90DBF8001007FB0980CD
:10390000A37C8A6B0127CDE90402CDE90273C86963
:10391000089AC17E807ECDE90001DDE906035146AB
:1039200003F01CFF681C18D046F0020004F070FB86
:10393000DBF80000A37C05FB0981826BCDE90273F3
:10394000CDE90412C069089AC17E807ECDE90001EC
:10395000DDE90603514603F001FFDBF800005D4698
:10396000C069417E007E814214D9022E12D086F0B9
:10397000040004F04DFB2868C069027EC37E857E8A
:1039800002FB03A1437E089A0698534402FB0502FA
:1039900004F070F80E9804F03BFBDBF80000627C4A
:1039A000418C1144418411B0BDE8F08F88000020A3
:1039B00004480068C069C06909B1027C0A60407CA3
:1039C0007047000088000020022008807047C0690E
:1039D00082898A4202D8C2898A4210D2806880B124
:1039E00002888A420DD843888B420AD3406800EB94
:1039F0008100A0EB8200B0F90000002801DB01206B
:103A000070470020704700002DE9F0432F4C03461B
:103A100087B020681946B0F92A80C069C06900F0F3
:103A200082F800284ED041680088181A01EBC005C2
:103A30004046AE7804F0ECFA814620686A680123BB
:103A4000816BCDE90236CDE90421C169CB7E8A7E46
:103A5000CDE900230B7EB0F924102A78B0F92200BA
:103A600003F07CFE2068C069477E067EB7421DD900
:103A7000C07E47434643B8F1020F17D001F053F917
:103A8000804601F033F901F029FF21682A78CB69DB
:103A9000B1F92200B1F92410DB7E02FB0302CB193D
:103AA000314403F0E7FF404601F018FF484604F0B8
:103AB000AFFA20686A78C369B0F922109B7E02FBD6
:103AC0000311418407B0BDE8F083000088000020A6
:103AD00030B50E4C05460B4620682946C069C069C2
:103AE00000F021F8002810D04168008824682A1AC4
:103AF0000120E46900EBC200085CA47E6043002B57
:103B000003D011F832106143196030BD88000020E5
:103B100001200880704700B5C06900F004F8002853
:103B200000D0012000BD06E002888A4202D8428807
:103B30008A4202D280680028F6D17047F8B505465F
:103B40000C000DD0084600F015F8060010D000F06B
:103B5000F5F8224600902DB12946FCF705FB04E05C
:103B60000020F8BD002103F094FC684600F030F915
:103B70003046F8BD002801D008F07CBA704738B54F
:103B80000546FFF7F7FF040009D000F0D7F82A46F2
:103B90000021009003F07DFC684600F019F92046F2
:103BA00038BD0000024A106021F0030050607047E9
:103BB00020FB002010B5002814D004460A48406BB2
:103BC00010F8341000290DD002290BD2042101EB8A
:103BD000C4014158486808F04FF92046BDE810403C
:103BE0000EF090B810BD000060FA0020002805D04B
:103BF000034AD16B016001B14860D0637047000097
:103C000060FA002010B504460068FFF7D3FF0020DB
:103C1000206010BD70B50D460646002405E000BFCB
:103C200006EB8400FFF7EEFF641CAC42F8DB70BDCE
:103C30002DE9F04104460CF005FE2848E41C24F070
:103C40000305016C2D1DA94200D90D46C46B13E07C
:103C500054F8042CAA420ED184B1216809B16268DB
:103C60004A60616809B122680A60C26BA24231D120
:103C70002168C1632EE02468002CE9D18046816B65
:103C8000C0680F1857F8040C3E1A306838B100208D
:103C90000EF0A2F857F8040C3E1A3068D0B97068DC
:103CA000A84217DB3044441B3046241D0EF04CF86C
:103CB000D8F80C10491BC8F80C10D8F81410294477
:103CC000C8F814107068401B02D0314608F0D4F8D0
:103CD00044F8045C2046BDE8F081000060FA002052
:103CE00010B500240CF0AEFD0C490F2001EBC00212
:103CF000526C1AB101EBC000406C08E0401EF5D5D3
:103D000008E04168A14200D90C46806810B1806883
:103D10000028F6D1A4F10C0010BD000060FA0020CC
:103D2000002138B10449042202EBC000496B085855
:103D300041680C390846704760FA00200549CA6995
:103D4000521CCA61496B01EBC0010A78521C0A700F
:103D500000F056B860FA00207CB506460C460846CE
:103D6000FFF708FF05001CD0DEB13046FFF7D8FF93
:103D7000A04200DA04462846FFF7E0FF00903046F4
:103D8000FFF7DCFF0146019022460098FCF7ECF9B2
:103D9000684600F01DF801A800F01AF83046FFF759
:103DA00009FF28467CBD000010B5FFF799FF64228B
:103DB0000649B0F5800F04D990FBF2F0096A484338
:103DC00010BD096A4143B1FBF2F010BD60FA00205A
:103DD0000A4902684B6B52F8082C03EBC2021378B5
:103DE000022B03D3CB690BB15B1ECB611178491E4B
:103DF00011700021016008467047000060FA002041
:103E0000002806D00349042202EBC000496B085881
:103E10000830704760FA00202DE9FC414FF00006A1
:103E20000B465FEA000834462BD032B111461846E3
:103E3000FFF784FE060000D101244046FFF77EFF15
:103E40000090078845686846FFF7C2FFCCB9B90003
:103E50002846091DFFF780FF050015D0FFF76EFF0C
:103E6000019040F8276001A8FFF7B2FF4046FFF736
:103E700065FF009045600188491C01806846FFF796
:103E8000A7FF2046BDE8FC813046FFF793FE0124E2
:103E9000F7E70820FFF773BE7CB5050023D0FFF7D6
:103EA0004DFF00904068C0B1FFF748FF002401902B
:103EB00005E0019800EB8400FFF7A4FE641C009865
:103EC0000088A042F5DC01A8FFF782FF0098001DE2
:103ED000FFF798FE0099002008806846FFF778FFFA
:103EE0002846FFF767FE7CBD38B5002430B1FFF7E8
:103EF00025FF009004886846FFF76AFF204638BD1A
:103F000038B50D46002448B1FFF718FF2946009048
:103F100000F05BF804466846FFF75AFF204638BDBC
:103F200038B50D46002448B1FFF708FF2946009038
:103F300000F05DF804466846FFF74AFF204638BDAA
:103F40002DE9FE43984691460D460024D0B3FFF775
:103F5000F5FE01900788466801A8FFF739FFBD42CA
:103F600030D27EB33046FFF7E9FE009050F825408E
:103F70006846FFF72DFF24B12046FFF7D1FE4045EC
:103F800011D04046FFF7FBFD04000CD03046FFF790
:103F9000D5FE00EB850500902846FFF733FE684606
:103FA0002C60FFF715FFB9F1000F0BD054B120467C
:103FB000FFF7C4FE424649460290FCF7D5F802A836
:103FC000FFF706FF2046BDE8FE8338B50D460188A1
:103FD0000024A94209D9406838B1FFF7AFFE00902C
:103FE00050F825406846FFF7F3FE204638BD10B56F
:103FF0000024FFF7EAFF10B1FFF7A0FE04462046B9
:1040000010BD70B50C46054600F07AFFC1B22346DC
:104010002846BDE870400022AFF30080F0B52D27A0
:104020001C68B0F1004F08D0002600280DDA651C8E
:104030001D6027704042012408E0651C01261D60B8
:104040006FF000402770491E01E00024091BC9B22F
:104050002AB3491EC9B222E00C46491EC9B2944295
:1040600005D1124C27781C68651C1D602770104C08
:1040700054F8215090FBF5F4E4B20A2C11D804FB5B
:10408000150011B90EB1641CE4B20A2C02D101244E
:10409000491CC9B21D686F1C30341F602C70002988
:1040A000DAD1196800200870F0BD00007C00002003
:1040B000E005070810B5136808290DD85C181460CE
:1040C00000222270054A04E000F00F040009145D8C
:1040D0005C54491EC9B2F7D210BD0000445A07080B
:1040E00010B5002807DD0A682B24531C0B601470E0
:1040F000096800220A7010BD70B506460D461446C8
:10410000104600F017FE0300164804EB84010AD0A5
:1041100050F8210041688068711A2A1ABDE8704081
:10412000184601F0EFBB00EB8104A268B24201D057
:10413000012200E00022E368AB4201D0012300E04D
:1041400000231A430CD0236943B150F82100816841
:1041500040686A1A311A184601F086FBC4E9026504
:1041600070BD0000B8FC002010B5C2B2CBB2D21AAC
:1041700000D5524293B25B43C0F30722C1F3072438
:10418000121B00D55242000C92B2A0EB114002FB70
:10419000023200B2002801DA404200B280B200FBD5
:1041A000002010BD10B50021084600F03DFE43F68A
:1041B000FF725042BDE8104013460146AFF3008045
:1041C0002DE9FC4107461C4615460E46042003F027
:1041D0001FFF80461148C068C16C006D0F44064443
:1041E0000D440444ADF80070ADF80450ADF8026021
:1041F000ADF80640684607F0B1F907E023462A46C5
:104200003146384603F036FC07F05CF90028F5D15A
:10421000404603F0FDFEBDE8FC8100007C0000206C
:10422000B0F90630B0F90420B0F90210B0F900007E
:10423000FFF7C6BF2DE9F8431C00DDE908981646D4
:104240000F46054602D106F0B5F9044600962E68E1
:1042500043464A4621462846B047060035D006F078
:104260009DF98146698A304605F074FD304607F0B5
:1042700001F8484606F0FEFF4FF000080CE000BFD2
:10428000CDF8008055F81CCF00231A464946284631
:10429000E047E0B106F0EEFF7F1E002FF0DC1D21AD
:1042A000484606F05CFE601C0ED006F0A9F930B15D
:1042B000FFF7A6FD8469B44201D02000F8D1B442D2
:1042C00002D0304606F062FF3046BDE8F883304643
:1042D00006F082F80020F8E72DE9F0411C4616466A
:1042E0000D460746022B02DB0020BDE8F0811C20B2
:1042F000FFF79EFC0028F8D00DB105610AE0094ADD
:1043000052F8241009B905E011460A68002AFBD1C9
:104310000969016184618682002101604160C0E910
:104320000217E2E7A000002070B51D46FFF7D4FF9A
:10433000040009D000F00EF8E068006820B90348D6
:10434000006800EB85008465204670BD8800002071
:10435000FFF74CBC70B590B38269022A30DA1E4C6C
:1043600054F8221019B944F8220032E019464B687B
:10437000002BFBD106E0CB68C5681B682D68AB42FB
:1043800003DD09680029F6D11AE0C1B1CB68C6681F
:104390001B683668B3420CD1838A012B05D008E034
:1043A0001946DB681B68AB4203DB0B68002BF7D1B7
:1043B00029B14B6833B118604A68426004E0FFE7F6
:1043C000012070BD44F822004860884200D10021DD
:1043D0000160002070BD0000A00000200EF04CBB6A
:1043E000022801DB00207047054951F8200004E055
:1043F000C16809680029F6D000680028F8D1704724
:10440000A0000020F8B516460F4605004FF0000446
:104410000FD00C20FFF7B3FB04000AD0FFF78EFC8F
:1044200005490090C0E90015078146816846FFF7FD
:10443000CFFC2046F8BD000000500708F8B507463D
:1044400015460E460C20FFF79AFB04000AD0FFF732
:1044500075FC05490090C0E9001706814581684652
:10446000FFF7B6FC2046F8BD1C5A07082DE9F843B3
:104470001D461646884604000CD0FFF75FFC0090EE
:10448000006807686846FFF7A3FC2B4632464146A2
:104490002046B847BDE8F88338B504004FF0000067
:1044A0000AD02046FFF74AFC00900068456868463D
:1044B000FFF78EFC2046A84738BD38B504004FF002
:1044C00000000AD02046FFF739FC0090006885689C
:1044D0006846FFF77DFC2046A84738BD70B5044606
:1044E00001F0CCFD051908E000F03EFB052C01DDD4
:1044F000052000E0204601F0B3FD01F0BFFD2C1ABD
:10450000002CF1DC70BD00002DE9FC4706005BD0FB
:1045100000F028FC3B4C81462068B0F9228000F076
:1045200057FC216807468A8CD01B888441E000BF75
:1045300047F6FF71304602F095FD8246014630464F
:1045400002F066FD2168054691F82C0000F003009A
:1045500001283FD0022839D000204A8C101A488404
:10456000ADF800006A1E1044ADF80400888CADF868
:104570000200A9F101010844ADF806006A4651465F
:10458000304601F065FF2168BDF80200888451467D
:10459000304601F03BFC064430780A281CD00D2838
:1045A0001AD0BDF80000216828444884307818B13A
:1045B000761C30780028BBD12068818C39448184F6
:1045C000818D21F003018185BDE8FC8705EBD57065
:1045D0004010C2E72846C0E7206890F82C1001F090
:1045E000030101290BD0022909D0018C41843178C3
:1045F0000A29DBD1828C02EB09018184D6E7A0F87D
:104600002280F4E788000020024B1B6859849A84BA
:10461000FFF77ABF880000202DE9F04107460A48DD
:1046200015460E460068B0F92C0040F0020001F07B
:1046300097F904462A4631463846FFF7E5FF2046FB
:10464000BDE8F04101F08CB98800002047F6FF7307
:10465000AFF300802DE9FC411F46904606000D4651
:104660004FF0000416D065B1084606F0F7FD0400CF
:1046700007D002462946684602F061FD684606F00A
:10468000EDFD3B4642462946304601F039FF2046C3
:1046900006F0E4FDBDE8FC812DE9FF4F87B09046B0
:1046A0008946070079D00C68D9F8045021B228B2A5
:1046B000401A401C029000F055FB064618F00C0F03
:1046C0001ED038460A9A029901F0A9FC08F00C01A4
:1046D000042904D0082902D00C2911D104E029149E
:1046E00000FB1610401C09E02114C1EB254200FB21
:1046F0001620401C00EBD07001EB600060F31F44FB
:10470000484606F0ABFD5FEA000B09D00246494679
:1047100004A8CDE9044502F012FD04A806F09EFDB0
:10472000A6F1010A38460A9A029902F081FE039026
:104730000AEB244060F31F45CDE900453846039954
:1047400002F066FC18F003010ED0012928D00229DE
:104750000ED1B9F90420B9F90010521A101A00EB61
:10476000D07001EB600001E0B9F80000ADF8000086
:104770006A463846039901F06BFE38460A9A029958
:1047800002F04CFE074406EB244060F31F443878E7
:104790000028C7D1584606F061FD0BB0BDE8F08F88
:1047A000B9F80410081A401CE0E700007CB5064682
:1047B00010480068C36C006D5D1884183188681E4D
:1047C0000844ADF80400ADF800507188601E08443C
:1047D000ADF80600ADF80240684606F0BFFE06E000
:1047E000224629463046FEF7A7FB06F06BFE00285E
:1047F000F6D17CBD880000201CB50A4601466846FB
:1048000002F089FD2448BDF80010006830F84C2FF4
:104810001144ADF80010BDF8021082881144ADF8C3
:104820000210BDF8041002881144ADF80410BDF860
:10483000061080880844ADF80600684606F08EFE33
:1048400027E000BFBDF900400BE000BFBDF902103A
:10485000204603F0B1F8BDF90610204603F0ACF88D
:10486000A41CBDF90400A042F0DABDF902400AE040
:10487000BDF90000214603F09FF8BDF90400214670
:1048800003F09AF8A41CBDF90600A042F0DA06F085
:1048900019FE0028D6D11CBD880000202DE9F04F5C
:1048A0000C46164987B00D68DDE91098E96C0F18C1
:1048B000286D8D180619C418ADF81070ADF8145095
:1048C000ADF81260ADF8164004A806F047FE0028C7
:1048D00011D0DFF82CB04FF0000ACDE90098CDE9F7
:1048E00002BA2B4622463946304609F0F1FE06F060
:1048F000E9FD0028F1D107B0BDE8F08F8800002065
:10490000217A00082DE9F04F164C87B02568DDE9C3
:104910001098EC6C2718286DA5184618C418ADF827
:104920001070ADF81450ADF81260ADF8164004A840
:1049300006F014FE002811D0DFF82CB04FF0010A69
:10494000CDE90098CDE902BA23462A4631463846D9
:1049500009F0BEFE06F0B6FD0028F1D107B0BDE8B3
:10496000F08F000088000020617900082DE9FC41EB
:10497000104F04463B68D86C4518196DADF80050CF
:104980000E198418ADF80440ADF80260ADF8066069
:10499000684606F0E3FD08E0386822463146406E7E
:1049A00003682846984706F08DFD0028F4D1BDE83D
:1049B000FC810000880000202DE9F0410B4C2568A7
:1049C000EC6C2718286DA5184618C418002006F0AE
:1049D000C5FD07E023462A4631463846FEF7FAFA77
:1049E00006F070FD0028F5D1BDE8F08188000020B8
:1049F0007CB50E4D2A68D36C1E18106DADF804609E
:104A00004418ADF80060ADF80640ADF802406846C5
:104A100006F0A4FD07E028682146406E4268304653
:104A2000904706F04FFD0028F5D17CBD880000209E
:104A30002DE9FC411C4C2468E66C94F818C037182A
:104A4000206DACF1010C4518C418A7EB0C001644FE
:104A5000ADF8000006EB0C00ADF80400A5EB0C006F
:104A6000ADF8020004EB0C00ADF80600684606F055
:104A700075FD15E032462946384602F071FF324690
:104A80002146384602F06CFF621E691C384602F06F
:104A9000C7FF621E691C304602F0C2FF06F012FD1D
:104AA0000028E7D1BDE8FC81880000207CB50E4BD2
:104AB0001B68DC6C2618186DADF80060451884186A
:104AC000ADF80460ADF80250ADF80640684606F057
:104AD00045FD06E022462946304602F0A1FF06F0D9
:104AE000F1FC0028F6D17CBD8800002070B50C4692
:104AF000054600F029F910B10121C0E9001428464B
:104B0000BDE8704006F060BC10B5044601F0B4FA90
:104B100004490968002903D02046BDE81040084731
:104B200010BD00000406002030B59DB00D460446BF
:104B3000CDF870D06F220021684602F0AAFC6422F2
:104B40002146684607F05EFD6846FBF73FFB1C996F
:104B50001CAA08441C900821284601F096FA6846D1
:104B6000FFF7D2FF1DB030BD10B5002400E00124D6
:104B700000F004F80028FAD1204610BD094810B50D
:104B80000068002410B1804700B1012405F0A4FCA6
:104B900000B101240448006810B1804700B101242D
:104BA000204610BDAC000020A800002070B51646BD
:104BB000094A1268D36C1C18106D4518002006F0C5
:104BC000CDFC06E0324629462046FEF787FB06F07C
:104BD00079FC0028F6D170BD880000202DE9FC4149
:104BE0000F4C2568EC6C2718286DA5184618C418BA
:104BF000ADF80070ADF80450ADF80260ADF80640B5
:104C0000684606F0ABFC07E023462A4631463846A4
:104C100002F030FF06F056FC0028F5D1BDE8FC811B
:104C200088000020B0F90630B0F90420B0F9021075
:104C3000B0F90000FFF7D2BF08B50B46002805D039
:104C4000009281888268C08800F001F808BD10B524
:104C50000828029C30D008DC04FB01F401280AD0AB
:104C6000022813D0042804D11CE0102828D02028C2
:104C70002CD0002010BD04EBD30003F00701105C22
:104C8000C1F10701C84000F0010010BD04EB930022
:104C90000621105C01EA4301C1F10601C84000F0A1
:104CA000030010BD04EB5300D907105C02D000F0E4
:104CB0000F0010BD000910BD04FB0130105C10BDD9
:104CC000481004FB003032F8100010BD881004FBBF
:104CD000003052F8200010BD034951F82000C1688F
:104CE0008A6A082110470000A000002010B502F0D9
:104CF000F1FEBDE8104002F0D7BF0000024909688C
:104D0000C9694A680021104788000020024A1268D9
:104D1000D26952681047000088000020002801D0A6
:104D200005F02CBC704710B502F0DCFEBDE8104069
:104D300002F0BABF0021022802D2024951F8201025
:104D400008467047140600201FB50021019102910A
:104D500003912A210091694606F0FCF8039804B0FB
:104D600010BD000002480068C069407E7047000026
:104D70008800002010B907480068C06990F820201A
:104D80008A7090F822200A7190F82120CA708268F7
:104D9000104700008800002002F030B970B51446BA
:104DA0000D4602F023FF002802D00020286020607A
:104DB00070BD02F081B910B5044602F06FF90146EA
:104DC0002046BDE8104002F023B901F057B90000B9
:104DD0000A490020096891F82C2002F00C02042AEC
:104DE00007D0082A01D00C2A02D1C869007E4008E9
:104DF0007047C869007E401E704700008800002090
:104E0000017EC07E48437047024951F82000006986
:104E100000687047A0000020024951F82000006996
:104E200040687047A000002070B50D460BF0F4FB01
:104E3000044628460BF0F8FB204370BD124810B51D
:104E4000016821F0010101601048012181601049D1
:104E5000016000680F49884200D0FEE701F02AFA9D
:104E60000D492E20087001F00FF90C480BF09CFC46
:104E700010F02CFF04460021084600F04DFD05F01F
:104E800031FE204610BD0000002000E0003002404E
:104E9000C2A507F4CDB5E8B57C0000202CFB0020AE
:104EA0002DE9FC4107461C4615460E46012000F040
:104EB0001DFD804611480068C16C006D0F4406441A
:104EC0000D440444ADF80070ADF80450ADF8026034
:104ED000ADF80640684606F041FB07E023462A4647
:104EE0003146384602F0C6FD06F0ECFA0028F5D14E
:104EF000404600F0FBFCBDE8FC810000880000207B
:104F000010B5011E01DD024600E04A42064B0120B9
:104F100053F82040944202D8401C0A28F8DB0029AC
:104F200000DA401C10BD0000E00507081CB520B9E0
:104F30000C480068006E002812D0FEF7FFFE0090BB
:104F400044696846FEF744FF002C09D02046FEF76E
:104F5000F5FE019081688968884701A8FEF738FF4F
:104F60001CBD00008800002001490A4600F002B87C
:104F700001F0FFFF2DE9F04387B015460C465FEACC
:104F8000000842D0002000F0B1FC814620480068B3
:104F9000066E4046FEF7D2FE00900068806900F081
:104FA0007BFC074640F6FF70C44204D10098B0F97C
:104FB0000440B0F906500098611E0289ADF8044023
:104FC0001144ADF808104189681E0844ADF8065038
:104FD000ADF80A0005F0D4F86846FEF7F9FE01A81E
:104FE00006F0BCFA06E02A462146404600F03CFBAB
:104FF00006F068FA0028F6D1384600F04DFC30463D
:1050000000F054F9484600F071FC07B0BDE8F083A9
:10501000880000202DE9FE4F834619488A46194929
:1050200000680C9E9846407C9146002751F820402D
:10503000E1680968042903D02468002CF8D100E055
:1050400014B9FFF7CDF904460121E068C26A204691
:105050009047050011D02469A0688047401C02D108
:10506000094C46F001060096CDE9015443464A46F4
:105070005146584600F09EF907463846BDE8FE8F77
:1050800088000020A00000201051070838B5040057
:1050900018D00D480068006EA04201D100F0F2FB6C
:1050A0002046FEF74BFE0090406908B100F0A5FFD6
:1050B00000980068FFF74CF96846FEF789FE204625
:1050C000FEF778FD38BD0000880000202DE9FF4F75
:1050D0000746464883B099460068DDF840B08A46E6
:1050E000447C434800570128204606DD02F0A6FD17
:1050F0008046204602F0AEFD05E002F08DFD8046C0
:10510000204602F08FFD044617B302A901A8FFF75D
:1051100050FEB7F90060002E00DA0026B7F9025001
:10512000002D00DA00250199B7F904004144491E19
:105130000BF017FD804602980119B7F90600491EC9
:105140000BF00FFDA8EB0602441B521C641C02E08E
:10515000002635464246B9F1000F01D1C4F10009DD
:10516000002A01DD002C03DC002007B0BDE8F08F31
:105170004B4629463046CDF800B0FFF74BFF5FEABB
:10518000000909D000F058F88046484600F08EF833
:105190000027DFF860B01FE05146059888470120DE
:1051A000E3E7E11B414502DA484600F069F83FB108
:1051B000EA193146484600F09BF84846FFF7B6FE2C
:1051C000514605988847DBF8001009B10020884750
:1051D0004846FFF7C9FE4744A742E2DB4846FFF7CF
:1051E00055FF002000F062F8BEE7000088000020B4
:1051F000C00000204406002038B5002460B1FEF74E
:105200009DFD0090006800698068804703F0F8F811
:1052100004466846FEF7DCFD204638BD38B5002858
:1052200008D0FEF78BFD00F1180400906846FEF7E9
:10523000CFFD204638BD000038B5002418B9074816
:105240000068006E38B1FEF779FD0090B0F90A40B1
:105250006846FEF7BDFD204638BD000088000020EE
:1052600070B505460024284607F0E6FA641C18B11C
:10527000BDE8704000F068B8052CF4DB70BD00009C
:1052800038B50C4620B908480068006E00280AD0DE
:10529000FEF754FD0090B0F90A10A14200DD4481F0
:1052A0006846FEF795FD38BD88000020F8B50F4E22
:1052B00005003068046E16D00CB100F0E3FA05F07A
:1052C0004DF82846FEF73AFD009031680D660068FB
:1052D000FFF740F86846FEF77BFD02F00BFF02F097
:1052E00077FE2046F8BD00F0CDFAFAE788000020EE
:1052F0007CB515460C4620B912480068006E00289F
:105300001FD0FEF71BFD2DB20090C58024B2848013
:1053100002F05EFE0098406980B1FEF70FFD009A32
:105320000190B2F908108180B2F90A20C28011B14F
:105330000AB10480458001A8FEF74AFD6846FEF7E1
:1053400047FD7CBD8800002001490A4600F002B8F4
:1053500001F0FFFF7FB515460C46060028D0FEF78A
:10536000EDFC40F6FF710190CC4203D1B0F904404E
:10537000B0F906500289611E1144ADF80840ADF83D
:105380000C104189681E0844ADF80E00ADF80A50B3
:1053900001A8FEF71DFD02A806F0E0F806E02A4687
:1053A0002146304600F048F906F08CF80028F6D186
:1053B0007FBD00002DE9FF4FDFF8E8B083B01C4649
:1053C000DBF80010DDE9106092464FF000084B7CDE
:1053D00042461299FEF780FF050060D02869806878
:1053E000804703F00DF881460AFB09F1C91DCF087B
:1053F000FEF7DAFCF10705D1C11700EB91708010C0
:1054000000EB4000002C09DC1FB11838B0FBF7F0AE
:1054100000E000206442A04200DC0446F00707D10F
:105420000090DDE903012346524600F06FFD8046FF
:10543000002C03DC2846FEF78BFF30E004FB07F06E
:105440001830F10702D0FEF795FB01E0FEF797FB5D
:1054500006001CD0FEF772FC019005600399818064
:105460000499C180A0F808A04481C0F81480C0E964
:10547000037901A8FEF7ACFC1298AE602861DBF856
:105480000000407CA861304607B0BDE8F08F284698
:10549000FEF75EFF5FEA080001D0FEF78BFB0020FD
:1054A000F2E70000880000202DE9F74F8EB0144687
:1054B00089460E98FEF742FC0990B0F908B0B0F9A1
:1054C0000A600068006940680C9009A8FEF780FC3B
:1054D000564D574F2868407C57F82000C1688A6AAB
:1054E000082190470790182801D3202007902868AA
:1054F000407C57F820000069069003C80B904D4887
:10550000814201D0012000E000200A90002000F03C
:10551000CBFD00287DD1286809EB0B01B0F90C20E8
:10552000891A491E002902DDABEB010500E05D464A
:10553000B0F90810494505DDA1EB090189446D1A50
:10554000089101E000210891002D6BDDB0F90E20DB
:10555000A119891A491E002902DDA6EB010800E005
:10556000B046B0F90A00A04204DD061B3444A8EBA3
:10557000060800E00026B8F1000F53DD08980190FE
:105580000DA95F46DDF830A00E980091FFF746FEAA
:10559000774300EB870101982B4601EB80020099CD
:1055A0004846CDE900A1214601F05AF800900028B4
:1055B00038D00A98E8B1DDE906322946009800F0B3
:1055C00073FEB0B90698009FDA46D0F810C0BCF15F
:1055D000000F05D004235A4639463846E04708E014
:1055E0000B993868884701C7AAF101005FEA000AF1
:1055F000F6D100990020079ACDE90301059001201A
:105600000090CDE9010221460346641C2A46484623
:1056100000E007E002F0A2F8A8F10100761C5FEAC2
:105620000008ABD111B0BDE8F08F00008800002069
:10563000A0000020C77C0008F8B515460E460746B6
:10564000FEF77CFB009000681621C068426A0020CB
:10565000904704466846FEF7BBFB002C03D02A4661
:1056600031463846A047F8BDF8B515460E46074600
:10567000FEF764FB009044696846FEF7A9FB3846D4
:10568000FFF7BAFD0346082800DD2CB12A46314653
:1056900038460DF0B7FAF8BD2A46314638460DF0C7
:1056A00051FCF8BD10B5002821D009B30AB3B1F9F7
:1056B0000040B2F900309C4200DA23460380B1F981
:1056C0000240B2F902309C4200DA23464380B1F92D
:1056D0000440B2F904309C4200DD23468380B1F9D6
:1056E0000610B2F90620914200DC1146C18010BDBF
:1056F00011460A6802604968416010BD00280BD05D
:1057000003880B44038083881944818041881144B5
:105710004180C1881144C1807047000070B50E4DB2
:105720000446D5E90001884209D10C49884201D1DB
:105730003C3000E00C3807C884E8070006E090E839
:105740000E0084E80E000AF085FF2860207A002809
:1057500000D0012070BD00000806002028FC0020B9
:105760000448D0E90010814201D101207047002097
:105770007047000008060020054A10B50349116073
:105780000DF088F8BDE8104000F0FEB80DA7000845
:10579000B000002070B5094C0020D4E900218A42F5
:1057A0000AD0D2E9005610460AF05EFF206031466A
:1057B000284605F0F7FA012070BD0000CC0000205B
:1057C0002DE9FC41154DDDE908742D68B5F9086037
:1057D000864200DD3046B5F90C60964200DA32466A
:1057E000824219DBB5F90A608E4200DD3146B5F917
:1057F0000E509D4200DA2B468B420DDB00E02C461A
:10580000E5682D6825B1042D02D02568002DF6D15C
:10581000CDE9007402F0C6FABDE8FC8188000020E2
:10582000B0F90220B1F906309A4213DCB1F9022036
:10583000B0F906309A420DDCB0F90020B1F904301D
:105840009A4207DCB1F90010B0F90400814201DC92
:10585000012070470020704701460248702200680E
:10586000FAF782BC88000020002801D00CF05CBD53
:1058700070470000024970220968FAF775BC000001
:105880008800002010B502F059FB02F033FCBDE89F
:10589000104004F075BC000070B504460548022CA9
:1058A0000068457C02D24474FFF7ECFF02480460B4
:1058B000284670BD880000205405002070B50C46B5
:1058C000054605F06FFA002805D121462846BDE8B7
:1058D000704000F069B870BD02F050BB02F086BBAA
:1058E00001498860704700007C00002002F090BBF6
:1058F00003490968CA6900B1C861104670470000D1
:105900008800002002F0A0BB024909688A7E8876E0
:105910001046704788000020094A30B41080094AB8
:105920001180094A1268537C084A52F82330DA6819
:10593000146A0A46A446014630BC18466047000077
:10594000C8000020CA00002088000020A00000201D
:10595000024909680A7E08761046704788000020D0
:1059600003490968B1F92C2088851046704700006A
:105970008800002003490968B1F92A2048851046AB
:10598000704700008800002002480068002800D00E
:10599000004770472406002002498A6802B98860DF
:1059A000FFF7F2BFCC0000207CB50A4C0546CDE9DC
:1059B00000016068019A6E46C0E9005221680AF051
:1059C0003BFE6060E16809B130468847A560FFF79B
:1059D000DBFF7CBDCC00002010B5040009D00CF02A
:1059E000CDF920460DF020F82046BDE81040FEF726
:1059F000E1B810BD38B50C4660B1FEF79FF90090D4
:105A00008089204201D0012400E000246846FEF78E
:105A1000DFF900E00124204638BD38B5040012D07B
:105A2000FEF78CF90090FFF7D0F9014600988269E3
:105A3000114441616846FEF7CBF920460CF0F4FFB3
:105A400020460BF02DF838BD38B50C46002806D09E
:105A5000FEF774F9009084616846FEF7B9F938BD25
:105A600038B50546002028600648046844B1204641
:105A7000FEF764F90090006928606846FEF7A8F90F
:105A8000204638BD7407002038B504004FF00000F0
:105A90000D46086011D02046FEF750F9009084684A
:105AA00044B16846FEF794F92046FEF747F90090A6
:105AB000006928606846FEF78BF9204638BD000073
:105AC0002DE9F84FDFF898800546264F98F8180022
:105AD0008B46410738680A9E9946407C924607D417
